:100000000C9490010C94B8010C94B8010C94B801B4
:100010000C94B8010C94B8010C94B8010C94B8017C
:100020000C94B8010C94B8010C9412210C94812109
:100030000C94B8010C94B8010C94B8010C94B8015C
:100040000C94B8010C94FD230C94B8010C94B801E5
:100050000C94B8010C94B8010C94B8010C94B3231F
:100060000C94B8010C94B8010C94B8010C94B8012C
:100070000C94B8010C94B8010C94B8010C94B8011C
:100080000C94B8010C94B8010C94B8010C94B8010C
:100090000C94B9240C94B8010C94B8010C94B801D8
:1000A0000C94B8010C94B8010C94B80152657374A7
:1000B0006F72656420636F6E6669670007060504EA
:1000C0000100080A0B0C0D09416464656420656E2B
:1000D000636F6465720053657474696E6720636F43
:1000E0006E66696720656E640053657474696E6737
:1000F00020636F6E66696720737461727400436C6D
:10010000656172656420627574746F6E7300436C10
:10011000656172656420656E636F64657273004328
:100120006C6561726564206F7574707574730043DB
:100130006C6561726564207365676D656E747300CC
:10014000436C656172656420736572766F730043FA
:100150006C6561726564207374657070657273009C
:10016000436C6561726564206C6364446973706C90
:10017000617973004F4B004F4B004F4B004164645B
:10018000656420627574746F6E20004164646564F8
:10019000206F7574707574004164646564204C65EB
:1001A00064205365676D656E74002000526F636B49
:1001B000732100200020004D6F6269666C696768DA
:1001C00074004164646564206C6364446973706C9A
:1001D000617900416464656420536869667465727E
:1001E000006E2F61004164646564207374657070F3
:1001F000657200436F6E666C69637420776974681A
:100200002073746570706572000000000024002780
:10021000002A002D00300000000000250028002BDF
:10022000002E003100000000002300260029002CD1
:10023000002F000404040404030405020202020463
:100240000302020202060606060606040402020271
:1002500004040408020110408040102040804080C7
:10026000080204018040201002011080102040404C
:10027000200000000200090F0000030401000C0030
:100280000000000000000000000000000000000866
:100290000B0002020200000904000001020200003B
:1002A000052400100105240101010424020605248F
:1002B0000600010705810310004009040100020A3D
:1002C000000000070502024000000705830240000D
:1002D000000403090412010002EF0201404F1B0653
:1002E00092000101020301537061726B46756E004A
:1002F000537061726B46756E2050726F204D69634A
:10030000726F0041747461636865642063616C6C32
:100310006261636B73004F6E004F66660000D82504
:1003200011241FBECFEFDAE0DEBFCDBF12E0A0E0A8
:10033000B1E0E0E1F9E602C005900D92A039B10705
:10034000D9F728E0A0E9B2E001C01D92AF38B207AA
:10035000E1F711E0C0E9D1E004C02197FE010E945D
:10036000DE2FCF38D107C9F70E94B1260C9486340E
:100370000C940000AC011092BC0790914C08809145
:100380004B08FA01BF01641B750B2081222389F001
:100390003091BC072093BC07291304C0931302C0FB
:1003A0001092BC072081281302C0931302C031961B
:1003B000E9CFCB0108950F931F93CF93DF938091E3
:1003C0004008882309F446C0D0E0C0E0813029F419
:1003D00082E080934008C0ECD7E0809141088823F8
:1003E00041F1209721F4C0914508D09146088E0133
:1003F000CE010E94BA01892B29F42196F80180814F
:100400008111F5CFF8018081882309F1C8010E948C
:10041000BA01F801E80FF91F8081882311F01082DA
:100420003196F0934608E0934508109344080093F2
:1004300043088091430890914408892B59F081E04A
:1004400080934108DF91CF911F910F91089510E0A3
:1004500000E0EBCF80E0F6CF0E94DB01882351F073
:1004600081E08093410880934208809143089091F5
:10047000440808951092420890E080E00895FC013D
:1004800080919B04882311F13FB7F89482E0809318
:10049000E9002091F200822F90E01816190614F45A
:1004A00081E090E0882339F0289844E640939A044C
:1004B0004091F1004083222339F02091F200211174
:1004C00003C02BE62093E8003FBF08958FEF9FEF16
:1004D00008952FB7F89483E08093E9009091E800A5
:1004E000892F807295FF04C09091F20080E4891BEF
:1004F0002FBF08958091920481110DC082E08093F6
:100500008E0484E080938F041092910410929004E2
:1005100081E0809392048EE894E0089540917A04FB
:1005200050917B042091780430917904421753074D
:10053000B4F49091E8009570E1F39091E80092FD99
:1005400019C08093F10080917A0490917B04019608
:100550008F739927892B19F48EEF8093E80080918F
:100560007A0490917B04019690937B0480937A04A3
:1005700081E0089580E00895EF92FF920F931F931A
:10058000CF93DF93F82E192FE62E042F81E0860FEC
:10059000880F0E948E0283E00E948E02CF2DD12F01
:1005A000EC0EFD2EF11CCE15DF05B9F007FF13C0D0
:1005B000FE0184910E948E02182F80E00E948E021C
:1005C000812321968111EFCFDF91CF911F910F9160
:1005D000FF90EF9008958881EDCF81E0F5CFDF9215
:1005E000EF92FF920F931F93CF93DF93D82E8A0140
:1005F000EB017B01E40EF51ECE15DF0559F0D7FEA9
:1006000012C0FE0184910E948E0221968111F4CFC6
:100610000FEF1FEFC801DF91CF911F910F91FF9056
:10062000EF90DF9008958881EECF0F931F93CF93C3
:10063000DF931F92CDB7DEB782E0898342E450E0BA
:100640006FE872E080E80E94EF020E947A02DC010B
:1006500012960D911C910115110589F0D801ED91AB
:10066000FC910280F381E02DBE016F5F7F4FC801D6
:10067000099597FD04C0F80100851185ECCF8981AB
:100680000F90DF91CF911F910F910895615030F03D
:100690002091F100FC0120830196F8CF289884E690
:1006A00080939A040895DC01ED91FC910190F08112
:1006B000E02D0994EF92FF920F931F93CF93DF9356
:1006C0008C017B01D0E0C0E0F701EC0FFD1F6491CD
:1006D000662361F0D801ED91FC910190F081E02D4D
:1006E000C8010995892B11F02196EECFCE01DF913B
:1006F000CF911F910F91FF90EF900895AF92BF920D
:10070000CF92DF92EF92FF920F931F93CF93DF93DD
:100710006C017B018B01040F151FEB015E01AE180C
:10072000BF08C017D10759F06991D601ED91FC912E
:100730000190F081E02DC6010995892B79F7C5015B
:10074000DF91CF911F910F91FF90EF90DF90CF90AD
:10075000BF90AF900895CF93DF931F92CDB7DEB7D0
:100760006983DC01ED91FC910280F381E02D41E091
:1007700050E0BE016F5F7F4F09950F90DF91CF91E1
:10078000089583E08093E9008091F200882319F0B6
:100790008AE38093E80008950E94690290E008953A
:1007A000CF93DF931F92CDB7DEB7FC01848595858B
:1007B00097FD08C02FEF3FEF358724870F90DF911B
:1007C000CF910895CE0101960E943F02019719F43E
:1007D000898190E0F3CF8FEF9FEFF0CF0F931F93BE
:1007E000CF93DF931F92CDB7DEB78C01FC018485D8
:1007F000958597FF0BC0CE0101960E943F0201979D
:1008000071F4898190E0F80195878487F8018485E7
:1008100095850F90DF91CF911F910F9108958FEFE4
:100820009FEFF1CFFC018485958597FD0BC09FB7A5
:10083000F89482E08093E9008091F2009FBF90E0FD
:10084000019608959FB7F89482E08093E900809123
:10085000F2009FBF90E0089581508F3008F047C0AC
:10086000E82FF0E0EA5CFB4F0C94DE2F53045704B2
:1008700045044B044F047704770477045A0460045A
:10088000640468046E0477047204809180008F779A
:10089000809380000895809180008F7DF9CF8091B2
:1008A0008000877FF5CF84B58F7784BD089584B5A8
:1008B0008F7DFBCF809190008F778093900008957B
:1008C000809190008F7DF9CF80919000877FF5CF48
:1008D0008091C0008F778093C00008958091C00000
:1008E0008F7DF9CF8091C200877F8093C2000895E9
:1008F000CF93DF93282F30E0F901EF58FD4F84911B
:10090000F901EE5AFD4FD491F901ED5CFD4FC49110
:10091000CC23A1F081110E942C04EC2FF0E0EE0F0B
:10092000FF1FEB5DFD4FA591B491EC91ED2381E0AC
:1009300090E009F480E0DF91CF91089580E090E0AD
:10094000FACF1F93CF93DF93282F30E0F901EF58B0
:10095000FD4F8491F901EE5AFD4FD491F901ED5C00
:10096000FD4FC491CC23A9F0162F81110E942C04B5
:10097000EC2FF0E0EE0FFF1FE95EFD4FA591B49163
:100980008FB7F894EC91111108C0D095DE23DC9359
:100990008FBFDF91CF911F910895DE2BF8CFCF93BA
:1009A000DF9390E0FC01EE5AFD4F24918D5C9D4F4A
:1009B000FC0184918823D1F090E0880F991FFC01FD
:1009C000E75FFD4FA591B491FC01E95EFD4FC59134
:1009D000D49161110EC09FB7F8948C91E22FE095ED
:1009E0008E238C932881E223E8839FBFDF91CF91F0
:1009F00008958FB7F894EC91E22BEC938FBFF6CF6C
:100A00003FB7F8948091740490917504A091760496
:100A1000B091770426B5A89B05C02F3F19F0019629
:100A2000A11DB11D3FBFBA2FA92F982F8827BC0148
:100A3000CD01620F711D811D911D42E0660F771F70
:100A4000881F991F4A95D1F708958F929F92AF9270
:100A5000BF92CF92DF92EF92FF924B015C010E9416
:100A600000056B017C010E9400056C197D098E094F
:100A70009F09683E734081059105A8F321E0821A21
:100A80009108A108B10888EEC80E83E0D81EE11CC9
:100A9000F11C81149104A104B10429F7FF90EF9097
:100AA000DF90CF90BF90AF909F908F9008958F92DE
:100AB0009F92AF92BF92CF92DF92EF92FF920F93ED
:100AC0001F93CF93DF936C017B018A0180915A01C0
:100AD000882309F45CC080919B04882309F457C0E3
:100AE00080917E0480FF05C08091E0008260809349
:100AF000E000E801B12C8AEFA82E93E0892E2AE3CA
:100B0000922E209711F4BB20D9F10E946902811125
:100B10000AC0AA94AA20D9F161E070E080E090E0D8
:100B20000E942505EECF8C171D0611F00CF08C2FBE
:100B30009FB7F8948092E9002091E80025FD02C05B
:100B40009FBFDFCF282F30E0C21BD30BF7018150AE
:100B500020F041914093F100FACFE20EF31EBB204A
:100B600021F09092E800B12CEBCF8091E80085FD58
:100B7000E7CF9092E800BB24B394209709F3F3CF1A
:100B80005D9884E680937D04101611063CF081E0A8
:100B900090E0F6019383828310E000E0C801DF91CA
:100BA000CF911F910F91FF90EF90DF90CF90BF906A
:100BB000AF909F908F9008952FB7F8946091700434
:100BC0007091710480917204909173042FBF089505
:100BD0001F93CF93DF93EC01162F688385E090E09D
:100BE00098878F8360E0812F0E94CF0461E0812F7E
:100BF0000E94A1040E94DC056B837C838D839E830D
:100C000088810E94780421E0892B09F420E02A835E
:100C10002983DF91CF911F9108950895CF93DF939A
:100C2000FC012281222359F1EC0161E083810E94C1
:100C3000CF0461E08C810E94CF048A81843011F05E
:100C40008830B1F461E08D810E94CF0461E08E8133
:100C50000E94CF048EA58F3F91F061E00E94CF04E7
:100C60006DA581E068278EA5DF91CF910C94A1043A
:100C7000833011F0863071F761E08D81E9CFDF912B
:100C8000CF910895CF93DF93FC0122812223A9F015
:100C9000EC010190F081E02D0480F581E02D60E011
:100CA00009958EA58F3F49F061E00E94CF046DA5A4
:100CB0008EA5DF91CF910C94A104DF91CF9108957F
:100CC000DC01ED91FC912481358147705527662721
:100CD0007727415051096109710947305105610574
:100CE000710560F4FA01E958F94F0C94DE2F810682
:100CF00083068506870689068B068D0661E0F90165
:100D0000099465E0FCCF64E0FACF66E0F8CF62E0DA
:100D1000F6CF6AE0F4CF68E0F2CF69E0F0CFCF938E
:100D2000DF93EC01CB01BA0126E030E040E050E077
:100D30000E940E2E623071058105910589F16CF4D7
:100D40006115710581059105D1F06130710581054D
:100D50009105F9F0DF91CF91089564307105810517
:100D6000910561F124F1653071058105910591F7D7
:100D7000E881F9810480F581E02D66E006C0E88114
:100D8000F9810480F581E02D64E0CE01DF91CF91FF
:100D90000994E881F9810480F581E02D65E0F5CFC3
:100DA000E881F9810480F581E02D61E0EECFE881F2
:100DB000F9810480F581E02D63E0E7CFE881F981D6
:100DC0000480F581E02D62E0E0CFDC01ED91FC9143
:100DD0000480F581E02D4370552766277727423040
:100DE00051056105710571F04330510561057105CB
:100DF00059F0413051056105710511F065E0099424
:100E000066E0FDCF6AE0FBCF69E0F9CFCF93DF93D7
:100E1000EC01CB01BA0123E030E040E050E00E9459
:100E20000E2E613071058105910599F062307105D2
:100E300081059105A9F0672B682B692BC1F4E88126
:100E4000F9810480F581E02D64E0CE01DF91CF913E
:100E50000994E881F9810480F581E02D61E0F5CF06
:100E6000E881F9810480F581E02D62E0EECFDF9129
:100E7000CF910895DC01ED91FC910480F581E02D86
:100E80004370552766277727423051056105710564
:100E900071F0433051056105710559F0413051053C
:100EA0006105710511F062E0099463E0FDCF61E036
:100EB000FBCF60E0F9CF0F931F93CF93DF93EC014B
:100EC000E881F9810480F581E02D8C010D5B1F4FD5
:100ED000D8018C9160E0811162E0CE010995E88132
:100EE000F9810480F581E02DD8018C9161E08111B8
:100EF00063E0CE0109958BA59CA58230910538F061
:100F0000880F991F880F991F05970197F1F7E881BE
:100F1000F9810480F581E02DD8018C9160E0811188
:100F200062E0CE01DF91CF911F910F910994CF9391
:100F3000DF93EC0120E030E0A9016B897C898D8989
:100F40009E890E94BD2F18162CF4EFA5F8A9DF91F9
:100F5000CF910994E9A9FAA9FACFCF92DF92EF9243
:100F6000FF920F931F93CF93DF93DC011296CC91E6
:100F7000C43039F0C83059F1C33019F0C63049F1E6
:100F8000C2E08C010D5F1F4FF12CE12CC62ED12C3D
:100F9000D1E0F8016481C6010E2C02C095958795B9
:100FA0000A94E2F780FD6D270F5F1F4F80810E943A
:100FB000A104BFEFEB1AFB0AEC1658F3DF91CF91B7
:100FC0001F910F91FF90EF90DF90CF900895C4E0B4
:100FD000D8CFC3E0D6CFDC011296EC911297E9305E
:100FE00008F038C0F0E0E950F84F0C94DE2F00080C
:100FF00006080C08120818082A081E082A082408DF
:10100000ED91FC910084F185E02D0994ED91FC9126
:101010000284F385E02DF9CFED91FC910484F585F0
:10102000E02DF3CFED91FC910684F785E02DEDCF17
:10103000ED91FC910088F189E02DE7CFED91FC91D5
:101040000288F389E02DE1CFED91FC910488F589C8
:10105000E02DDBCF08954F925F926F927F928F9237
:101060009F92AF92BF92CF92DF92EF92FF920F9337
:101070001F93CF93DF93EC018F849888A988BA8857
:101080008B859C85AD85BE85881A990AAA0ABB0AFC
:101090006B897C898D899E899B01AC010E94282DDA
:1010A0006B017C016B8D7C8D8D8D9E8D9B01AC01C8
:1010B0000E94A92E9B01AC01C701B6010E94152F09
:1010C0000E94872F81149104A104B10409F0B0C0DB
:1010D00062307105810591050CF0CDC01BA21CA2E8
:1010E0001DA21EA21B8A1C8A1D8A1E8A1BAA1CAA5C
:1010F0001DAA1EAADF91CF911F910F91FF90EF9033
:10110000DF90CF90BF90AF909F908F907F906F9027
:101110005F904F9008951016110612061306B4F44E
:10112000681579058A059B051CF420812111A3C04F
:101130009B01AC0188279927DC01821B930BA40B30
:10114000B50B8BAB9CABADABBEAB95C00115110520
:101150002105310509F48FC0681579058A059B05BD
:101160000CF089C08081882309F485C030952095D2
:10117000109501951F4F2F4F3F4F0BAB1CAB2DAB65
:101180003EAB79C0011511052105310509F473C085
:10119000CC24DD247601C818D908EA08FB086C15B0
:1011A0007D058E059F050CF066C08081811163C0AE
:1011B000DDCF8BAC9CACADACBEACA5019401C50140
:1011C000B4010E94A92E2B013C01C701B6010E9467
:1011D000C92C20E030E040E850E40E94282D20E0B7
:1011E00030E040E85FE30E94A92E9B01AC01C301FF
:1011F000B2010E94152F9B01AC01C501B4010E94F0
:10120000A82E2B013C01FE01FF9680809180A280D8
:10121000B3809401A5010E94BD2F181614F4420159
:101220005301C401D5018BAF9CAFADAFBEAF41C080
:101230000BA91CA92DA93EA9FE01ED5BFF4F1814B7
:1012400019041A041B040CF466CF101611061206BA
:1012500013060CF097CF00271127980108191909D8
:101260002A093B0960177107820793070CF060CFCA
:10127000208121115DCFCBA8DCA8EDA8FEA88E01AE
:101280000D5B1F4FC114D104E104F10409F091CFAB
:101290008FA998ADA9ADBAAD8BAF9CAFADAFBEAFC6
:1012A00081E0181419041A041B040CF080E0F80102
:1012B0008083FFEFCF1ADF0AEF0AFF0ACBAADCAA6E
:1012C000EDAAFEAACBACDCACEDACFEACC701B6011E
:1012D0000E948E2F6BA37CA38DA39EA3A7019601D2
:1012E00060E074E284E799E40E94152F6B8B7C8B9D
:1012F0008D8B9E8BF80120812111FCCE90586B8B39
:101300007C8B8D8B9E8BF6CEFC01DC01A85BBF4FE6
:101310008C918823D1F08181811117C081E0818374
:1013200081899289A389B48980369947AE4FBF4F8E
:1013300061F080E699E7AEEFBFEF818B928BA38BD4
:10134000B48BCF0102960C942B080895CF93DF93B2
:1013500081112AC020911D0430E0A9E1B4E090E0A1
:1013600080E08217930704F5ED91FD91EF01CA5BD0
:10137000DF4F4A8164131BC081818823A9F0158641
:1013800016861786108A118A128A138A148A15AA59
:1013900016AA17AA10AE15A216A217A210A6158A91
:1013A000168A178A108E1182DF91CF9108950196C7
:1013B000D8CFCF93DF93EC01862F6883198261E049
:1013C0000E94CF0469818881DF91CF910C94A104A0
:1013D000DC0113968C91139781110CC01896ED9136
:1013E000FC911997309731F04D915C9111971296BD
:1013F0006C9109941A96ED91FC911B97309739F0F6
:101400004D915C91119712966C9181E0F2CF089505
:101410000F931F93CF93DF93C3E9D6E010E000E072
:1014200080918C048017110639F0CE010E94E809E2
:101430000F5F1F4F2C96F4CFDF91CF911F910F912B
:101440000895CF92DF92EF92FF92CF93DF93EC015A
:101450000E94DC056B017C018C819D81AE81BF8186
:10146000A7019601281B390B4A0B5B0BDA01C90156
:101470000B97A105B105C0F08A810E947804CC8247
:10148000DD82EE82FF829B81981771F091E08111DD
:1014900001C090E09B83CE01DF91CF91FF90EF9050
:1014A000DF90CF900C94E809DF91CF91FF90EF90FF
:1014B000DF90CF900895CF93DF93EC016A83598337
:1014C000488381E08B830E94DC056C837D838E835F
:1014D0009F8360E08A810E94CF0461E08A81DF916E
:1014E000CF910C94A1042091F403260F3327331FCE
:1014F00021323105ECF420914504FC0190E080E0BC
:10150000243069F082E00895A091F4032191AC01A8
:101510004E525C4FA40FB52FB11D2C930196861728
:1015200098F38091F403680F6093F40380E00895CA
:1015300081E008951092450481E080934404109264
:101540001F0461E082E00E94A10461E083E00E9448
:10155000A104E9EBF0E080818E7F808380818D7F24
:10156000808388E48093B80085E48093BC0008956C
:10157000CF93DF9391E09093D1038823B9F0C0918A
:10158000B800D091BA008091BC008A7B8093BC00E7
:1015900060E082E00E94A10460E083E00E94A10478
:1015A0000E949A0AD093BA00C093B800DF91CF91FD
:1015B0000895089508950895E091D0038091CF0390
:1015C000E81730F4F0E0E155FC4F808190E0089599
:1015D0008FEF9FEF08959091D0038091CF032FEF6D
:1015E0003FEF981748F4E92FF0E0E155FC4F2081D8
:1015F00030E09F5F9093D003C90108958091CF039D
:101600009091D003891B990B0895CF92DF92EF92AE
:10161000FF920F931F93CF93DF937C01CB018A013D
:1016200020914B04222389F0EB016B01C40ED51EDF
:10163000CC15DD0569F06991D701ED91FC91019020
:10164000F081E02DC7010995F3CF642F0E94730A42
:10165000C801DF91CF911F910F91FF90EF90DF9024
:10166000CF900895CF93DF931F92CDB7DEB76983F4
:1016700020914B042223F9F020916E04203258F07F
:1016800021E030E0FC013383228390E080E00F9082
:10169000DF91CF91089580914C04E82FF0E0E35B57
:1016A000FB4F998190838F5F80934C0480936E04ED
:1016B00081E090E0ECCF61E0CE0101960E94730AD8
:1016C000F7CFCF92DF92EF92FF920F931F93CF93BA
:1016D000DF93FC01C48121E020934B04C0936D048F
:1016E00010924C0410926E048385682B8CE994E070
:1016F0000E94320BD0916E04D13208F092C00E9449
:1017000000056B017C0180914504811165C082E078
:101710008093450481E0809344048FEF80934304D9
:1017200010924204D0934104ADE4B4E0E1E2F4E06D
:1017300080E0D81385C01092200480912004CC0F43
:10174000C82BC093200480911F04813009F07CC015
:1017500010921F040E9400056B017C0180912004FF
:101760008093BB008091470490914804A091490464
:10177000B0914A04892B8A2B8B2B99F00E9400058B
:1017800000914704109148042091490430914A0483
:101790006C197D098E099F09061717072807390755
:1017A000E0F18091BC0083FDD9CF85EC8093BC0033
:1017B0000E9400056B017C0180914504823009F490
:1017C00045C0809143048F3F61F180914304803292
:1017D00041F18091430425C08091470490914804D1
:1017E000A0914904B0914A04892B8A2B8B2B09F4D0
:1017F0008ACF0E940005009147041091480420916F
:10180000490430914A046C197D098E099F09061715
:1018100017072807390708F076CF809146040E9401
:10182000B80A10924C0410926E0410924B04DF918F
:10183000CF911F910F91FF90EF90DF90CF9008957F
:101840009D9191938F5F75CF85EEB0CF80914704C6
:1018500090914804A0914904B0914A04892B8A2BA5
:101860008B2B09F4A9CF0E94000500914704109129
:1018700048042091490430914A046C197D098E096D
:101880009F09061717072807390708F095CFC5CF16
:1018900090E080E008958F929F92AF92BF92CF9296
:1018A000DF92EF92FF921F93CF93DF93EC01162FFD
:1018B0000E94DC05C98CDA8CEB8CFC8C4B015C0142
:1018C0008C189D08AE08BF08CD8CDE8C0D2C000C4A
:1018D000EE08FF088C149D04AE04BF04C4F0288DEC
:1018E00034E0239FF0011124EC0FFD1F10821182C0
:1018F000128213822F5F288F648775878687978768
:10190000698F7A8F8B8F9C8F233008F0188E11236C
:10191000B9F0FE019E01245F3F4FC190D190E1904C
:10192000F190DF0114974FEFC41AD40AE40AF40AC5
:10193000CD92DD92ED92FC9213972E173F0769F737
:10194000E88D54E0E59FF0011124EC0FFD1FC484E5
:10195000D584E684F7849B01AC012C193D094E091E
:101960005F0969017A0160817181828193810E949E
:10197000C92C20E030E04AE754E40E94282D4B01B6
:101980005C01C701B601161617061806190624F0E1
:1019900061E070E080E090E00E94C92C9B01AC0106
:1019A000C501B4010E94152F6F8F78A389A39AA354
:1019B000DF91CF911F91FF90EF90DF90CF90BF907C
:1019C000AF909F908F9008958F929F92AF92BF9209
:1019D000CF92DF92EF92FF920F931F93CF93DF93FB
:1019E000EC0188810E947804BB24B394892B09F40C
:1019F000B12C0E94DC052A812983CB80DC80ED801C
:101A0000FE800F8118852B1519F19B01AC012C1953
:101A10003D094E095F0969017A01012E000C220B74
:101A2000330BC016D106E206F3060CF0BA826B83C4
:101A30007C838D839E83DF91CF911F910F91FF90C7
:101A4000EF90DF90CF90BF90AF909F908F900895D0
:101A5000012E000C220B330B4B015C018C189D08EE
:101A6000AE08BF0875016401C016D106E206F30690
:101A700014F3601B710B820B930B61507109810988
:101A80009109D5CFEAE9F3E09191981303C0DF0102
:101A900011971C9293E0EF3AF907B1F708950E946D
:101AA000DB01882359F081E080934108809342084C
:101AB00080914308909144080C94392C109242086C
:101AC00090E080E00895CF930E944F0DC82F0E94B0
:101AD0004F0D61E0181619060CF060E08C2F0E9483
:101AE000A1040E94DC0560938004709381048093BC
:101AF000820490938304CF9108958F929F92AF9226
:101B0000BF92CF92DF92EF92FF920F931F93CF93EA
:101B1000DF930E944F0D8C010E944F0DBC018091FC
:101B200085048017110609F00CF4BFC08BE1809F7B
:101B3000E001819FD00D1124C351DB4FCD80DE80A9
:101B40000D2C000CEE08FF0889809A80092C000CEF
:101B5000AA08BB082F813885032E000C440B550BB7
:101B60002C193D094E095F09072E000C880B990BB3
:101B7000681979098A099B090E94C22F2B813C812F
:101B8000032E000C440B550B281939094A095B092F
:101B90000E940E2EBA01A9014C0D5D1D6E1D7F1D08
:101BA000052E000C660B770B8D859E85AF85B88959
:101BB00084179507A607B70709F46DC04D875E87A0
:101BC0006F87788B8985811166C08A858C3008F093
:101BD00058C0F88061E08F2D0E94CF048A85282F9D
:101BE00030E0F901EE0FFF1FE20FF31FE655FB4F48
:101BF0002F2D2F739081907C922B90831B861C86B7
:101C00002CE0622F0E94D22F829FB001112430E07D
:101C100020E0AB01420F531FFA01EE0FFF1FE40F4C
:101C2000F51FE655FB4F908196FD16C02F5F3F4F85
:101C30002C30310571F781110FC01092800082E0C5
:101C4000809381001092850010928400B19A809157
:101C50006F00826080936F008BE1809FF001819F15
:101C6000F00D1124E351FB4FE2858E2F90E0FC0133
:101C7000EE0FFF1FE80FF91FE655FB4F80818064D0
:101C800080838BE1809FF001819FF00D1124E3514F
:101C9000FB4F81E081870E94DC0560938004709394
:101CA00081048093820490938304DF91CF911F91EC
:101CB0000F91FF90EF90DF90CF90BF90AF909F90EB
:101CC0008F9008950E944F0D20918A0428171906BD
:101CD000A1F09CF0880F991FFC01EA57FB4F80810F
:101CE00091810E9484090E94DC05609380047093B6
:101CF0008104809382049093830408950E944F0D81
:101D000020918A042817190639F134F1880F991F98
:101D1000FC01EA57FB4F0190F081E02D15861686F5
:101D20001786108A118A128A138A148A15AA16AA8B
:101D300017AA10AE15A216A217A210A6158A168A07
:101D4000178A108E0E94DC056093800470938104D2
:101D5000809382049093830408950F931F93CF93ED
:101D6000DF93082F162FD42FC8E06D2F661F66272C
:101D7000661F802F0E94A104DD0F61E0812F0E9469
:101D8000A10460E0812F0E94A104C15071F7DF918E
:101D9000CF911F910F9108950F931F93CF93DF93CE
:101DA000EC0160E088810E94A1040B8188E0089F1B
:101DB000800111244C815D816E817F81002E04C0E1
:101DC00076956795579547950A94D2F769818A81E8
:101DD0000E94AD0E08501109083F8FEF180751F708
:101DE00061E08881DF91CF911F910F910C94A10444
:101DF000CF92DF92EF92FF92CF930E944F0D7C0122
:101E00000E944F0DC82F0E944F0D9701332799E074
:101E1000E99EF0011124E153FB4F9085992319F1BC
:101E2000C480D580E680F78041E050E060E070E05B
:101E300004C0440F551F661F771FCA95D2F7882329
:101E400011F14C295D296E297F29448355836683CE
:101E5000778349E0429FC001439F900D1124815335
:101E60009B4F0E94CC0E0E94DC056093800470930F
:101E700081048093820490938304CF91FF90EF902C
:101E8000DF90CF90089540955095609570954C21C6
:101E90005D216E217F21D9CF8F929F92AF92BF9209
:101EA000CF92DF92EF92FF920F931F93CF93DF9326
:101EB00000D0CDB7DEB78C0149832A83660F771F28
:101EC000F801EA5AFF4FE080F180EE0CFF1CF801A8
:101ED000CF01801B910B8E159F0514F41192F8CF42
:101EE0008981F801E60FF71F81838A818083680169
:101EF00084E5C80ED11C60E0F60180810E94A10437
:101F00004801F2E58F0E911C580180E5A80EB11C26
:101F10001E141F0474F4E1E0EE1AF108F801EE0D4E
:101F2000FF1D4081F4016081F50180810E94AD0EAA
:101F3000EFCF61E0F60180810F900F90DF91CF919C
:101F40001F910F91FF90EF90DF90CF90BF90AF90D7
:101F50009F908F900C94A104CF92DF92EF92FF920A
:101F60001F93CF93DF937C016B01EB0183E0CC0FD8
:101F7000DD1F8A95E1F76096CE0DDF1D11E0199205
:101F800020E0412FB601C7010E944C0F1F5F19309E
:101F9000B1F7DF91CF911F91FF90EF90DF90CF903D
:101FA0000895FC01EA5AFF4F2081318162177307BF
:101FB0003CF420E0411101C021E04CE00C944C0FB6
:101FC0000895DF92EF92FF920F931F93CF93DF93C9
:101FD000D82ECFE8D6E0F12CE12C809197028E1517
:101FE0001F04A1F4C3E5D7E010E000E08091960261
:101FF00080171106E9F0888160E0D11001C0698185
:102000000E94A1040F5F1F4F2296F0CF10E08B813A
:10201000811749F0612F70E04D2D888199810E94D0
:10202000D10F1F5FF4CF8FEFE81AF80A2496D5CFAF
:10203000DF91CF911F910F91FF90EF90DF90089566
:10204000DF92EF92FF920F931F93CF93DF930E9443
:102050004F0DEC010E944F0DD82E10E000E0CC0F88
:10206000DD1FCC0FDD1FC157D94F7E0182E0E80E86
:10207000F11CF7018081882379F088819981FC0126
:10208000EA5AFF4F20813181021713072CF42D2DBE
:102090004AE0B8010E944C0F0F5F1F4F0830110536
:1020A00041F70E94DC056093800470938104809363
:1020B000820490938304DF91CF911F910F91FF9041
:1020C000EF90DF9008950F931F93CF93DF930E94BB
:1020D0004F0DEC010E944F0D8C010E944F0D282FD7
:1020E000FE01EE0FFF1FEE0FFF1FE157F94F828138
:1020F000882381F017FD0EC080819181FC01EA5A8E
:10210000FF4F408151810417150724F44AE0B801BC
:102110000E944C0F0E94DC05609380047093810440
:102120008093820490938304DF91CF911F910F914C
:1021300008950F931F93CF938C01C62F0E94610BBC
:102140006C2F6460C8010E94610B6C2F6B7FC8010B
:102150000E94610B83EC90E00197F1F7CF911F9102
:102160000F9108950F931F93CF93DF938C01D62F78
:10217000C42F607F642B0E94991080E1D89FB0012A
:1021800011246C2BC801DF91CF911F910F910C94FA
:102190009910CF93DF93CDB7DEB728970FB6F89499
:1021A000DEBF0FBECDBF28E0E5E6F1E0DE0111960F
:1021B00001900D922A95E1F7FC012185261710F474
:1021C0006FEF620F70E0660F771F21E030E02C0F99
:1021D0003D1F620F731FFB016081606840E028961D
:1021E0000FB6F894DEBF0FBECDBFDF91CF910C9438
:1021F000B21041E00E94B21081E090E00895CF92C9
:10220000DF92EF92FF920F931F93CF93DF936C01B6
:102210007B018A01D0E0C0E0B6016C0F7D1F41E078
:1022200050E0C7018C0F9D1F0E94E62D2196C0171C
:10223000D10790F3CE01DF91CF911F910F91FF90C5
:10224000EF90DF90CF9008950F931F93CF93DF937C
:10225000FC01048115810115110539F4FB0110827F
:10226000DF91CF911F910F9108954150510940176F
:10227000510708F48A01EB01FC0160817181A8011A
:10228000CE010E94D631C00FD11F1882E9CFCF9264
:10229000DF92EF92FF920F931F93CF93DF936C0126
:1022A0007B018A01D0E0C0E0B6016C0F7D1F41E0E8
:1022B00050E0C7018C0F9D1F0E94F62D2196C0177C
:1022C000D10790F3CE01DF91CF911F910F91FF9035
:1022D000EF90DF90CF900895FC018081918100976D
:1022E00011F00C9480300895FB0101900020E9F773
:1022F0003197AF01461B570BDC01ED91FC91028039
:10230000F381E02D09948F929F92AF92BF92EF924A
:10231000FF920F931F93CF93DF93CDB7DEB7A197B3
:102320000FB6F894DEBF0FBECDBF7C01FA01CB0122
:1023300019A2223008F42AE08E010F5D1F4F822E71
:10234000912CB12CA12CBF01A50194010E94772EE4
:10235000F901CA016A300CF5605DD8016E938D01F8
:10236000232B242B252B79F790E080E0109721F088
:10237000BD01C7010E947411A1960FB6F894DEBF8B
:102380000FBECDBFDF91CF911F910F91FF90EF90C6
:10239000BF90AF909F908F900895695CDECFCF92F1
:1023A000DF92EF92FF920F931F93CF93DF9377FF0C
:1023B0001DC06A017B01EC016DE20E9453038C0198
:1023C00044275527BA014C195D096E097F092AE097
:1023D000CE010E948311800F911FDF91CF911F9139
:1023E0000F91FF90EF90DF90CF9008952AE0DF915A
:1023F000CF911F910F91FF90EF90DF90CF900C94B1
:1024000083112091B70721110FC021E02093B70756
:102410002093BE07AC01990F660B770B809148089B
:10242000909149080C94CF110895CF93DF93209198
:10243000B7072223A1F0EC0160914B088091480876
:10244000909149080E945303209749F0BE01809162
:10245000480890914908DF91CF910C947411DF9155
:10246000CF9108958091B7078823A1F060914A0821
:1024700080914808909149080E9453038091BF07BA
:10248000882341F06FE672E08091480890914908F6
:102490000E9474111092BE071092B70780E0089551
:1024A000CF93DF932091B70721111AC0EB010E944F
:1024B00001128091B707882379F060914B088091D1
:1024C0004808909149080E945303BE018091480832
:1024D000909149080E945A03DF91CF910C943212D7
:1024E00080E0DF91CF9108950E94DC056093800425
:1024F00070938104809382049093830461EE71E071
:1025000085E090E00C94501240E051E06AE972E0FE
:102510008BE390E00E94471167E771E08FE090E065
:102520000C945012FF920F931F93CF93DF9381E08F
:102530000E94420D10928C046EEF70E085E090E0F6
:102540000E94501288E00E94420D10928B046EE0AF
:1025500071E085E090E00E94501283E00E94420DFD
:10256000109296026FE171E085E090E00E945012B7
:1025700084E00E94420D10E000E0C0919702D0E09C
:10258000C017D10789F0CC0FDD1FCC0FDD1FC1575D
:10259000D94F8A81882329F0888199810E948030CF
:1025A0001A820F5F1F4FE9CF109297026FE271E01E
:1025B00085E090E00E9450128091850450E040E058
:1025C000682F70E02BE1829FC001112483519B4F43
:1025D000DC0119960A9664177507A9F02C9122233D
:1025E00079F0EC01E8812E2F30E0F901EE0FFF1FAA
:1025F000E20FF31FE655FB4F20812F7B20831C92B7
:102600004F5F5F4FE8CF86E00E94420D1092850435
:1026100060E471E085E090E00E945012D0E0C0E0FC
:1026200080918A0490E08C179D0759F0880F991FBC
:10263000FC01EA57FB4F808191810E9480302196F6
:10264000EFCF89E00E94420D10928A046FE471E09E
:1026500085E090E00E94501210E000E086E0F82E45
:102660008091980290E08017910791F0F89EE00128
:10267000F99ED00D1124CF51DB4F8A81882329F098
:10268000888199810E9480301A820F5F1F4FE8CFA6
:102690001092980260E671E085E090E00E9450128E
:1026A000109295021092940210928D04DF91CF91B6
:1026B0001F910F91FF9008950E94921264E771E0BC
:1026C00085E090E00C9450125F926F927F928F920F
:1026D0009F92AF92BF92CF92DF92EF92FF920F93B1
:1026E0001F93CF93DF93CDB7DEB7CB55D1090FB68C
:1026F000F894DEBF0FBECDBF70908B0494E07916C6
:1027000009F400C1E82FF0E0DF01A656BC4F5D01DF
:102710009C919111F7C0E62FF0E0DF01A656BC4F67
:102720006D019C919111EEC0642E562E682FFE0112
:10273000349687E4DF011D928A95E9F780E092E004
:102740006C969FAF8EAF6C971B828BE5879D700157
:10275000112487010D5D1A4F3397D80101900D9216
:102760008A95E1F74801BCE48B0E911CF4011082BC
:10277000118212821382329731832083D8016C93A5
:1027800011965C923E964083C7018A5D9A4F0E94E3
:10279000E805652DC701815D9A4F0E94E805F801A3
:1027A000158A178A168A118E108E128E138E148E29
:1027B000158E88EE93E0A0E0B0E0868F978FA0A3FF
:1027C000B1A3D701AB5BBA4F85E0869DF001112420
:1027D000E359FE4F01900D928A95E1F70E94DC05C6
:1027E000F801E05CFF4F6083718382839383D8019B
:1027F00097961D921D921D921C929A97F80163ABB9
:1028000074AB85AB96AB9B961D921D921D921C924C
:102810009E9767AB70AF81AF92AF9F961D921D924E
:102820001D921C92D29763AF74AF85AF96AF17AE6F
:10283000EC5BFF4F86EA90E09183808380E090E834
:10284000AFEFBFEFF801828F938FA48FB58F8FEF1B
:102850009FE7A0E0B0E0868F978FA0A3B1A3D4013B
:102860004D915C9186A1FA0102C0F595E7958A9594
:10287000E2F7CF01D80156962D913C9157972370DE
:102880003327822B932B57969C938E93569759966A
:102890005C934E93589781E012968C93F801E05B1D
:1028A000FF4F85EF94E191838083329691838083FB
:1028B00032969183808332969183808388E0F501FC
:1028C0008083D6018C93739470928B0468EC70E0D3
:1028D00085E090E0C55ADF4F0FB6F894DEBF0FBE1B
:1028E000CDBFDF91CF911F910F91FF90EF90DF90BF
:1028F000CF90BF90AF909F908F907F906F905F90A0
:102900000C945012C55ADF4F0FB6F894DEBF0FBEBD
:10291000CDBFDF91CF911F910F91FF90EF90DF908E
:10292000CF90BF90AF909F908F907F906F905F906F
:1029300008950E94DC056093800470938104809365
:102940008204909383048AE090E00E94011280E068
:1029500091E00E9415128FE191E00E94151284E12E
:1029600091E00E94151282E991E00E9415120C94E8
:1029700032120E94DC05609380047093810480937E
:102980008204909383048AE090E00E9401128AE915
:1029900092E00E9415120C9432120F931F93CF9362
:1029A000C82F8A0187E090E00E940112C8010E94AE
:1029B00015128091B707882399F060914B08809198
:1029C0004808909149080E9453034C2F50E070E052
:1029D00060E02AE080914808909149080E948311A4
:1029E000CF911F910F910C9432120F931F93CF939D
:1029F000C82F8A0186E090E00E940112C8010E945F
:102A000015128091B707882399F060914B08809147
:102A10004808909149080E9453034C2F50E070E001
:102A200060E02AE080914808909149080E94831153
:102A3000CF911F910F910C943212EF92FF920F934E
:102A40001F93CF93DF93EC01198218821B821A82A5
:102A50001D821C8261157105A9F17B01FB010190AA
:102A60000020E9F731978F01061B170BB8016F5F44
:102A70007F4F90E080E00E9409310097B9F0998380
:102A800088831B830A832C813D81232B11F4FC0155
:102A900010821D830C83B70188819981DF91CF91CA
:102AA0001F910F91FF90EF900C94CF318881998105
:102AB000009711F00E948030198218821D821C82BA
:102AC0001B821A82DF91CF911F910F91FF90EF909F
:102AD00008950F931F93CF93DF9300D000D000D0C1
:102AE000CDB7DEB769EE70E085E090E00E9450124D
:102AF0000E94DC05609380047093810480938204BB
:102B0000909383040E942C02BC01CE0101960E9486
:102B10001D1560919402709195020D811E81060F22
:102B2000171F40E051E0401B510B423051050CF49F
:102B30003FC066567D4FCE0101960E94241110932E
:102B40009502009394028091B70781111CC085E023
:102B500090E00E9401128091B707882391F0609164
:102B60004B0880914808909149080E945303A8019E
:102B7000110F660B770B80914808909149080E94CD
:102B8000CF110E94321266ED70E085E090E00E9465
:102B90005012CE0101960E946C1126960FB6F89441
:102BA000DEBF0FBECDBFDF91CF911F910F91089572
:102BB0008091B7078111E7CF85E090E00E94011274
:102BC0008091B7078823E9F260914B08809148080B
:102BD000909149080E9453034FEF5FEFBA01CBCFAA
:102BE000CF93DF93CDB7DEB728970FB6F894DEBF4B
:102BF0000FBECDBF0E942C02BC01CE0101960E94E7
:102C00001D1540E350E06FE171E0CE0101960E9496
:102C1000241183E290E098878F8341E050E0BE0169
:102C2000695F7F4F90E080E00E9447114FE250E0E3
:102C30006FE171E081E090E00E94471185E090E053
:102C40000E9401128FE191E00E9415120E9432123F
:102C5000CE0101960E946C1128960FB6F894DEBF43
:102C60000FBECDBFDF91CF9108956F927F928F926B
:102C70009F92AF92BF92CF92DF92EF92FF920F930B
:102C80001F93CF93DF9300D000D000D0CDB7DEB735
:102C90000E944F0D8C010E944F0D7C010E942C025E
:102CA0006C010E944F0D4C010E944F0D5C01000F02
:102CB000111F000F111F0157194FF801828188233E
:102CC00009F458C0B601CE0101960E941D15FF24DB
:102CD000370183E0660C771C8A95E1F7D12C48E038
:102CE000BB249924CC24CA94C40E6C2D70E0C50179
:102CF0000C2C02C0959587950A94E2F780FF33C0AB
:102D0000F80180819181ED2DF0E02D813E81E21767
:102D1000F30708F04EC029813A812115310509F4E5
:102D200048C0E20FF31FE081DC01AA5ABF4F2D918A
:102D30003C91E216F306B4F4F0E0E656FE4F208133
:102D4000F4010C2C02C0F595E7950A94E2F7E0FD3A
:102D50002068680F791FFB01E60DF71D208BB70176
:102D60000E944C0FD3944C2DC110BCCFCE010196C4
:102D70000E946C110E94DC056093800470938104B2
:102D8000809382049093830426960FB6F894DEBF56
:102D90000FBECDBFDF91CF911F910F91FF90EF90AC
:102DA000DF90CF90BF90AF909F908F907F906F906B
:102DB0000895E0E0B9CF85ED8093BC008091470491
:102DC00090914804A0914904B0914A040796A11D2E
:102DD000B11D23E0B695A795979587952A95D1F7CC
:102DE0002091BC0024FD03C0109245040895409139
:102DF0004704509148046091490470914A04452B5E
:102E0000462B472B69F30097A105B10541F025E357
:102E10002A95F1F700000197A109B109E1CF80914E
:102E200046040C94B80A2F923F924F925F926F9291
:102E30007F928F929F92AF92BF92CF92DF92EF924A
:102E4000FF920F931F93CF93DF93CDB7DEB72A97EF
:102E50000FB6F894DEBF0FBECDBFFC01FF27DF0128
:102E6000A656BC4FBA83A983EC91E11128C0FB019F
:102E7000FF27DF01A656BC4FBC83AB83EC91E11169
:102E80001EC0FA01FF27DF01A656BC4FBE83AD83EB
:102E9000EC91E11114C0F901FF27DF01A656BC4FE8
:102EA000B887AF83EC91E1110AC0101611062CF51A
:102EB000F801FF27E656FC4FE081EE23F1F063EFC7
:102EC00071E085E090E02A960FB6F894DEBF0FBE61
:102ED000CDBFDF91CF911F910F91FF90EF90DF90C9
:102EE000CF90BF90AF909F908F907F906F905F90AA
:102EF0004F903F902F900C94501239016A014B0172
:102F00005C0186E590E00E94E42F9A8789877C0126
:102F1000B2E0EB0EF11C8EE192E0E985FA85938335
:102F2000828384E08483DF01158616861786108AE3
:102F3000118A128A138A148A158A168A178A108EA1
:102F4000212C312C50E8452E5FE3552E218E328EF8
:102F5000438E548E158E168E178E10A221A232A289
:102F600043A254A215A216A217A210A681E090E0D7
:102F700096A785A78FEF80AB11A612A613A614A65D
:102F800065828682A782C08615AA16AA17AA10AEE5
:102F900011AE12AE13AE14AEFD96108211821282E3
:102FA00013826D01F1E4CF0ED11CD6012D923D921A
:102FB0004D925C921397E985FA85EB5BFF4F108287
:102FC000E985FA851186128613861486C7010E9448
:102FD0000E06A985BA855D968D909D90AD90BC90AA
:102FE0009097A2019101C501B4010E94C22C8823CF
:102FF00039F1E985FA8565A976A987A990AD0E947E
:10300000C92CA50194010E94282D0E94872FA98513
:10301000BA85D5966D937D938D939C93D89786E8CA
:1030200096E6A9E6B9E4E985FA8581AF92AFA3AF48
:10303000B4AF258E368E478E50A2C7010E942B0852
:1030400042E752E0602FA984BA84B6E4AB0EB11C0B
:10305000C5010E945B0AE985FA85118280911D04F1
:10306000E82FF0E0EE0FFF1FE75EFB4F29853A8562
:10307000318320838F5F80931D0486EA99E0D50118
:1030800019969C938E9318971B969C938E931A97E0
:1030900030908A04E32DF0E0EE0FFF1FEA57FB4F5C
:1030A0003183208320E030E048EC53E4E985FA8561
:1030B000618D728D838D948D0E94C22C882309F4BA
:1030C00045C080E090E0A8ECB3E4E985FA85818F03
:1030D000928FA38FB48F80E090E4ACE1B5E4F60169
:1030E00080839183A283B383E985FA8585A996A914
:1030F000A7A9B0AD181619061A061B063CF5658976
:1031000076898789908D9B01AC010E94282D2B0127
:103110003C01A985BA855D966D917D918D919C91BB
:1031200090979B01AC010E94A92E9B01AC01C301A9
:10313000B2010E94152F0E94872FE985FA8565ABA1
:1031400076AB87AB90AFC7010E942B08A985BA85E3
:103150005D964D905D906D907C90909720E030E072
:1031600048E454E4C301B2010E94C22C8823B9F19F
:10317000E985FA8565A976A987A990AD0E94C92C31
:103180004B015C0120E030E048E454E4C301B201AB
:103190000E94152F9B01AC01C501B4010E94282D8E
:1031A0000E94872FA985BA85D5966D937D938D93BF
:1031B0009C93D89781E098E0A4E0B7E4E985FA858C
:1031C00081AF92AFA3AFB4AF80E090E0A8E4B4E4E5
:1031D000858F968FA78FB0A3C7010E942B0889E027
:1031E000A981BA818C93EB81FC818083AD81BE8102
:1031F0008C93EF81F8858083101611064CF411270B
:10320000F801E656FC4F808389859A850E948409DF
:10321000BB24B394B30CB0928A0465EE71E051CE36
:103220008F929F92AF92BF92CF92DF92FF920F93B5
:103230001F93CF93DF93CDB7DEB765970FB6F894A2
:10324000DEBF0FBECDBF0E944F0D5C010E942C025D
:103250006C0186E08A9D80018B9D100D11240F5119
:103260001B4FD80112968C91882399F11A821982EA
:10327000FE01339683E1DF011D928A95E9F7F12C77
:103280004801B5E08B0E911C5801E4E0AE0EB11C74
:10329000D4018C918F15E9F06F2DF8018081918117
:1032A0000E94C910D5018C91482F50E0B6018F9D26
:1032B000600D711D1124CE0101960E94C631BE0120
:1032C0006F5F7F4FF801808191810E947411F394A8
:1032D000DFCF8091B707811109C085E090E00E949F
:1032E0000112C6010E9415120E9432120E94DC05D2
:1032F000609380047093810480938204909383048C
:1033000065960FB6F894DEBF0FBECDBFDF91CF91AB
:103310001F910F91FF90DF90CF90BF90AF909F9043
:103320008F9008950F931F93CF93DF930E944F0DBB
:10333000EC010E94DB01882309F44AC081E08093FC
:1033400041088093420880914308909144080E946C
:10335000572C20918A042C171D06A9F1A4F1CC0F3B
:10336000DD1FCA57DB4FE881F9811182DF01AE5AB8
:10337000BF4F0D911D912D913C91139760177107CF
:1033800082079307B1F06D937D938D939C93139770
:10339000018912892389348960177107820793078D
:1033A00041F0618B728B838B948BCF0102960E94CC
:1033B0002B080E94DC056093800470938104809345
:1033C000820490938304DF91CF911F910F91089510
:1033D0001092420860E070E0CB01BBCF2F923F9289
:1033E0004F925F926F927F928F929F92AF92BF9215
:1033F000CF92DF92EF92FF920F931F93CF93DF93C1
:10340000CDB7DEB7C951D1400FB6F894DEBF0FBEBD
:10341000CDBF1A821982FE0133962FEFDF011D9274
:103420002A95E9F7C25FDE4F19821882CE50D1404B
:1034300040E051E0BE016F5F7F4F0E942411AE015A
:10344000425F5E4F64E772E0CE0101960E947E2CDF
:10345000FC012081222309F471C02224239426E058
:10346000522E0E94392C01978A30910508F07EC5B2
:10347000FC01EC5BF54EAE01425F5E4F64E772E02B
:1034800090E080E00C94DE2F4E1A401DB81AF11A1D
:103490005B1CF71C931D641DAA1C3C1F0E947E2C04
:1034A0008C01AE01425F5E4F66E772E090E080E023
:1034B0000E947E2C7C01C8010E94392CD0908C0483
:1034C000F0E1DF1679F18C01112706561C4FD80167
:1034D0002C91211127C0A701682FCE018E5F9E4F2E
:1034E0000E945B0A2CE02D9DC00111248D56994F3E
:1034F000FE01EE5FFE4FDC0101900D922A95E1F78F
:103500002DEC34E1FC013387228731872087D801F5
:103510002C92D394D0928C046DE771E085E090E01A
:103520000E945012AE01425F5E4F64E772E090E08D
:1035300080E00E947E2C009709F093CFC75EDE4F9B
:103540000FB6F894DEBF0FBECDBFDF91CF911F91B4
:103550000F91FF90EF90DF90CF90BF90AF909F9032
:103560008F907F906F905F904F903F902F90089535
:103570000E947E2C8C01AE01425F5E4F66E772E0D6
:1035800090E080E00E947E2CC8010E94392CF090CF
:103590009602BAE0FB1631F28C01112706561C4F39
:1035A000F80120812111BECF682FCE018E5F9E4F82
:1035B0000E94D909EF2DF0E0EE0FFF1FED5AF84FF2
:1035C000CE5FDE4F88819981C250D1409183808344
:1035D00083E0D8018C93F394F09296026BE871E04B
:1035E0009DCF0E947E2C8C01AE01425F5E4F64E74E
:1035F00072E090E080E00E947E2C7C01AE01425F90
:103600005E4F64E772E090E080E00E947E2C6C01E7
:10361000AE01425F5E4F64E772E090E080E00E949E
:103620007E2C4C01AE01425F5E4F64E772E090E099
:1036300080E00E947E2C5C01AE01425F5E4F66E737
:1036400072E090E080E00E947E2CC4010E94392C40
:10365000482EC5010E94392C5C01C6010E94392CFC
:103660004C01C7010E94392C6C01C8010E94392C01
:103670007C0130909702B1E03B1609F453CF9927B3
:10368000FC01E656FC4FCE5EDE4FF983E883C25163
:10369000D1408081811146CFC40199279C012656D3
:1036A0003C4FCC5EDE4F39832883C451D140D901D1
:1036B0008C91811137CFC6019927FC01E656FC4F4A
:1036C000CA5EDE4FF983E883C651D1408081811103
:1036D00029CF232D30E0C85EDE4F39832883C851BF
:1036E000D14088E590E00E94E42F8C013C0130E558
:1036F000630E711CD301ED92FC92FC01EE5AFF4F58
:10370000C05FDE4FF983E883C051D140918280824F
:103710003296D182C082C5010197089708F063C034
:103720009A2D8B2DF801EA5AFF4F9083818361E037
:103730008E2D0E94CF0461E0C05FDE4FA881B98169
:10374000C051D1408C910E94CF0461E06801B4E582
:10375000CB0ED11CF60180810E94CF0461E0D6011E
:103760008C910E94A104F301F182E082F80170962D
:1037700011926E167F06E1F7F12CE12C6801F6E557
:10378000CF0ED11CD6018D919C91E816F90674F5E7
:1037900020E04FE0B701C8010E944C0FF601808184
:1037A0009181E816F90634F427E04BE0B701C8012F
:1037B0000E944C0F20E049E0B701C8010E944C0F65
:1037C000D6018D919C91E816F90624F4B701C80141
:1037D0000E94AC0F41E0B701C8010E94D10FBFEFBA
:1037E000EB1AFB0ACFCF98E080E09CCFC85EDE4F9B
:1037F000E881F981C851D140EE0FFF1FEE0FFF1F86
:10380000E157F94FDF010D931D932282A382F12C22
:10381000E12C8F0133965F016D01D5018C918E15DE
:103820001F0469F1F6018081882381F0D8018D9110
:103830009C91FC01EA5AFF4F20813181E216F30688
:103840002CF4242D4AE0B7010E944C0F40E0B70150
:10385000F801808191810E94D10FD8018D919C91B6
:10386000FC01EA5AFF4F20813181E216F3061CF475
:10387000B7010E94AC0FBFEFEB1AFB0ACECF84E07A
:10388000CE5EDE4FE881F981C251D1408083CA5EAD
:10389000DE4FA881B981C651D1408C93CC5EDE4FFA
:1038A000E881F981C451D1408083339430929702EA
:1038B00068E971E033CE0E947E2C8C01AE01425F3C
:1038C0005E4F64E772E090E080E00E947E2C7C0115
:1038D000AE01425F5E4F64E772E090E080E00E94DC
:1038E0007E2C6C01AE01425F5E4F64E772E090E0B7
:1038F00080E00E947E2C5C01AE01425F5E4F64E777
:1039000072E090E080E00E947E2CAE01425F5E4F4C
:1039100066E772E090E080E00E947E2CC5010E9484
:10392000392C5C01C6010E94392C6C01C7010E9430
:10393000392C7C01C8010E94392C20918A0410E0A6
:1039400000E0223009F4EECD9501A601B7010E94F6
:103950001317E8CD0E947E2C4C01AE01425F5E4FF2
:1039600064E772E090E080E00E947E2C7C01AE0172
:10397000425F5E4F64E772E090E080E00E947E2C40
:103980006C01AE01425F5E4F64E772E090E080E060
:103990000E947E2C5C01AE01425F5E4F64E772E0E4
:1039A00090E080E00E947E2C8C01AE01425F5E4F71
:1039B00066E772E090E080E00E947E2CC8010E94E1
:1039C000392C8C01C5010E94392C5C01C6010E9472
:1039D000392C6C01C7010E94392C7C01C4010E9462
:1039E000392C20918A04223009F0AECF9BCD0E9461
:1039F0007E2C8C01AE01425F5E4F66E772E090E084
:103A000080E00E947E2CC8010E94392CD090850451
:103A1000F2E0DF1609F486CD9C013327A901465652
:103A20005C4F7A01DA012C9121117CCDBBE1DB9E48
:103A30008001112403511B4FF8011186158616864B
:103A40001786108A118A128A138A148A12821182A6
:103A500024EB30E03483238316821582308727835A
:103A600080830E94DC05D80155966D937D938D93DC
:103A70009C935897F7015082D394D092850452CDED
:103A80000E947E2C7C01AE01425F5E4F64E772E0D3
:103A900090E080E00E947E2C6C01AE01425F5E4FA0
:103AA00066E772E090E080E00E947E2C8C01C60107
:103AB0000E94392CD82EC7010E94392C980140E071
:103AC0006D2D0E9464132ECD0E947E2C7C01AE01D0
:103AD000425F5E4F64E772E090E080E00E947E2CDF
:103AE0006C01AE01425F5E4F64E772E090E080E0FF
:103AF0000E947E2C5C01AE01425F5E4F66E772E081
:103B000090E080E00E947E2C8C01C5010E94392C3F
:103B1000B82EC6010E94392CD82EC7010E94392C1C
:103B200098014B2DCDCF0E947E2C8C01AE01425FBF
:103B30005E4F64E772E090E080E00E947E2C7C01A2
:103B4000AE01425F5E4F64E772E090E080E00E9469
:103B50007E2C6C01AE01425F5E4F66E772E090E042
:103B600080E00E947E2CC6010E94392CB82EC7012D
:103B70000E94392CA82EC8010E94392C982E8091C1
:103B80009802823009F4CECCE82EF12C5E9CC00164
:103B90005F9C900D11249C012F513B4F6901D9016D
:103BA00013969C9213971496AC9214971596BC9208
:103BB0008CE090E00E94E42F8C01FC0113821282C1
:103BC0002AE831E0318320839482A086B186128670
:103BD000A8E0BA2EB386D60111969C938E931296C6
:103BE0002C921092D0031092CF0310924C0410929A
:103BF0006E040E949A0AE9EDFAE0F093F303E09371
:103C0000F2032AED3AE03093F7032093F603D8014C
:103C100015961C92159719968C911997823010F071
:103C20001596BC92F8019285992329F0813019F4F8
:103C300085818460858362E370E080E090E00E948B
:103C40002505D8011B966C91C8010E94610B68EE96
:103C500073E080E090E00E94250560E3C8010E94C7
:103C600099108BE496E40197F1F760E3C8010E9494
:103C700099108BE496E40197F1F760E3C8010E9484
:103C8000991083E592E00197F1F760E2C8010E9484
:103C90009910F8016581606240E0C8010E94B2108D
:103CA00084E0D80116968C9340E06CE0C8010E9435
:103CB000B21040E061E0C8010E94B2108BE39FE1C6
:103CC0000197F1F782E0F801878340E066E0C801E0
:103CD0000E94B21040E062E0C8010E94B2108BE383
:103CE0009FE10197F1F75E9C80015F9C100D11240C
:103CF0000F511B4FD8018D919C9128E0FC01238727
:103D000060E00E94610BD80112968C911297882373
:103D100009F4AAC015966C911597669561508D911E
:103D20009C910E94C910B12C6801B4E0CB0ED11C4B
:103D3000F801808191814B2D50E0D6016C9170E0AB
:103D40009B012A50310937FF02C02F5F3F4F359545
:103D500027954217530731F068E772E00E9474110B
:103D6000B394E6CF67EB71E00E945A03B12C5E9CDE
:103D700080015F9C100D11240F511B4F6801B4E0AE
:103D8000CB0ED11CF801808191814B2D50E0D601E2
:103D90006C9170E09B012A50310937FF02C02F5F00
:103DA0003F4F359527954217530731F065EB71E08A
:103DB0000E945A03B394E6CF5E9C80015F9C100D75
:103DC00011240F511B4FF801658166950E94C9109F
:103DD000B12C6801F4E0CF0ED11CD8018D919C91DB
:103DE0004B2D50E0F601608170E09B0126503109B7
:103DF00037FF02C02F5F3F4F359527954217530776
:103E000031F063EB71E00E945A03B394E6CF6CEAA1
:103E100071E00E945A03D12C5E9C80015F9C100DC2
:103E200011240F511B4F7801F4E0EF0EF11CD80163
:103E30008D919C914D2D50E0F701608170E09B01C8
:103E40002650310937FF02C02F5F3F4F3595279528
:103E50004217530731F06AEA71E00E945A03D39483
:103E6000E6CF60E00E94C910809198028F5F809336
:103E7000980262EC71E052CB0E947E2C8C01AE0164
:103E8000425F5E4F64E772E090E080E00E947E2C2B
:103E90007C01AE01425F5E4F64E772E090E080E03B
:103EA0000E947E2C6C01AE01425F5E4F64E772E0BF
:103EB00090E080E00E947E2C5C01AE01425F5E4F8C
:103EC00066E772E090E080E00E947E2CC5010E94CF
:103ED000392CB82EC6010E94392CD82EC7010E9459
:103EE000392CF82EC8010E94392CE0909902F2E09A
:103EF000EF16E1F129E0E29E8001112401531B4FEE
:103F0000D80118962C9218978C931196FC921197C1
:103F10001296DC9212971396BC9261E00E94CF0435
:103F200061E0F80181810E94CF0461E0D80112961E
:103F30008C910E94CF04F801148215821682178298
:103F4000C8010E94CC0ED80114961D921D921D929C
:103F50001C921797C8010E94CC0EE394E09299023C
:103F600063ED71E085E090E00E945012AE01425F87
:103F70005E4F66E772E090E080E00E947E2CD2CA3D
:103F8000CF93DF9300D000D000D0CDB7DEB76AE981
:103F900072E0CE0101960E941D15CE0101960E948D
:103FA000EE19CE0101960E946C1181E080938D0480
:103FB0006AE771E081E190E00E94501226960FB608
:103FC000F894DEBF0FBECDBFDF91CF910895CF92A1
:103FD000DF92EF92FF92F82E4BE050E064E171E047
:103FE00080E390E00E94FF10F11009C0809114015D
:103FF000833529F4809115018E3409F469C0ECEB06
:10400000F0E0E49190917B008E2F880F880F8072F2
:104010009F7D892B80937B00E770E064E0937C00B8
:1040200080917A00806480937A0080917A0086FD86
:10403000FCCF8091780060917900762F682F072E51
:10404000000C880B990B611571058105910511F024
:104050000E94302C0E94E12BCC24CA942FE0D22E57
:10406000E12CF12CA70196010E940E2E7F936F93F5
:104070008AE792E09F938F9384E191E09F938F93DF
:104080000E94E5310E94E12BA70196010E940E2EAD
:104090007F936F9383E892E09F938F938BE191E0FE
:1040A0009F938F930E94E5318DB79EB70C960FB604
:1040B000F8949EBF0FBE8DBF4BE050E064E171E00D
:1040C00080E390E0FF90EF90DF90CF900C94471149
:1040D000FF90EF90DF90CF90089581E00E94E71F5E
:1040E0008AE090E00E94011284E191E00E941512A2
:1040F0000C943212CF93DF9300D000D000D0CDB714
:10410000DEB72091920230919302809190029091BB
:1041100091022817390721F410929102109290020F
:1041200080919002909191029093930280939202D9
:1041300010929A0280E00E94E71FEAE9F3E01192F0
:1041400043E0EF3AF407D9F70E94DC05609380045E
:104150007093810480938204909383040E9492124E
:1041600040E051E06AE972E08BE390E00E94FF10CA
:104170006CEA70E085E090E00E9450128091B707F1
:1041800081110AC085E090E00E9401128AE992E064
:104190000E9415120E943212EAE9F2E090E080E0FB
:1041A000382F292F811541E09407B9F141910196EB
:1041B0004111F6CF30939402209395026AE972E0A0
:1041C000CE0101960E941D15CE0101960E94EE19A6
:1041D000CE0101960E946C1181E080938D041982BA
:1041E00041E050E0BE016F5F7F4F90E080E00E94B1
:1041F000FF108981833241F44FE250E06FE171E0BA
:1042000081E090E00E94FF1026960FB6F894DEBF82
:104210000FBECDBFDF91CF9108959093950280930B
:104220009402CCCF1F920F920FB60F9211248F934E
:104230009F938091E1009091E100937F9093E10042
:1042400083FF0FC01092E90091E09093EB00109271
:10425000EC0092E39093ED0010929B0498E0909311
:10426000F00082FF22C093E09093E9009091F20069
:10427000992319F09AE39093E80090917D04992393
:1042800041F090917D04915090937D04911101C073
:104290005D9A90919A04992341F090919A049150DB
:1042A00090939A04911101C0289A84FF18C08091BC
:1042B000E2008E7E81608093E2008091E1008F7E3B
:1042C0008093E10080917E048E7E806180937E04E5
:1042D0009F918F910F900FBE0F901F90189580FFA8
:1042E000F7CF8091E2008E7E80618093E200809122
:1042F000E1008E7E8093E10080917E048E7E81605D
:10430000E5CF1F920F920FB60F921124CF92DF923A
:10431000EF92FF920F931F932F933F934F935F93CF
:104320006F937F938F939F93AF93BF93EF93FF937D
:10433000CF93DF93CDB7DEB76C97DEBFCDBF1092C2
:10434000E9008091E80083FF25C068E0CE01459632
:104350000E94460382EF8093E8008D8987FF39C071
:104360009091E80090FFFCCF982F907609F034C12F
:104370009E894F89588D2F89F88C911131C08038D2
:1043800061F580917F048093F1001092F1008EEF2F
:104390008093E8006C960FB6F894DEBF0FBECDBFD9
:1043A000DF91CF91FF91EF91BF91AF919F918F914D
:1043B0007F916F915F914F913F912F911F910F913D
:1043C000FF90EF90DF90CF900F900FBE0F901F9057
:1043D00018959EEF9093E800C7CF1092F100D5CFCB
:1043E000913059F48111D3CF4130510581F680913C
:1043F0007F048D7F80937F04CACF933049F481116D
:10440000C6CF4130510519F680917F048260F2CF0A
:10441000953041F48091E80080FFFCCF2068209324
:10442000E300B5CF963009F0A9C00B8D1C8D22E0BA
:104430001092E90010927B0410927A04F2122EC0BE
:1044400010927904109278040E9415031F8299E05B
:104450009983FA8291E09E8390EA98879AEF9987F0
:1044600020917A0430917B04275F3F4F3C832B835C
:104470008D831092E90010927B0410927A041093BD
:1044800079040093780449E050E0BE016F5F7F4FEC
:1044900080E00E94EF020E94150379CF1093790407
:1044A000009378040E947A02DC0112960D911C910F
:1044B0000115110509F451C1D801ED91FC91048059
:1044C000F581E02DBE016B5E7F4FC8010995009715
:1044D00009F03EC1F80100851185EACFF3E0FF1233
:1044E0000EC08F89882309F440C0823061F440E80F
:1044F00062E180EF92E00E94BC02811148CF81E22C
:104500008093EB0047CF813029F440E868E087EEE4
:1045100092E0F1CF833099F70E947A02DC01129683
:10452000ED90FC908E010F5F1F4F6801E114F104C4
:1045300079F0D701ED91FC910680F781E02DB8016B
:10454000C7010995080F111DF701E084F184EECF32
:10455000D8011C92F60101900020E9F73197BF01C4
:104560006C197D0940E0C601C6CF61ED72E0FB0128
:10457000449150E080E80E94EF0209CF973009F49F
:10458000BECF983021F481E08093F10000CF9930C4
:1045900009F0FDCE837009F0B2CFE5E3F2E081E0EF
:1045A00031E096E32191222371F08093E90030936A
:1045B000EB00DF0111972C912093EC009093ED001C
:1045C0008F5F873079F78EE78093EA001092EA00D8
:1045D0008F8980939B04DBCE8B8D9C8D1092E9009C
:1045E00010927B0410927A0490937904809378045B
:1045F000898D811192C08E899D89913A49F48132C9
:1046000009F07DCF47E050E063E571E080E0B3CF93
:10461000913209F074CF833269F48F89988DB0E0BC
:10462000A0E080934F0190935001A0935101B0936B
:104630005201ADCE803269F48091E80082FFFCCF58
:1046400067E083E591E00E9446038BEF8093E800EA
:104650009ECE823209F09BCE8F8980935A01EEEF75
:10466000FFE7859194918B3F9C4D51F1E0E0F8E09C
:104670008091530190915401A0915501B091560140
:10468000803B9440A105B105F1F480915A0180FD71
:104690001AC0EE3F8AE0F80789F587E797E791832C
:1046A00080838091600080937C0488E19BE00FB65A
:1046B000F894A895809360000FBE9093600067CE39
:1046C000EEEFFAE0D5CF808191818737974709F0E7
:1046D0005ECEA89580916000886180936000809193
:1046E0007C0480936000EE3F2AE0F20789F080911D
:1046F000FE0A9091FF0A9183808349CE8081918147
:104700008737980751F29093FF0A8093FE0AC5CF2E
:104710001092FF0A1092FE0A3ACE0E947A02DC0141
:1047200012960D911C910115110509F4E8CED801DE
:10473000ED91FC910190F081E02DBE016B5E7F4F09
:10474000C8010995811123CEF80100851185EBCFB1
:10475000181619060CF41BCED2CEF1E0FF12BECE15
:1047600065ED72E004CF1F920F920FB60F921124E5
:104770002F933F938F939F93AF93BF938091700438
:1047800090917104A0917204B091730430916F0400
:1047900023E0230F2D3758F50196A11DB11D20935D
:1047A0006F048093700490937104A0937204B0938B
:1047B00073048091740490917504A0917604B09173
:1047C00077040196A11DB11D809374049093750424
:1047D000A0937604B0937704BF91AF919F918F918E
:1047E0003F912F910F900FBE0F901F90189526E8C4
:1047F000230F0296A11DB11DD2CF1F920F920FB6AB
:104800000F9211242F933F934F935F936F937F9356
:104810008F939F93AF93BF93CF93DF93EF93FF93C8
:1048200080911E04C091CE04D0E087FF24C0109276
:1048300085001092840080911E048F5F80931E0477
:1048400080911E04082E000C990B8C179D0724F4F0
:1048500080911E048C30C4F1809184009091850079
:10486000049680349C4908F47AC080918400909129
:104870008500049676C080911E04082E000C990BCA
:104880008C179D07C4F6E0911E048E2FEE0F990B36
:10489000FC01EE0FFF1FE80FF91FE655FB4F80816B
:1048A00086FFC9CFE0911E048E2FEE0F990BFC01FD
:1048B000EE0FFF1FE80FF91FE655FB4F808160E008
:1048C0008F730E94A104B7CF20918400309185009E
:1048D000E0911E048E2FEE0F990BFC01EE0FFF1FCF
:1048E000E80FF91FE655FB4F81819281820F931FDC
:1048F0009093890080938800E0911E048E2FEE0F24
:10490000990BFC01EE0FFF1FE80FF91FE655FB4F57
:10491000808186FF11C0E0911E048E2FEE0F990B4F
:10492000FC01EE0FFF1FE80FF91FE655FB4F8081DA
:1049300061E08F730E94A104FF91EF91DF91CF910D
:10494000BF91AF919F918F917F916F915F914F91A7
:104950003F912F910F900FBE0F901F90189580E4FC
:104960009CE990938900809388008FEF80931E04C8
:10497000E3CF1F920F920FB60F9211242F933F9304
:104980004F935F936F937F938F939F93AF93BF9357
:10499000EF93FF938091B900887F803609F44AC075
:1049A000F0F5883209F4A7C018F5803109F49BC0EE
:1049B000B8F4882309F4F9C0883009F494C0FF9151
:1049C000EF91BF91AF919F918F917F916F915F9187
:1049D0004F913F912F910F900FBE0F901F90189500
:1049E000883109F488C0803251F78093430414C0A1
:1049F000803409F49DC040F48033B9F38833F9F66C
:104A00008093430485ECB0C0803509F485C08835B7
:104A100009F496C0883499F60E94DB16D0CF883905
:104A200009F48CC038F5883729F050F4883611F035
:104A3000803729F683E0809345041092180457C00C
:104A4000883809F47BC0803919F0803809F0B7CF75
:104A500080911804803208F071C0E091180481E060
:104A60008E0F809318048091BB00F0E0E850FC4F5B
:104A700080833DC0803B39F0E0F4803A09F479C08E
:104A8000883A09F09CCF84E0809345041092F503A6
:104A90001092F403E091F203F091F30309958091F1
:104AA000F40381110FC081E08093F4031092D203CC
:104AB00009C0803C09F4A6CF883C09F4A3CF883B09
:104AC00009F07DCFE091F50381E08E0F8093F5032F
:104AD000F0E0EE52FC4F80818093BB009091F50393
:104AE0008091F40329C0809120048093BB0085EC61
:104AF0008093BC0064CF9091420480914104981748
:104B000058F5E091420481E08E0F80934204F0E07A
:104B1000EF5DFB4F8081E9CFE091420481E08E0F91
:104B2000809342048091BB00F0E0EF5DFB4F8083F7
:104B300090914204809141049817C8F285E8D8CF3B
:104B4000E091420481E08E0F809342048091BB008B
:104B5000F0E0EF5DFB4F80838091440481115CCFD6
:104B600081E080931F0484EA8093BC001092450486
:104B700026CF85EC8093BC001092450480911804E8
:104B8000803230F4E0911804F0E0E850FC4F1082DD
:104B90006091180470E0E091F603F091F70388EF5C
:104BA00093E00995109218040ACF1092430434CF71
:104BB000CF93DF9310926A071092690788EE93E013
:104BC000A0E0B0E080936B0790936C07A0936D0713
:104BD000B0936E072FE432E03093680720936707A5
:104BE0002FEF3FEF309374072093730710929F04C9
:104BF00010929E048093A0049093A104A093A20419
:104C0000B093A30481E692E090939D0480939C046A
:104C100084E690E09093A9048093A80410924E0833
:104C200010924D0887E697E09093490880934808D2
:104C30001092BF078CE280934B088BE380934A0865
:104C40008FE280934C0880E48093BA078FE38093CF
:104C5000BB071092B90710924408109243081092B3
:104C600046081092450881E080934108EFE4F8E09F
:104C70008BE898E0119211928E179F07D9F7109246
:104C8000BE07C3E5D7E061E0CE010E94D9092296B4
:104C900037E0C736D307B9F7C3E9D6E048E852E0B2
:104CA00061E0CE010E945B0A2C9687E0C335D807ED
:104CB000A9F710929106E3E2F5E027E480E092E0A4
:104CC000DF011396ED01322F19923A95E9F7AA5AAE
:104CD000BF4F8D939C931282E55AFF4FC6E0EF3889
:104CE000FC0771F78091CE048C30A8F08FEF809391
:104CF000F7048091CE048C3008F18FEF8093120579
:104D00001092E3041092E9041092D7041092E00488
:104D1000DF91CF91089591E0980F9093CE04809306
:104D2000F70490E0FC01EE0FFF1FE80FF91FE655B6
:104D3000FB4F88EB9BE092838183DBCF91E0980F60
:104D40009093CE048093120590E0FC01EE0FFF1FBC
:104D5000E80FF91FE655FB4F88EB9BE092838183B8
:104D6000CFCF789484B5826084BD84B5816084BDE2
:104D700085B5826085BD85B5816085BD80916E00F9
:104D8000816080936E00109281008091810082602A
:104D90008093810080918100816080938100809167
:104DA0008000816080938000809191008260809378
:104DB000910080919100816080939100809190009A
:104DC0008160809390008091C10084608093C100D5
:104DD0008091C10082608093C1008091C100816098
:104DE0008093C1008091C30081608093C300809153
:104DF000C00082608093C0008091C2008160809377
:104E0000C20080917A00846080937A0080917A0059
:104E1000826080937A0080917A00816080937A002A
:104E200080917A00806880937A0010929B0410929F
:104E30007F0410927E048091D70081608093D70018
:104E400080EA8093D80089B5806189BD89B5826088
:104E500089BD09B400FEFDCF61E070E080E090E024
:104E60000E9425058091D8008F7C80618093D800B6
:104E70008091E000807F8093E0008091E1008E7E51
:104E80008093E1008DE08093E200559A209A8FEFA5
:104E90009FEF909374078093730784E792E1909358
:104EA0004E0880934D0883E690E1909350088093DC
:104EB0004F0885E396E1909352088093510880E271
:104EC00090E1909384088093830883E69DE090931B
:104ED00054088093530882E999E19093560880938F
:104EE00055088DE79DE0909358088093570889E90D
:104EF00094E1909362088093610889EB94E1909328
:104F000068088093670889E695E190936608809326
:104F100065088CE593E190936A088093690884E8BA
:104F200092E190936C0880936B0880EC9FE19093E2
:104F3000700880936F0880EF95E1909376088093D6
:104F400075088DE690E2909378088093770882E662
:104F50009EE090937A08809379088EE79EE0909384
:104F60007C0880937B0888E09AE090937E08809389
:104F70007D088AE790E29093800880937F0880E123
:104F800099E1909382088093810888EF9EE0909346
:104F900086088093850863E073E085E090E00E94D6
:104FA00050120E947A2081E08093BF079924939445
:104FB0008091BE078111BDC0809148089091490839
:104FC000DC01ED91FC910084F185E02D0995892BA0
:104FD00009F4AFC08091480890914908DC01ED9137
:104FE000FC910084F185E02D099570E4E72EF12C09
:104FF0008034910564F48091480890914908DC015F
:10500000ED91FC910084F185E02D09957C01C09122
:105010004808D091490860E0A62E68E0B62E6501E8
:1050200010E000E0E016F10611F10E94DC0568874F
:1050300079878A879B87E881F9810284F385E02D4F
:10504000CE01099597FF57C30E94DC054884598417
:105050006A847B8464197509860997094C805D8090
:105060006E807F80641575058605970520F3D0E076
:10507000C0E0CE15DF050CF09BCFF50191915F01EB
:105080001092400830914C082091BD079093BD07C5
:10509000931304C0921302C01092BD078091B90708
:1050A000E82FF0E040914A08E954F84F941330C0DB
:1050B000321771F11186882321F0909240081092E6
:1050C000BD071092B907109244081092430810923D
:1050D000460810924508909241088091400881301E
:1050E00031F50E944F0D8093B8078E31D0F4209196
:1050F00042082223B1F0FC01FF27EE0FFF1FE15B06
:10510000F74F0190F081E02D309759F009950FC0CD
:1051100091878F5F8093B9079091BB07891788F6B5
:10512000DCCFE0914D08F0914E08309779F7219649
:10513000A0CFC0908004D0908104E0908204F090D1
:105140008304809184048111DCC20E94DC056C1907
:105150007D098E099F09613A7B4B8D40910558F07E
:1051600081E0809384040E94E10F66E173E085E0B2
:1051700090E00E94501280918D04882309F4B3C2FC
:10518000C3E9D6E010E000E080918C04801711069E
:1051900009F0BBC0C3E2D5E010E000E080918B04D1
:1051A0008017110609F0B8C046E8C42E44E0D42E9A
:1051B000F12CE12C80918A048E151F0409F03DC268
:1051C000CDEED4E010E000E0F8E8EF2EF12CA8E5F9
:1051D000CA2EA2E0DA2E809185048017110609F408
:1051E00082C289899A89AB89BC894D855E856F8524
:1051F000788984179507A607B70709F482C048176E
:1052000059076A077B070CF06AC20197A109B10927
:10521000898B9A8BAB8BBC8B0E94DC056D8B7E8B54
:105220008F8B988FA989BA89A03222E0B207BCF58A
:105230002B854701821A910827FD9394880C991CAD
:10524000880C991C092C000CAA08BB082C85C601E7
:10525000821B910927FD93959C01220F331F220F7A
:10526000331F032E000C440B550B281939094A092A
:105270005B09A53BB10514F0A4EBB0E0B7FF02C099
:10528000B0E0A0E00E94382E24EB30E040E050E097
:105290000E940E2E820E931EA41EB51ED4014A85B6
:1052A0004C3078F52B85F701E21BF10927FDF395CA
:1052B0009F01220F331F220F331FA217B3077CF069
:1052C0002C85C601821B910927FD93959C01220F15
:1052D000331F220F331FA217B3070CF49D01225076
:1052E0003109220F331F5FB7F894842F90E0FC013F
:1052F000EE0FFF1FE80FF91FE655FB4F32832183A6
:105300005FBF0F5F1F4F6B9666CFCE010E94210AD1
:105310000F5F1F4F2C9638CF8A81882309F429C14B
:10532000CE0103960E94E40CCE010C960E94E40C80
:10533000FE8421E0F226FF0C8D818227F82A5E018F
:1053400047E2A40EB11C60E0C5010E944B0CED8841
:10535000FE1409F49BC06E0186E4C80ED11CD60170
:105360006D917D918D919C910E94872F6530710583
:105370000CF404C1F60160817181828193810E94E5
:10538000872F603171050CF0FCC0D6016D917D91C5
:105390008D919C910E94872F6B01B5E0CB1AD108AB
:1053A0006E8D7F8D88A199A14A8C5B8C6C8C7D8CD5
:1053B00064197509860997096E3171058105910592
:1053C0000CF4E3C02EE130E040E050E00E940E2EED
:1053D000CA01B9012601DD0C66087708A301920114
:1053E0000E94C22F9B01AC01C301B2010E94C22FD7
:1053F0009B01AC01C301B2010E94C22F28EE33E031
:1054000040E050E00E940E2E29013A01EFEF4E1AC3
:105410005E0A6E0A7E0A2E2D44E02402F001112459
:105420008F2D0F2C000C990BE82BF92BE55CFD4F11
:105430004081042E000C550B449DB001459D700D1C
:10544000549D700D11242E893F89260F371F3F8BE5
:105450002E8BABE5A09F9001A19F300D11242D5DF7
:105460003A4F820F931FFC0182A1882371F061E003
:10547000C5010E944B0C2EA18E899F8902C0959573
:1054800087952A95E2F7998F888FFD8A888C998C69
:10549000092C000CAA08BB081E01FCE42F0E311CCD
:1054A000F10180819181A281B38188169906AA06B3
:1054B000BB0609F45EC075016401C81AD90AEA0A7C
:1054C000FB0A412C512C32014394F7FE04C04424C2
:1054D0004A94542C3201B701A601F7FE07C04427B5
:1054E0005527BA014C195D096E097F09FE01E75A7B
:1054F000FF4F80819181B0E0A0E0481759076A070B
:105500007B070CF074C0F1E04F1651046104710484
:1055100009F040C0FE01E05BFF4F0190F081E02DFB
:105520003097C1F1DE01A65BBF4F4D915C91688160
:1055300080E00995CC0CDD1CEE1CFF1CC80CD91CAE
:10554000EA1CFB1CC11480E8D806E104F1045CF0FD
:105550008E899F89837099279F8B8E8B198E188EC9
:10556000812C912C5401D1018D929D92AD92BC92CF
:1055700013970F5F1F4FC55ADF4F10CED12CC12C90
:105580000FCF3AE0C32ED12C0BCF61E070E080E06A
:1055900090E020CFFE01EC5AFF4F0190F081E02D0A
:1055A000309741F0DE01A65BBF4F4D915C91698160
:1055B00082E0099541E0441651046104710409F444
:1055C000B9CF472046204520409469F6CC0CDD1C1D
:1055D000EE1CFF1CD501C4018C199D09AE09BF0941
:1055E00081159048AF4FBF4F0CF4B2CFBCCF21E034
:1055F000421651046104710481F4FE01EE5AFF4F1A
:105600000190F081E02D309741F0DE01A65BBF4FA5
:105610004D915C91688181E08CCFFE01EA5AFF4F89
:105620000190F081E02D309729F2DE01A65BBF4F9B
:105630004D915C91698183E0BCCFF601C191D1911C
:105640006F018DA19EA1AFA1B8A5892B8A2B8B2BB1
:10565000C9F10E9400054B015C0189A59AA5ABA583
:10566000BCA5B501A401481B590B6A0B7B0B8DA18E
:105670009EA1AFA1B8A5481759076A077B0710F18B
:105680008D859E85AF85B889FE01EB5BFF4F20813C
:10569000222309F10196A11DB11D8D879E87AF8739
:1056A000B88B4D855E856F8578898E010E5F1F4FA3
:1056B000C8010E94EB0789A69AA6ABA6BCA6C801A2
:1056C0000E942B08CE018A5B9F4F0E94210AFFEFA8
:1056D000EF1AFF0A6FCD0197A109B109DECF01963C
:1056E000A11DB11D95CD80E090E0892B09F45ECC21
:1056F0000E9400005BCCD6018D936D010F5F1F4FA0
:1057000091CC0E94DC056C197D098E099F09603AD5
:105710007B4B8D40910508F02ECD1092840480E0E3
:105720000E94E10F69E173E022CD8F929F92AF92C8
:10573000BF92CF92DF92EF92FF92CF93DF93EC0173
:10574000688179818A819B81611571058105910547
:1057500021F464E279ED8BE597E02DE133EF41E050
:1057600050E00E940E2E49015A019B01AC01A7EAAC
:10577000B1E40E942D2E6B017C01ACEEB4EFA501CB
:1057800094010E943B2EC60ED71EE81EF91EF7FE9E
:1057900006C081E0C81AD108E10880E8F80AC8828A
:1057A000D982EA82FB82C701B6019F77DF91CF9150
:1057B000FF90EF90DF90CF90BF90AF909F908F9031
:1057C00008958F929F92AF92BF92CF92DF92EF9205
:1057D000FF9260915B0170915C0180915D019091FD
:1057E0005E01611571058105910521F464E279ED91
:1057F0008BE597E02DE133EF41E050E00E940E2E63
:1058000049015A019B01AC01A7EAB1E40E942D2E87
:105810006B017C01ACEEB4EFA50194010E943B2E1C
:10582000C60ED71EE81EF91EF7FE06C081E0C81A94
:10583000D108E10880E8F80AC0925B01D0925C01CF
:10584000E0925D01F0925E01C701B6019F77FF9083
:10585000EF90DF90CF90BF90AF909F908F90089582
:1058600060935B0170935C0180935D0190935E0196
:105870000895FC0188279927E89421912032E9F3C3
:10588000293010F02E30C8F32B3241F02D3239F48C
:10589000689404C00E94BA2C820F911D219120535C
:1058A0002A30C0F31EF4909581959F4F08951F9361
:1058B000FC0199278827BC01E89411911032E9F383
:1058C000193010F01E30C8F31B3251F01D3249F46C
:1058D000689406C00E94A52C610F711D811D911D49
:1058E000119110531A30B0F33EF490958095709555
:1058F00061957F4F8F4F9F4F1F910895FA01A1919E
:10590000B081009719F41097E1F0CD01DC01CD01D1
:105910000D90002011F4C00113C0FB01219122233E
:1059200019F02015D9F7F3CFFB012191201519F4B7
:105930001E92119606C02223C1F70D900020A1F7F8
:10594000D001FA01A193B0830895592F482F372F22
:10595000262F660F771F881F991F660F771F881FD6
:10596000991F620F731F841F951F660F771F881F73
:10597000991F08957AE0979F902D879F802D910D14
:10598000112408950E94042D08F481E00895E894FC
:1059900009C097FB3EF490958095709561957F4F77
:1059A0008F4F9F4F9923A9F0F92F96E9BB27939525
:1059B000F695879577956795B795F111F8CFFAF435
:1059C000BB0F11F460FF1BC06F5F7F4F8F4F9F4F66
:1059D00016C0882311F096E911C0772321F09EE8C4
:1059E000872F762F05C0662371F096E8862F70E02A
:1059F00060E02AF09A95660F771F881FDAF7880F04
:105A00009695879597F90895990F0008550FAA0B59
:105A1000E0E8FEEF16161706E807F907C0F01216C1
:105A20001306E407F50798F0621B730B840B950BC4
:105A300039F40A2661F0232B242B252B21F4089519
:105A40000A2609F4A140A6958FEF811D811D0895B6
:105A50000E943B2D0C94AC2D0E949E2D38F00E948C
:105A6000A52D20F0952311F00C94952D0C949B2DD1
:105A700011240C94E02D0E94BD2D70F3959FC1F36D
:105A8000950F50E0551F629FF001729FBB27F00DEC
:105A9000B11D639FAA27F00DB11DAA1F649F662741
:105AA000B00DA11D661F829F2227B00DA11D621F90
:105AB000739FB00DA11D621F839FA00D611D221F4A
:105AC000749F3327A00D611D231F849F600D211D2E
:105AD000822F762F6A2F11249F5750409AF0F1F0B1
:105AE00088234AF0EE0FFF1FBB1F661F771F881F1A
:105AF00091505040A9F79E3F510580F00C94952D90
:105B00000C94E02D5F3FE4F3983ED4F386957795AF
:105B10006795B795F795E7959F5FC1F7FE2B880FBF
:105B2000911D9695879597F9089597F99F6780E855
:105B300070E060E008959FEF80EC089500240A94DF
:105B40001616170618060906089500240A94121658
:105B50001306140605060895092E0394000C11F48B
:105B6000882352F0BB0F40F4BF2B11F460FF04C038
:105B70006F5F7F4F8F4F9F4F089557FD9058440F91
:105B8000551F59F05F3F71F04795880F97FB991F9C
:105B900061F09F3F79F08795089512161306140659
:105BA000551FF2CF4695F1DF08C0161617061806E6
:105BB000991FF1CF86957105610508940895E894C1
:105BC000BB2766277727CB0197F90895DC01CB0126
:105BD000FC01F999FECF06C0F2BDE1BDF89A3196FD
:105BE00000B40D9241505040B8F70895DC01CB014C
:105BF00003C02D910E94012E41505040D0F70895CE
:105C0000262FF999FECF1FBA92BD81BD20BD0FB6D8
:105C1000F894FA9AF99A0FBE01960895052E97FB0B
:105C20001EF400940E94252E57FD07D00E94772E67
:105C300007FC03D04EF40C94252E509540953095DA
:105C400021953F4F4F4F5F4F0895909580957095E8
:105C500061957F4F8F4F9F4F08950E94992EA59F6A
:105C6000900DB49F900DA49F800D911D1124089557
:105C7000B7FF0C942D2E0E942D2E821B930B08959E
:105C80002F923F924F925F926F927F928F929F924C
:105C9000AF92BF92CF92DF92EF92FF920F931F933A
:105CA000CF93DF93CDB7DEB7CA1BDB0B0FB6F894EB
:105CB000DEBF0FBECDBF09942A88398848885F842B
:105CC0006E847D848C849B84AA84B984C884DF809C
:105CD000EE80FD800C811B81AA81B981CE0FD11D80
:105CE0000FB6F894DEBF0FBECDBFED010895A1E25F
:105CF0001A2EAA1BBB1BFD010DC0AA1FBB1FEE1F46
:105D0000FF1FA217B307E407F50720F0A21BB30B90
:105D1000E40BF50B661F771F881F991F1A9469F70C
:105D200060957095809590959B01AC01BD01CF0168
:105D30000895A29FB001B39FC001A39F700D811D64
:105D40001124911DB29F700D811D1124911D089584
:105D50005058BB27AA270E94C02E0C94AC2D0E943D
:105D60009E2D38F00E94A52D20F039F49F3F19F4A4
:105D700026F40C949B2D0EF4E095E7FB0C94952DE6
:105D8000E92F0E94BD2D58F3BA17620773078407E5
:105D9000950720F079F4A6F50C94DF2D0EF4E0952C
:105DA0000B2EBA2FA02D0B01B90190010C01CA01D5
:105DB000A0011124FF27591B99F0593F50F4503E80
:105DC00068F11A16F040A22F232F342F4427585F72
:105DD000F3CF469537952795A795F0405395C9F78A
:105DE0007EF41F16BA0B620B730B840BBAF0915042
:105DF000A1F0FF0FBB1F661F771F881FC2F70EC0E1
:105E0000BA0F621F731F841F48F4879577956795B3
:105E1000B795F7959E3F08F0B0CF9395880F08F09F
:105E20009927EE0F9795879508950E94292F0C9436
:105E3000AC2D0E94A52D58F00E949E2D40F029F413
:105E40005F3F29F00C94952D51110C94E02D0C948A
:105E50009B2D0E94BD2D68F39923B1F3552391F337
:105E6000951B550BBB27AA2762177307840738F0C9
:105E70009F5F5F4F220F331F441FAA1FA9F335D026
:105E80000E2E3AF0E0E832D091505040E695001CDA
:105E9000CAF72BD0FE2F29D0660F771F881FBB1F94
:105EA000261737074807AB07B0E809F0BB0B802D72
:105EB000BF01FF2793585F4F3AF09E3F510578F09E
:105EC0000C94952D0C94E02D5F3FE4F3983ED4F3B1
:105ED000869577956795B795F7959F5FC9F7880F72
:105EE000911D9695879597F90895E1E0660F771FC4
:105EF000881FBB1F621773078407BA0720F0621B55
:105F0000730B840BBA0BEE1F88F7E09508950E947F
:105F10008E2F6894B1110C94E02D08950E94C52D28
:105F200088F09F5798F0B92F9927B751B0F0E1F05A
:105F3000660F771F881F991F1AF0BA95C9F714C00A
:105F4000B13091F00E94DF2DB1E008950C94DF2D67
:105F5000672F782F8827B85F39F0B93FCCF3869543
:105F600077956795B395D9F73EF4909580957095A0
:105F700061957F4F8F4F9F4F08950E94042D08F425
:105F80008FEF0895DB018F939F930E942D2EBF9179
:105F9000AF91A29F800D911DA39F900DB29F900D78
:105FA00011240895991B79E004C0991F961708F0F1
:105FB000961B881F7A95C9F780950895EE0FFF1FED
:105FC0000590F491E02D09940F931F93CF93DF93E5
:105FD0008230910510F482E090E0E0918D08F0911C
:105FE0008E0830E020E0B0E0A0E0309799F4211571
:105FF000310509F44AC0281B390B24303105D8F586
:106000008A819B816115710589F1FB0193838283EC
:10601000FE0111C040815181028113814817590747
:10602000E0F04817590799F4109761F012960C9315
:10603000129713961C933296CF01DF91CF911F9147
:106040000F91089500938D0810938E08F4CF2115B9
:10605000310551F04217530738F0A901DB019A01CD
:10606000BD01DF01F801C1CFEF01F9CF90938E0898
:1060700080938D08CDCFFE01E20FF31F81939193A2
:106080002250310939832883D7CF20918B08309152
:106090008C08232B41F420916101309162013093EF
:1060A0008C0820938B0820915F01309160012115AD
:1060B000310541F42DB73EB7409163015091640121
:1060C000241B350BE0918B08F0918C08E217F30745
:1060D000A0F42E1B3F0B2817390778F0AC014E5F58
:1060E0005F4F2417350748F04E0F5F1F50938C0801
:1060F00040938B08819391939FCFF0E0E0E09CCF99
:10610000CF93DF930097E9F0FC013297138212825C
:10611000A0918D08B0918E08ED0130E020E010973D
:10612000A1F420813181820F931F20918B0830913F
:106130008C082817390709F061C0F0938C08E093A8
:106140008B08DF91CF910895EA01CE17DF07E8F5BC
:106150004A815B819E0141155105B1F7E901FB833D
:10616000EA8349915991C40FD51FEC17FD0761F4DB
:10617000808191810296840F951FE901998388831C
:10618000828193819B838A83F0E0E0E012968D9177
:106190009C9113970097B9F52D913C911197CD01E2
:1061A0000296820F931F20918B0830918C0828173C
:1061B000390739F6309751F510928E0810928D08F4
:1061C000B0938C08A0938B08BCCFD383C28340814B
:1061D0005181840F951FC817D90761F44E5F5F4F37
:1061E00088819981480F591F518340838A819B81FF
:1061F000938382832115310509F0B0CFF0938E0887
:10620000E0938D089ECFFD01DC01C0CF1382128286
:10621000D7CFB0E0A0E0EFE0F1E30C94422E8C0188
:10622000009751F4CB010E94E42F8C01C801CDB737
:10623000DEB7E0E10C945E2EFC01E60FF71F9C0137
:1062400022503109E217F30708F49DC0D901CD911E
:10625000DC911197C617D70798F0C530D10530F3F8
:10626000CE0104978617970708F3C61BD70B229712
:10627000C193D1936D937C93CF010E948030D6CF90
:106280005B01AC1ABD0A4C018C0E9D1EA0918D08BD
:10629000B0918E08512C412CF12CE12C109731F546
:1062A00080918B0890918C088815990509F05CC045
:1062B0004616570608F058C080915F019091600122
:1062C000009741F48DB79EB74091630150916401EE
:1062D000841B950BE817F90708F055C0F0938C085C
:1062E000E0938B08F90171836083A0CF8D919C911D
:1062F000119712966C90129713967C901397A8158D
:10630000B90559F56C0142E0C40ED11CCA14DB0476
:1063100020F1AC014A195B09DA011296159780F059
:106320006282738251834083D9016D937C93E1141F
:10633000F10471F0D7011396FC93EE93129776CF88
:1063400022968C0F9D1FF90191838083F301EFCF7B
:10635000F0938E08E0938D0869CF4816590608F42B
:106360002C017D01D3019ACFCB010E94E42F7C0147
:10637000009749F0AE01B8010E94C631C8010E94E1
:106380008030870153CF10E000E050CFFB01DC01EB
:1063900002C001900D9241505040D8F70895FB0182
:1063A000DC0101900D920020E1F70895FB01DC0172
:1063B0004150504048F001900D920020C9F701C0B3
:1063C0001D9241505040E0F70895AEE0B0E0EBEE92
:1063D000F1E30C944E2E0D891E8986E08C831A837E
:1063E00009838FEF9FE79E838D83AE01475E5F4FEA
:1063F0006F89788DCE0101960E9408322F813885F1
:10640000020F131FF80110822E96E4E00C946A2EFE
:10641000ABE0B0E0EEE0F2E30C94402E7C013B01F7
:106420008A01FC0117821682838181FFC8C1CE01D7
:1064300001965C01F7019381F30193FD859193FF30
:1064400081913F01882309F453C1853239F493FDCA
:10645000859193FF81913F01853229F4B70190E046
:106460000E94F833E7CF912C212C312CFFE1F3155A
:1064700038F08B3211F190F4803209F1833229F136
:1064800037FC3CC020ED280F2A3050F536FE20C0E6
:106490008AE0989E200D1124922E06C08D3291F034
:1064A000803371F7689430F8F30193FD859193FF81
:1064B00081913F018111DACF21C0689431F868944D
:1064C00032F8F2CF689433F8EFCF689434F8ECCF19
:1064D000EAE02E9E200D1124222E689435F8E4CF98
:1064E0008E3229F436FC04C1689436F8DDCF8C3640
:1064F00019F4689437F8D8CF8836B1F2982F9F7D79
:1065000095549330E0F08336A1F18337C1F18335A0
:1065100009F063C02801F2E04F0E511CF801C08061
:10652000D180692D70E036FC02C06FEF7FEFC601AD
:106530000E94E2334C01689437F882010AC00C5F74
:106540001F4FFFE3F98388248394912C6501E8941D
:1065500037F833FE2DC0522C8114910471F555206B
:1065600009F468CFB70180E290E00E94F8335A94B2
:10657000F6CFF801808189830E5F1F4FE4CF280199
:10658000F2E04F0E511CF801C080D180692D70E0FF
:1065900036FC02C06FEF7FEFC6010E94ED334C0165
:1065A0008201D5CFB70180E290E00E94F8332A94AF
:1065B0002814190409F0B0F7CECFF60137FC859105
:1065C00037FE81916F01B70190E00E94F8335110BE
:1065D0005A94F1E08F1A9108BFCF843619F08936AA
:1065E00009F077C0F80137FE6BC06081718182814C
:1065F00093810C5F1F4FF32DFF763F2E97FF09C04D
:1066000090958095709561957F4F8F4F9F4F6894BF
:1066100037F82AE030E0A5010E942834C82ECA18B5
:106620008C2C432C36FE0CC0E89440F8C91440F47E
:1066300034FE05C032FC03C0F32DFE7E4F2E892CA4
:1066400044FE95C0FE01EC0DF11D8081803309F000
:1066500087C0242D297E422E842D8870582E43FC1D
:1066600095C040FE8FC09C2C821418F42C0C922CE8
:10667000981844FE91C0B70180E390E00E94F8337F
:1066800042FE09C088E790E041FE02C088E590E044
:10669000B7010E94F833C91408F48AC0CA94D12CF7
:1066A0009FEFC91AD90ACA0CDB1CF60182916F014F
:1066B000B70190E00E94F833AC14BD04B1F74FCF9E
:1066C00060817181072E000C880B990B0E5F1F4FA4
:1066D00092CFD32CE894D4F82AE030E0853739F112
:1066E000232D297FD22E8F3601F148F48835A9F069
:1066F000F701868197812B96E2E10C945C2E80371E
:1067000049F08837A9F7D4FE02C06894D2F820E196
:1067100030E00DC06894D4F8F6CF34FE03C0822F69
:106720008660D82E20E132E002C028E030E0F80197
:10673000D7FE0FC060817181828193810C5F1F4FF2
:10674000A5010E942834C82ECA183D2CE89437F8B9
:1067500067CF6081718190E080E00E5F1F4FF0CFC6
:1067600042FC02C0839478CF8394839475CF842DA8
:10677000867809F471CFF6CFB70180E290E00E94ED
:10678000F83383948214C0F3512C73CF522C5818D1
:10679000821408F46ECFF8CF842D867809F47BCF6D
:1067A0008BE241FE80E247FC8DE2B70190E071CFC1
:1067B000B70180E390E00E94F8339A946CCF8FEF9A
:1067C0009FEF99CFFC010590615070400110D8F700
:1067D000809590958E0F9F1F0895FC016150704029
:1067E00001900110D8F7809590958E0F9F1F089506
:1067F0000F931F93CF93DF93182F092FEB018B81FA
:1068000081FD09C01FEF0FEF812F902FDF91CF91F6
:106810001F910F91089582FF14C02E813F818C81BA
:106820009D81281739073CF4E881F981CF01019651
:106830009983888310838E819F8101969F838E83A5
:10684000E3CFE885F985812F0995892BA1F3DACF6C
:10685000FA01AA27283051F1203181F1E8946F9391
:106860006E7F6E5F7F4F8F4F9F4FAF4FB1E03ED037
:10687000B4E03CD0670F781F891F9A1FA11D680FD5
:10688000791F8A1F911DA11D6A0F711D811D911D08
:10689000A11D20D009F468943F912AE0269F11247D
:1068A0003019305D3193DEF6CF010895462F4770E1
:1068B000405D4193B3E00FD0C9F7F6CF462F4F703C
:1068C000405D4A3318F0495D31FD4052419302D09A
:1068D000A9F7EACFB4E0A695979587957795679540
:1068E000BA95C9F700976105710508959B01AC0140
:1068F0000A2E06945795479537952795BA95C9F767
:10690000620F731F841F951FA01D0895F894FFCF79
:106910004D6F6269466C69676874204D6963726F78
:106920000000000030393837363534333231004D0D
:106930006F6269466C69676874204D6963726F00A5
:106940000000000000000000000000000000000047
:10695000000000000000000000000000000000FF38
:10696000FFFFFF00E1000000000000010000000048
:10697000008F088000000040001400540000000058
:1069800001020100000002010000010100010100FC
:1069900001010101010000000000F9107E03480C14
:1069A0000D06312E392E370000007E306D79335BB5
:1069B0005F707F7B771F0D3D4F4700000000000098
:1069C00000000000000000000000000000000000C7
:1069D000000000000000800180257E306D79335B6F
:1069E0005F707F7B00000009000000777F4E7E4FC4
:1069F000475F37307C000E00767E677E775B463ED1
:106A0000000000336D4E13780008007D1F0D3D4FD0
:106A1000477B373038000600151D6773055B0F1C78
:106A2000000000276D4E00780000000000004206C4
:106A30000E06AD07EB0797075B073A070607E50663
:106A40008F06600600C1808100000000FF01000188
:106A50000000FFFF0000010001FF0000000000AB8C
:106A6000035705CC03C1031204D003EE030000005A
:106A700000320B050B480CDB0AFE0AEB0ADC0A0DA0
:106A80000A0030002E003A002000534E2D253033EE
:106A9000782D002530337800427574746F6E0000D5
:00000001FF
