:100000000C9418010C9440010C9440010C94400194
:100010000C9440010C9440010C9440010C9440015C
:100020000C9440010C9440010C9440010C94D11F9D
:100030000C9440010C9440010C9440010C9440013C
:100040000C94871F0C9440010C94551F0C942F1F87
:100050000C9440010C9440010C9440010C9440011C
:100060000C948D200C944001526573746F7265641A
:1000700020636F6E66696700416464656420656E25
:10008000636F6465720053657474696E6720636F93
:100090006E66696720656E640053657474696E6787
:1000A00020636F6E66696720737461727400436CBD
:1000B000656172656420627574746F6E7300436C61
:1000C000656172656420656E636F64657273004379
:1000D0006C6561726564206F75747075747300432C
:1000E0006C6561726564207365676D656E7473001D
:1000F000436C656172656420736572766F7300434B
:100100006C656172656420737465707065727300EC
:10011000436C6561726564206C6364446973706CE0
:10012000617973004F4B004F4B004F4B00416464AB
:10013000656420627574746F6E2000416464656448
:10014000206F7574707574004164646564204C653B
:1001500064205365676D656E74002000526F636B99
:10016000732100200020004D6F6269666C6967682A
:1001700074004164646564206C6364446973706CEA
:1001800061790041646465642053686966746572CE
:10019000006E2F6100416464656420737465707043
:1001A000657200436F6E666C69637420776974686A
:1001B00020737465707065720000000000240027D1
:1001C000002A0000000000250028002B000000008D
:1001D000002300260029000404040404040404028B
:1001E00002020202020303030303030102040810D4
:1001F00020408001020408102001020408102000A1
:1002000000000800020100000304070000000000D5
:1002100000000041747461636865642063616C6C04
:100220006261636B73004F6E004F66660000AC2125
:1002300011241FBECFEFD8E0DEBFCDBF12E0A0E09B
:10024000B1E0EAEDF0E602C005900D92AC37B107DF
:10025000D9F727E0ACE7B2E001C01D92A039B207A0
:10026000E1F711E0C8E1D1E004C02197FE010E944E
:10027000C32BC731D107C9F70E94B5220C946B304C
:100280000C940000AC011092BD0690914D07809136
:100290004C07FA01BF01641B750B2081222389F0F2
:1002A0003091BD062093BD06291304C0931302C0EC
:1002B0001092BD062081281302C0931302C031960C
:1002C000E9CFCB0108950F931F93CF93DF938091D4
:1002D0004107882309F446C0D0E0C0E0813029F40A
:1002E00082E080934107C1ECD6E0809142078823E9
:1002F00041F1209721F4C0914607D09147078E0124
:10030000CE010E944201892B29F42196F8018081B7
:100310008111F5CFF8018081882309F1C8010E947D
:100320004201F801E80FF91F8081882311F0108243
:100330003196F0934707E0934607109345070093E3
:1003400044078091440790914507892B59F081E03B
:1003500080934207DF91CF911F910F91089510E094
:1003600000E0EBCF80E0F6CF0E946301882351F0DC
:1003700081E08093420780934307809144079091E6
:10038000450708951092430790E080E00895DC014E
:10039000ED91FC910190F081E02D0994EF92FF9294
:1003A0000F931F93CF93DF938C017B01D0E0C0E0CC
:1003B000F701EC0FFD1F6491662361F0D801ED9108
:1003C000FC910190F081E02DC8010995892B11F075
:1003D0002196EECFCE01DF91CF911F910F91FF902B
:1003E000EF900895AF92BF92CF92DF92EF92FF927B
:1003F0000F931F93CF93DF936C017B018B01040F4D
:10040000151FEB015E01AE18BF08C017D10759F0E8
:100410006991D601ED91FC910190F081E02DC6012A
:100420000995892B79F7C501DF91CF911F910F9124
:10043000FF90EF90DF90CF90BF90AF900895FC01B8
:10044000538D448D252F30E0842F90E0821B930B39
:10045000541710F0CF96089501970895FC01918DDF
:10046000828D981761F0A28DAE0FBF2FB11D5D96E2
:100470008C91928D9F5F9F73928F90E008958FEF84
:100480009FEF0895FC01918D828D981731F0828D38
:10049000E80FF11D858D90E008958FEF9FEF08958F
:1004A000FC01918D228D892F90E0805C9F4F821BF3
:1004B00091098F73992708958BE196E00E9450026D
:1004C00021E0892B09F420E0822F089580E090E05C
:1004D000892B29F00E945C0281110C940000089580
:1004E000FC01A48DA80FB92FB11DA35ABF4F2C91A9
:1004F000848D90E001968F739927848FA689B789A0
:100500002C93A089B1898C91837080648C93938D96
:10051000848D981306C00288F389E02D80818F7D39
:1005200080830895EF92FF920F931F93CF93DF93F1
:10053000EC0181E0888F9B8D8C8D98131AC0E8891F
:10054000F989808185FF15C09FB7F894EE89FF89EE
:100550006083E889F98980818370806480839FBF8C
:1005600081E090E0DF91CF911F910F91FF90EF908C
:100570000895F62E0B8D10E00F5F1F4F0F7311279C
:10058000E02E8C8D8E110CC00FB607FCFACFE889D7
:10059000F989808185FFF5CFCE010E947002F1CFED
:1005A000EB8DEC0FFD2FF11DE35AFF4FF0829FB74B
:1005B000F8940B8FEA89FB8980818062CFCFCF933B
:1005C000DF93EC01888D8823B9F0AA89BB89E8897B
:1005D000F9898C9185FD03C0808186FD0DC00FB621
:1005E00007FCF7CF8C9185FFF2CF808185FFEDCF9F
:1005F000CE010E947002E9CFDF91CF910895833040
:1006000081F028F4813099F08230A9F00895873084
:10061000A9F08830C9F08430B1F4809180008F7DDA
:1006200003C0809180008F7780938000089584B507
:100630008F7784BD089584B58F7DFBCF8091B00006
:100640008F778093B00008958091B0008F7DF9CFAF
:10065000CF93DF93282F30E0F901E150FE4F8491D2
:10066000F901E551FE4FD491F901E952FE4FC491D1
:10067000CC23A1F081110E94FF02EC2FF0E0EE0FDD
:10068000FF1FE353FE4FA591B491EC91ED2381E060
:1006900090E009F480E0DF91CF91089580E090E050
:1006A000FACF1F93CF93DF93282F30E0F901E15069
:1006B000FE4F8491F901E551FE4FD491F901E952C1
:1006C000FE4FC491CC23A9F0162F81110E94FF0286
:1006D000EC2FF0E0EE0FFF1FED53FE4FA591B4910C
:1006E0008FB7F894EC91111108C0D095DE23DC93FC
:1006F0008FBFDF91CF911F910895DE2BF8CFCF935D
:10070000DF9390E0FC01E551FE4F249189529E4F0A
:10071000FC0184918823D1F090E0880F991FFC019F
:10072000E754FE4FA591B491FC01ED53FE4FC591E6
:10073000D49161110EC09FB7F8948C91E22FE0958F
:100740008E238C932881E223E8839FBFDF91CF9192
:1007500008958FB7F894EC91E22BEC938FBFF6CF0E
:100760003FB7F8948091580490915904A0915A048D
:10077000B0915B0426B5A89B05C02F3F19F00196E8
:10078000A11DB11D3FBFBA2FA92F982F8827BC01EB
:10079000CD01620F711D811D911D42E0660F771F13
:1007A000881F991F4A95D1F708958F929F92AF9213
:1007B000BF92CF92DF92EF92FF924B015C010E94B9
:1007C000B0036B017C010E94B0036C197D098E0996
:1007D0009F09683E734081059105A8F321E0821AC4
:1007E0009108A108B10888EEC80E83E0D81EE11C6C
:1007F000F11C81149104A104B10429F7FF90EF903A
:10080000DF90CF90BF90AF909F908F9008952FB7BB
:10081000F89460915404709155048091560490911D
:1008200057042FBF08951F93CF93DF93EC01162F2A
:10083000688385E090E098878F8360E0812F0E9435
:100840007F0361E0812F0E9451030E9407046B83A4
:100850007C838D839E8388810E94280321E0892BDD
:1008600009F420E02A832983DF91CF911F91089515
:100870000895CF93DF93FC012281222359F1EC01EB
:1008800061E083810E947F0361E08C810E947F038D
:100890008A81843011F08830B1F461E08D810E944A
:1008A0007F0361E08E810E947F038EA58F3F91F0D0
:1008B00061E00E947F036DA581E068278EA5DF912E
:1008C000CF910C945103833011F0863071F761E0C1
:1008D0008D81E9CFDF91CF910895CF93DF93FC0114
:1008E00022812223A9F0EC010190F081E02D048007
:1008F000F581E02D60E009958EA58F3F49F061E01C
:100900000E947F036DA58EA5DF91CF910C945103BA
:10091000DF91CF910895DC01ED91FC912481358127
:10092000477055276627772741505109610971099A
:10093000473051056105710560F4FA01EE55FB4F32
:100940000C94C32BAC04AE04B004B204B404B604DB
:10095000B80461E0F901099465E0FCCF64E0FACFE6
:1009600066E0F8CF62E0F6CF6AE0F4CF68E0F2CF5D
:1009700069E0F0CFCF93DF93EC01CB01BA0126E021
:1009800030E040E050E00E94F329623071058105BB
:10099000910589F16CF46115710581059105D1F01E
:1009A0006130710581059105F9F0DF91CF910895CE
:1009B000643071058105910561F124F1653071059F
:1009C0008105910591F7E881F9810480F581E02D99
:1009D00066E006C0E881F9810480F581E02D64E0DD
:1009E000CE01DF91CF910994E881F9810480F581EE
:1009F000E02D65E0F5CFE881F9810480F581E02DF7
:100A000061E0EECFE881F9810480F581E02D63E0BB
:100A1000E7CFE881F9810480F581E02D62E0E0CF45
:100A2000DC01ED91FC910480F581E02D43705527A8
:100A300066277727423051056105710571F0433013
:100A400051056105710559F0413051056105710588
:100A500011F065E0099466E0FDCF6AE0FBCF69E044
:100A6000F9CFCF93DF93EC01CB01BA0123E030E063
:100A700040E050E00E94F329613071058105910545
:100A800099F06230710581059105A9F0672B682BFB
:100A9000692BC1F4E881F9810480F581E02D64E0DF
:100AA000CE01DF91CF910994E881F9810480F5812D
:100AB000E02D61E0F5CFE881F9810480F581E02D3A
:100AC00062E0EECFDF91CF910895DC01ED91FC91D2
:100AD0000480F581E02D4370552766277727423043
:100AE00051056105710571F04330510561057105CE
:100AF00059F0413051056105710511F062E009942A
:100B000063E0FDCF61E0FBCF60E0F9CF0F931F936F
:100B1000CF93DF93EC01E881F9810480F581E02D2A
:100B20008C010D5B1F4FD8018C9160E0811162E058
:100B3000CE010995E881F9810480F581E02DD80185
:100B40008C9161E0811163E0CE0109958BA59CA594
:100B50008230910538F0880F991F880F991F0597EB
:100B60000197F1F7E881F9810480F581E02DD80142
:100B70008C9160E0811162E0CE01DF91CF911F91F5
:100B80000F910994CF93DF93EC0120E030E0A901AD
:100B90006B897C898D899E890E94A22B18162CF462
:100BA000EFA5F8A9DF91CF910994E9A9FAA9FACFA5
:100BB000CF92DF92EF92FF920F931F93CF93DF9329
:100BC000DC011296CC91C43039F0C83059F1C330F1
:100BD00019F0C63049F1C2E08C010D5F1F4FF12CB6
:100BE000E12CC62ED12CD1E0F8016481C6010E2C77
:100BF00002C0959587950A94E2F780FD6D270F5FF7
:100C00001F4F80810E945103BFEFEB1AFB0AEC16C5
:100C100058F3DF91CF911F910F91FF90EF90DF90EC
:100C2000CF900895C4E0D8CFC3E0D6CFDC011296B0
:100C3000EC911297E93008F038C0F0E0EE5DF94F22
:100C40000C94C32B2B06310637063D06430655068A
:100C5000490655064F06ED91FC910084F185E02D83
:100C60000994ED91FC910284F385E02DF9CFED918B
:100C7000FC910484F585E02DF3CFED91FC91068481
:100C8000F785E02DEDCFED91FC910088F189E02D05
:100C9000E7CFED91FC910288F389E02DE1CFED9152
:100CA000FC910488F589E02DDBCF08954F925F9287
:100CB0006F927F928F929F92AF92BF92CF92DF926C
:100CC000EF92FF920F931F93CF93DF93EC018F84EA
:100CD0009888A988BA888B859C85AD85BE85881A39
:100CE000990AAA0ABB0A6B897C898D899E899B0116
:100CF000AC010E940D296B017C016B8D7C8D8D8D6B
:100D00009E8D9B01AC010E948E2A9B01AC01C70104
:100D1000B6010E94FA2A0E946C2B81149104A1044E
:100D2000B10409F0B0C062307105810591050CF085
:100D3000CDC01BA21CA21DA21EA21B8A1C8A1D8A3A
:100D40001E8A1BAA1CAA1DAA1EAADF91CF911F9161
:100D50000F91FF90EF90DF90CF90BF90AF909F905A
:100D60008F907F906F905F904F90089510161106AE
:100D700012061306B4F4681579058A059B051CF460
:100D800020812111A3C09B01AC0188279927DC0198
:100D9000821B930BA40BB50B8BAB9CABADABBEAB6B
:100DA00095C0011511052105310509F48FC068159D
:100DB00079058A059B050CF089C08081882309F498
:100DC00085C030952095109501951F4F2F4F3F4FAF
:100DD0000BAB1CAB2DAB3EAB79C00115110521054A
:100DE000310509F473C0CC24DD247601C818D90874
:100DF000EA08FB086C157D058E059F050CF066C0A2
:100E00008081811163C0DDCF8BAC9CACADACBEAC3E
:100E1000A5019401C501B4010E948E2A2B013C0159
:100E2000C701B6010E94AE2820E030E040E850E45F
:100E30000E940D2920E030E040E85FE30E948E2A06
:100E40009B01AC01C301B2010E94FA2A9B01AC01D3
:100E5000C501B4010E948D2A2B013C01FE01FF96C1
:100E600080809180A280B3809401A5010E94A22B72
:100E7000181614F442015301C401D5018BAF9CAF85
:100E8000ADAFBEAF41C00BA91CA92DA93EA9FE0163
:100E9000ED5BFF4F181419041A041B040CF466CF01
:100EA00010161106120613060CF097CF0027112713
:100EB0009801081919092A093B0960177107820767
:100EC00093070CF060CF208121115DCFCBA8DCA867
:100ED000EDA8FEA88E010D5B1F4FC114D104E104E3
:100EE000F10409F091CF8FA998ADA9ADBAAD8BAF40
:100EF0009CAFADAFBEAF81E0181419041A041B04F7
:100F00000CF080E0F8018083FFEFCF1ADF0AEF0AD0
:100F1000FF0ACBAADCAAEDAAFEAACBACDCACEDACF6
:100F2000FEACC701B6010E94732B6BA37CA38DA3FB
:100F30009EA3A701960160E074E284E799E40E9411
:100F4000FA2A6B8B7C8B8D8B9E8BF8012081211173
:100F5000FCCE90586B8B7C8B8D8B9E8BF6CEFC01E0
:100F6000DC01A85BBF4F8C918823D1F08181811176
:100F700017C081E0818381899289A389B4898036F1
:100F80009947AE4FBF4F61F080E699E7AEEFBFEFF4
:100F9000818B928BA38BB48BCF0102960C94560657
:100FA0000895CF93DF9381112AC02091010430E08E
:100FB000ADEFB3E090E080E08217930704F5ED9188
:100FC000FD91EF01CA5BDF4F4A8164131BC0818131
:100FD0008823A9F0158616861786108A118A128A28
:100FE000138A148A15AA16AA17AA10AE15A216A259
:100FF00017A210A6158A168A178A108E1182DF9101
:10100000CF9108950196D8CFCF93DF93EC01862F2F
:101010006883198261E00E947F0369818881DF9182
:10102000CF910C945103DC0113968C91139781118D
:101030000CC01896ED91FC911997309731F04D91B5
:101040005C91119712966C9109941A96ED91FC910E
:101050001B97309739F04D915C91119712966C91D6
:1010600081E0F2CF08950F931F93CF93DF93CBEAE4
:10107000D5E010E000E0809168048017110639F097
:10108000CE010E9413080F5F1F4F2C96F4CFDF9103
:10109000CF911F910F910895CF92DF92EF92FF921F
:1010A000CF93DF93EC010E9407046B017C018C81DC
:1010B0009D81AE81BF81A7019601281B390B4A0B88
:1010C0005B0BDA01C9010B97A105B105C0F08A815C
:1010D0000E942803CC82DD82EE82FF829B819817DA
:1010E00071F091E0811101C090E09B83CE01DF910E
:1010F000CF91FF90EF90DF90CF900C941308DF9189
:10110000CF91FF90EF90DF90CF900895CF93DF9332
:10111000EC016A835983488381E08B830E94070432
:101120006C837D838E839F8360E08A810E947F032E
:1011300061E08A81DF91CF910C9451032091D80313
:10114000260F3327331F21323105ECF42091290477
:10115000FC0190E080E0243069F082E00895A091E5
:10116000D8032191AC014A545C4FA40FB52FB11D97
:101170002C930196861798F38091D803680F60939B
:10118000D80380E0089581E008951092290481E059
:10119000809328041092030461E082E10E945103CD
:1011A00061E083E10E945103E9EBF0E080818E7FF2
:1011B000808380818D7F808388E48093B80085E47C
:1011C0008093BC000895CF93DF9391E09093B50393
:1011D0008823B9F0C091B800D091BA008091BC00CA
:1011E0008A7B8093BC0060E082E10E94510360E052
:1011F00083E10E9451030E94C508D093BA00C093B6
:10120000B800DF91CF910895089508950895E09171
:10121000B4038091B303E81730F4F0E0ED56FC4FCF
:10122000808190E008958FEF9FEF08959091B4032F
:101230008091B3032FEF3FEF981748F4E92FF0E0C8
:10124000ED56FC4F208130E09F5F9093B403C901BD
:1012500008958091B3039091B403891B990B08956D
:10126000CF92DF92EF92FF920F931F93CF93DF9372
:101270007C01CB018A0120912F04222389F0EB010C
:101280006B01C40ED51ECC15DD0569F06991D7013F
:10129000ED91FC910190F081E02DC7010995F3CF0C
:1012A000642F0E949E08C801DF91CF911F910F917A
:1012B000FF90EF90DF90CF900895CF93DF931F9230
:1012C000CDB7DEB7698320912F042223F9F0209156
:1012D0005204203258F021E030E0FC0133832283B5
:1012E00090E080E00F90DF91CF91089580913004DD
:1012F000E82FF0E0EF5CFB4F998190838F5F809344
:1013000030048093520481E090E0ECCF61E0CE01A4
:1013100001960E949E08F7CFCF92DF92EF92FF9244
:101320000F931F93CF93DF93FC01C48121E020939F
:101330002F04C093510410923004109252048385FC
:10134000682B8AE694E00E945D09D0915204D13264
:1013500008F092C00E94B0036B017C0180912904C7
:10136000811165C082E08093290481E08093280484
:101370008FEF8093270410922604D0932504A1E3D5
:10138000B4E0E5E0F4E080E0D81385C010920404F6
:1013900080910404CC0FC82BC093040480910304F3
:1013A000813009F07CC0109203040E94B0036B01ED
:1013B0007C01809104048093BB0080912B04909168
:1013C0002C04A0912D04B0912E04892B8A2B8B2BF9
:1013D00099F00E94B00300912B0410912C042091ED
:1013E0002D0430912E046C197D098E099F09061772
:1013F000170728073907E0F18091BC0083FDD9CF9A
:1014000085EC8093BC000E94B0036B017C0180914D
:101410002904823009F445C0809127048F3F61F18F
:1014200080912704803241F18091270425C080916A
:101430002B0490912C04A0912D04B0912E04892BA3
:101440008A2B8B2B09F48ACF0E94B00300912B04C6
:1014500010912C0420912D0430912E046C197D09DB
:101460008E099F09061717072807390708F076CF56
:1014700080912A040E94E3081092300410925204D2
:1014800010922F04DF91CF911F910F91FF90EF9059
:10149000DF90CF9008959D9191938F5F75CF85EEEA
:1014A000B0CF80912B0490912C04A0912D04B09189
:1014B0002E04892B8A2B8B2B09F4A9CF0E94B00311
:1014C00000912B0410912C0420912D0430912E04B6
:1014D0006C197D098E099F09061717072807390718
:1014E00008F095CFC5CF90E080E008958F929F924D
:1014F000AF92BF92CF92DF92EF92FF921F93CF9362
:10150000DF93EC01162F0E940704C98CDA8CEB8C58
:10151000FC8C4B015C018C189D08AE08BF08CD8C7B
:10152000DE8C0D2C000CEE08FF088C149D04AE041C
:10153000BF04C4F0288D34E0239FF0011124EC0F88
:10154000FD1F10821182128213822F5F288F648701
:10155000758786879787698F7A8F8B8F9C8F2330CB
:1015600008F0188E1123B9F0FE019E01245F3F4F51
:10157000C190D190E190F190DF0114974FEFC41A20
:10158000D40AE40AF40ACD92DD92ED92FC9213970C
:101590002E173F0769F7E88D54E0E59FF00111240D
:1015A000EC0FFD1FC484D584E684F7849B01AC0155
:1015B0002C193D094E095F0969017A016081718129
:1015C000828193810E94AE2820E030E04AE754E413
:1015D0000E940D294B015C01C701B60116161706C2
:1015E0001806190624F061E070E080E090E00E94A7
:1015F000AE289B01AC01C501B4010E94FA2A6F8F8D
:1016000078A389A39AA3DF91CF911F91FF90EF90C8
:10161000DF90CF90BF90AF909F908F9008958F9262
:101620009F92AF92BF92CF92DF92EF92FF920F9371
:101630001F93CF93DF93EC0188810E942803BB2482
:10164000B394892B09F4B12C0E9407042A812983C1
:10165000CB80DC80ED80FE800F8118852B1519F181
:101660009B01AC012C193D094E095F0969017A0102
:10167000012E000C220B330BC016D106E206F30636
:101680000CF0BA826B837C838D839E83DF91CF9134
:101690001F910F91FF90EF90DF90CF90BF90AF9090
:1016A0009F908F900895012E000C220B330B4B015D
:1016B0005C018C189D08AE08BF0875016401C01656
:1016C000D106E206F30614F3601B710B820B930B39
:1016D0006150710981099109D5CFE6E8F3E0919154
:1016E000981303C0DF0111971C9293E0E339F907C7
:1016F000B1F708950E946301882359F081E0809337
:1017000042078093430780914407909145070C94CA
:101710001E281092430790E080E00895CF930E9426
:101720007A0BC82F0E947A0B61E0181619060CF08C
:1017300060E08C2F0E9451030E94070460935C04B8
:1017400070935D0480935E0490935F04CF9108953D
:101750008F929F92AF92BF92CF92DF92EF92FF92C1
:101760000F931F93CF93DF930E947A0B8C010E94FB
:101770007A0BBC01809161048017110609F00CF40A
:10178000BFC08BE1809FE001819FD00D1124C55423
:10179000DB4FCD80DE800D2C000CEE08FF08898029
:1017A0009A80092C000CAA08BB082F813885032ECB
:1017B000000C440B550B2C193D094E095F09072EEF
:1017C000000C880B990B681979098A099B090E94FA
:1017D000A72B2B813C81032E000C440B550B2819A1
:1017E00039094A095B090E94F329BA01A9014C0D84
:1017F0005D1D6E1D7F1D052E000C660B770B8D8504
:101800009E85AF85B88984179507A607B70709F4A1
:101810006DC04D875E876F87788B8985811166C023
:101820008A858C3008F058C0F88061E08F2D0E94C6
:101830007F038A85282F30E0F901EE0FFF1FE20FAA
:10184000F31FE858FB4F2F2D2F739081907C922B24
:1018500090831B861C862CE0622F0E94B72B829FF0
:10186000B001112430E020E0AB01420F531FFA0118
:10187000EE0FFF1FE40FF51FE858FB4F908196FD18
:1018800016C02F5F3F4F2C30310571F781110FC00B
:101890001092800082E08093810010928500109267
:1018A0008400B19A80916F00826080936F008BE119
:1018B000809FF001819FF00D1124E554FB4FE285DC
:1018C0008E2F90E0FC01EE0FFF1FE80FF91FE85884
:1018D000FB4F8081806480838BE1809FF001819F3A
:1018E000F00D1124E554FB4F81E081870E9407042D
:1018F00060935C0470935D0480935E0490935F0436
:10190000DF91CF911F910F91FF90EF90DF90CF90DB
:10191000BF90AF909F908F9008950E947A0B209176
:10192000660428171906A1F09CF0880F991FFC0186
:10193000EE59FB4F808191810E94AF070E940704FE
:1019400060935C0470935D0480935E0490935F04E5
:1019500008950E947A0B209166042817190639F120
:1019600034F1880F991FFC01EE59FB4F0190F08173
:10197000E02D158616861786108A118A128A138A18
:10198000148A15AA16AA17AA10AE15A216A217A293
:1019900010A6158A168A178A108E0E940704609373
:1019A0005C0470935D0480935E0490935F040895DB
:1019B0000F931F93CF93DF93082F162FD42FC8E0D8
:1019C0006D2F661F6627661F802F0E945103DD0F53
:1019D00061E0812F0E94510360E0812F0E9451033A
:1019E000C15071F7DF91CF911F910F9108950F931F
:1019F0001F93CF93DF93EC0160E088810E94510335
:101A00000B8188E0089F800111244C815D816E81EB
:101A10007F81002E04C076956795579547950A9467
:101A2000D2F769818A810E94D80C08501109083FB9
:101A30008FEF180751F761E08881DF91CF911F91F7
:101A40000F910C945103CF92DF92EF92FF92CF93BC
:101A50000E947A0B7C010E947A0BC82F0E947A0B9D
:101A60009701332799E0E99EF0011124E356FB4FDB
:101A70009085992319F1C480D580E680F78041E0F4
:101A800050E060E070E004C0440F551F661F771FF0
:101A9000CA95D2F7882311F14C295D296E297F2937
:101AA000448355836683778349E0429FC001439F07
:101AB000900D112483569B4F0E94F70C0E9407043F
:101AC00060935C0470935D0480935E0490935F0464
:101AD000CF91FF90EF90DF90CF9008954095509573
:101AE000609570954C215D216E217F21D9CF8F9219
:101AF0009F92AF92BF92CF92DF92EF92FF920F939D
:101B00001F93CF93DF9300D0CDB7DEB78C0149830D
:101B10002A83660F771FF801EA5AFF4FE080F180B1
:101B2000EE0CFF1CF801CF01801B910B8E159F0559
:101B300014F41192F8CF8981F801E60FF71F818321
:101B40008A818083680184E5C80ED11C60E0F601BB
:101B500080810E9451034801F2E58F0E911C5801CB
:101B600080E5A80EB11C1E141F0474F4E1E0EE1A07
:101B7000F108F801EE0DFF1D4081F4016081F501CF
:101B800080810E94D80CEFCF61E0F60180810F9038
:101B90000F90DF91CF911F910F91FF90EF90DF9009
:101BA000CF90BF90AF909F908F900C945103CF92A5
:101BB000DF92EF92FF921F93CF93DF937C016B0133
:101BC000EB0183E0CC0FDD1F8A95E1F76096CE0D27
:101BD000DF1D11E0199220E0412FB601C7010E94DC
:101BE000770D1F5F1930B1F7DF91CF911F91FF90F3
:101BF000EF90DF90CF900895FC01EA5AFF4F2081CB
:101C00003181621773073CF420E0411101C021E0EB
:101C10004CE00C94770D0895DF92EF92FF920F93B2
:101C20001F93CF93DF93D82EC7EAD5E0F12CE12C98
:101C3000809183028E151F04A1F4CBE0D6E010E062
:101C400000E08091820280171106E9F0888160E04F
:101C5000D11001C069810E9451030F5F1F4F22966E
:101C6000F0CF10E08B81811749F0612F70E04D2D8E
:101C7000888199810E94FC0D1F5FF4CF8FEFE81AD5
:101C8000F80A2496D5CFDF91CF911F910F91FF9045
:101C9000EF90DF900895DF92EF92FF920F931F93E2
:101CA000CF93DF930E947A0BEC010E947A0BD82E1F
:101CB00010E000E0CC0FDD1FCC0FDD1FC955DA4F5F
:101CC0007E0182E0E80EF11CF7018081882379F023
:101CD00088819981FC01EA5AFF4F208131810217E6
:101CE00013072CF42D2D4AE0B8010E94770D0F5FE9
:101CF0001F4F0830110541F70E94070460935C04F0
:101D000070935D0480935E0490935F04DF91CF91A4
:101D10001F910F91FF90EF90DF9008950F931F9305
:101D2000CF93DF930E947A0BEC010E947A0B8C0117
:101D30000E947A0B282FFE01EE0FFF1FEE0FFF1FF0
:101D4000E955FA4F8281882381F017FD0EC080810A
:101D50009181FC01EA5AFF4F408151810417150718
:101D600024F44AE0B8010E94770D0E9407046093B2
:101D70005C0470935D0480935E0490935F04DF9134
:101D8000CF911F910F9108950F931F93CF938C01C3
:101D9000C62F0E948C096C2F6460C8010E948C09B8
:101DA0006C2F6B7FC8010E948C0983EC90E0019737
:101DB000F1F7CF911F910F9108950F931F93CF9338
:101DC000DF938C01D62FC42F607F642B0E94C40E3A
:101DD00080E1D89FB00111246C2BC801DF91CF9115
:101DE0001F910F910C94C40ECF93DF93CDB7DEB744
:101DF00028970FB6F894DEBF0FBECDBF28E0E9E507
:101E0000F1E0DE01119601900D922A95E1F7FC01B7
:101E10002185261710F46FEF620F70E0660F771FB1
:101E200021E030E02C0F3D1F620F731FFB0160812A
:101E3000606840E028960FB6F894DEBF0FBECDBFB5
:101E4000DF91CF910C94DD0E41E00E94DD0E81E028
:101E500090E00895CF92DF92EF92FF920F931F933D
:101E6000CF93DF936C017B018A01D0E0C0E0B60123
:101E70006C0F7D1F41E050E0C7018C0F9D1F0E9439
:101E8000CB292196C017D10790F3CE01DF91CF91D6
:101E90001F910F91FF90EF90DF90CF9008950F93D7
:101EA0001F93CF93DF93FC01048115810115110568
:101EB00039F4FB011082DF91CF911F910F910895AA
:101EC000415051094017510708F48A01EB01FC0108
:101ED00060817181A801CE010E94BB2DC00FD11F6E
:101EE0001882E9CFCF92DF92EF92FF920F931F9368
:101EF000CF93DF936C017B018A01D0E0C0E0B60193
:101F00006C0F7D1F41E050E0C7018C0F9D1F0E94A8
:101F1000DB292196C017D10790F3CE01DF91CF9135
:101F20001F910F91FF90EF90DF90CF900895FC01EB
:101F300080819181009711F00C94652C0895FB012C
:101F400001900020E9F73197AF01461B570BDC01E8
:101F5000ED91FC910280F381E02D09948F929F9284
:101F6000AF92BF92EF92FF920F931F93CF93DF93A5
:101F7000CDB7DEB7A1970FB6F894DEBF0FBECDBFC9
:101F80007C01FA01CB0119A2223008F42AE08E016B
:101F90000F5D1F4F822E912CB12CA12CBF01A501EA
:101FA00094010E945C2AF901CA016A300CF5605D57
:101FB000D8016E938D01232B242B252B79F790E0EC
:101FC00080E0109721F0BD01C7010E949F0FA196EC
:101FD0000FB6F894DEBF0FBECDBFDF91CF911F913A
:101FE0000F91FF90EF90BF90AF909F908F900895CA
:101FF000695CDECFCF92DF92EF92FF920F931F9337
:10200000CF93DF9377FF1DC06A017B01EC016DE286
:102010000E94C7018C0144275527BA014C195D095C
:102020006E097F092AE0CE010E94AE0F800F911F3A
:10203000DF91CF911F910F91FF90EF90DF90CF90A4
:1020400008952AE0DF91CF911F910F91FF90EF90BB
:10205000DF90CF900C94AE0F2091B80621110FC0E5
:1020600021E02093B8062093BF06AC01990F660BC0
:10207000770B8091490790914A070C94FA0F0895C5
:10208000CF93DF932091B8062223A1F0EC01609159
:102090004C078091490790914A070E94C7012097F9
:1020A00049F0BE018091490790914A07DF91CF9195
:1020B0000C949F0FDF91CF9108958091B8068823EB
:1020C000A1F060914B078091490790914A070E94C7
:1020D000C7018091C006882341F06CE572E08091D1
:1020E000490790914A070E949F0F1092BF061092D5
:1020F000B80680E00895CF93DF932091B8062111B0
:102100001AC0EB010E942C108091B806882379F048
:1021100060914C078091490790914A070E94C7013E
:10212000BE018091490790914A070E94CE01DF913C
:10213000CF910C945D1080E0DF91CF9108950E94C3
:10214000070460935C0470935D0480935E04909335
:102150005F0461E971E085E090E00C947B1040E061
:1021600051E066E872E08BE390E00E94720F67E254
:1021700071E08FE090E00C947B10FF920F931F931F
:10218000CF93DF9381E00E946D0B109268046EEA9A
:1021900070E085E090E00E947B1088E00E946D0B6B
:1021A000109267046EEB70E085E090E00E947B1077
:1021B00083E00E946D0B109282026FEC70E085E06C
:1021C00090E00E947B1084E00E946D0B10E000E024
:1021D000C0918302D0E0C017D10789F0CC0FDD1F7A
:1021E000CC0FDD1FC955DA4F8A81882329F08881F9
:1021F00099810E94652C1A820F5F1F4FE9CF1092C0
:1022000083026FED70E085E090E00E947B1080918A
:10221000610450E040E0682F70E02BE1829FC00134
:10222000112485549B4FDC0119960A966417750793
:10223000A9F02C91222379F0EC01E8812E2F30E0D7
:10224000F901EE0FFF1FE20FF31FE858FB4F20814B
:102250002F7B20831C924F5F5F4FE8CF86E00E9468
:102260006D0B1092610460EF70E085E090E00E94D9
:102270007B10D0E0C0E08091660490E08C179D0751
:1022800059F0880F991FFC01EE59FB4F8081918115
:102290000E94652C2196EFCF89E00E946D0B109271
:1022A00066046FEF70E085E090E00E947B1010E024
:1022B00000E086E0F82E8091840290E0801791077C
:1022C00091F0F89EE001F99ED00D1124C155DB4F2D
:1022D0008A81882329F0888199810E94652C1A823D
:1022E0000F5F1F4FE8CF1092840260E171E085E03C
:1022F00090E00E947B101092810210928002109256
:102300006904DF91CF911F910F91FF9008950E9472
:10231000BD1064E271E085E090E00C947B105F9268
:102320006F927F928F929F92AF92BF92CF92DF92E5
:10233000EF92FF920F931F93CF93DF93CDB7DEB74A
:10234000CB55D1090FB6F894DEBF0FBECDBF70904C
:10235000670492E0791609F400C1E82FF0E0DF018C
:10236000AA57BC4F5D019C919111F7C0E62FF0E098
:10237000DF01AA57BC4F6D019C919111EEC0642EF4
:10238000562E682FFE01349687E4DF011D928A9550
:10239000E9F780E092E06C969FAF8EAF6C971B825E
:1023A0008BE5879D7001112487010F501B4F3397D8
:1023B000D80101900D928A95E1F74801BCE48B0E9B
:1023C000911CF401108211821282138232973183A0
:1023D0002083D8016C9311965C923E964083C7018E
:1023E0008C509B4F0E941304652DC70183509B4F57
:1023F0000E941304F801158A178A168A118E108E0E
:10240000128E138E148E158E88EE93E0A0E0B0E04D
:10241000868F978FA0A3B1A3D701AD5EBA4F85E099
:10242000869DF0011124EF59FE4F01900D928A957F
:10243000E1F70E940704F801E05CFF4F60837183BD
:1024400082839383D80197961D921D921D921C92B0
:102450009A97F80163AB74AB85AB96AB9B961D92D4
:102460001D921D921C929E9767AB70AF81AF92AF89
:102470009F961D921D921D921C92D29763AF74AFCE
:1024800085AF96AF17AEEC5BFF4F86EA90E0918385
:10249000808380E090E8AFEFBFEFF801828F938FE9
:1024A000A48FB58F8FEF9FE7A0E0B0E0868F978F66
:1024B000A0A3B1A3D4014D915C9186A1FA0102C001
:1024C000F595E7958A95E2F7CF01D80156962D91BB
:1024D0003C91579723703327822B932B57969C93CD
:1024E0008E93569759965C934E93589781E0129627
:1024F0008C93F801E05BFF4F80E293E1918380834E
:102500003296918380833296918380833296918331
:10251000808388E0F5018083D6018C937394709258
:10252000670468E770E085E090E0C55ADF4F0FB6BA
:10253000F894DEBF0FBECDBFDF91CF911F910F91F9
:10254000FF90EF90DF90CF90BF90AF909F908F90D3
:102550007F906F905F900C947B10C55ADF4F0FB641
:10256000F894DEBF0FBECDBFDF91CF911F910F91C9
:10257000FF90EF90DF90CF90BF90AF909F908F90A3
:102580007F906F905F9008950E94070460935C04B1
:1025900070935D0480935E0490935F048AE090E002
:1025A0000E942C1080E091E00E9440108FE191E0A9
:1025B0000E94401084E191E00E94401086E891E082
:1025C0000E9440100C945D100E94070460935C040C
:1025D00070935D0480935E0490935F048AE090E0C2
:1025E0000E942C1086E892E00E9440100C945D102E
:1025F0000F931F93CF93C82F8A0187E090E00E942A
:102600002C10C8010E9440108091B806882399F0D0
:1026100060914C078091490790914A070E94C70139
:102620004C2F50E070E060E02AE0809149079091E3
:102630004A070E94AE0FCF911F910F910C945D102D
:102640000F931F93CF93C82F8A0186E090E00E94DA
:102650002C10C8010E9440108091B806882399F080
:1026600060914C078091490790914A070E94C701E9
:102670004C2F50E070E060E02AE080914907909193
:102680004A070E94AE0FCF911F910F910C945D10DD
:10269000EF92FF920F931F93CF93DF93EC01198278
:1026A00018821B821A821D821C8261157105A9F194
:1026B0007B01FB0101900020E9F731978F01061B98
:1026C000170BB8016F5F7F4F90E080E00E94EE2C07
:1026D0000097B9F0998388831B830A832C813D81FD
:1026E000232B11F4FC0110821D830C83B701888118
:1026F0009981DF91CF911F910F91FF90EF900C94F2
:10270000B42D88819981009711F00E94652C19825F
:1027100018821D821C821B821A82DF91CF911F9129
:102720000F91FF90EF9008950F931F93CF93DF9336
:1027300000D000D000D0CDB7DEB769E970E085E009
:1027400090E00E947B100E94070460935C047093E9
:102750005D0480935E0490935F040E94B401BC0109
:10276000CE0101960E94481360918002709181020F
:102770000D811E81060F171F40E051E0401B510BD9
:10278000423051050CF43FC06A577D4FCE0101968F
:102790000E944F0F10938102009380028091B8062F
:1027A00081111CC085E090E00E942C108091B80639
:1027B000882391F060914C078091490790914A07D6
:1027C0000E94C701A801110F660B770B8091490782
:1027D00090914A070E94FA0F0E945D1066E870E02F
:1027E00085E090E00E947B10CE0101960E94970F39
:1027F00026960FB6F894DEBF0FBECDBFDF91CF9106
:102800001F910F9108958091B8068111E7CF85E05F
:1028100090E00E942C108091B8068823E9F2609124
:102820004C078091490790914A070E94C7014FEFDA
:102830005FEFBA01CBCFCF93DF93CDB7DEB7289749
:102840000FB6F894DEBF0FBECDBF0E94B401BC012D
:10285000CE0101960E94481340E350E06FE171E021
:10286000CE0101960E944F0F83E290E098878F83FC
:1028700041E050E0BE01695F7F4F90E080E00E9440
:10288000720F4FE250E06FE171E081E090E00E9452
:10289000720F85E090E00E942C108FE191E00E9481
:1028A00040100E945D10CE0101960E94970F28965D
:1028B0000FB6F894DEBF0FBECDBFDF91CF91089564
:1028C0006F927F928F929F92AF92BF92CF92DF9240
:1028D000EF92FF920F931F93CF93DF9300D000D01E
:1028E00000D0CDB7DEB70E947A0B8C010E947A0B24
:1028F0007C010E94B4016C010E947A0B4C010E9481
:102900007A0B5C01000F111F000F111F09551A4FA0
:10291000F8018281882309F458C0B601CE010196DE
:102920000E944813FF24370183E0660C771C8A95C8
:10293000E1F7D12C48E0BB249924CC24CA94C40EDE
:102940006C2D70E0C5010C2C02C0959587950A94FA
:10295000E2F780FF33C0F80180819181ED2DF0E036
:102960002D813E81E217F30708F04EC029813A819C
:102970002115310509F448C0E20FF31FE081DC01A5
:10298000AA5ABF4F2D913C91E216F306B4F4F0E041
:10299000E257FE4F2081F4010C2C02C0F595E7951B
:1029A0000A94E2F7E0FD2068680F791FFB01E60D4D
:1029B000F71D208BB7010E94770DD3944C2DC110C9
:1029C000BCCFCE0101960E94970F0E94070460932E
:1029D0005C0470935D0480935E0490935F0426967C
:1029E0000FB6F894DEBF0FBECDBFDF91CF911F9120
:1029F0000F91FF90EF90DF90CF90BF90AF909F909E
:102A00008F907F906F900895E0E0B9CF85ED80932F
:102A1000BC0080912B0490912C04A0912D04B091C6
:102A20002E040796A11DB11D23E0B695A795979595
:102A300087952A95D1F72091BC0024FD03C0109200
:102A40002904089540912B0450912C0460912D0489
:102A500070912E04452B462B472B69F30097A10557
:102A6000B10541F025E32A95F1F700000197A1098E
:102A7000B109E1CF80912A040C94E3082F923F9290
:102A80004F925F926F927F928F929F92AF92BF927E
:102A9000CF92DF92EF92FF920F931F93CF93DF932A
:102AA000CDB7DEB72A970FB6F894DEBF0FBECDBF05
:102AB000FC01FF27DF01AA57BC4FBA83A983EC9121
:102AC000E11128C0FB01FF27DF01AA57BC4FBC83DF
:102AD000AB83EC91E1111EC0FA01FF27DF01AA5779
:102AE000BC4FBE83AD83EC91E11114C0F901FF2707
:102AF000DF01AA57BC4FB887AF83EC91E1110AC040
:102B0000101611062CF5F801FF27EA57FC4FE0815B
:102B1000EE23F1F063EA71E085E090E02A960FB6CB
:102B2000F894DEBF0FBECDBFDF91CF911F910F9103
:102B3000FF90EF90DF90CF90BF90AF909F908F90DD
:102B40007F906F905F904F903F902F900C947B10F0
:102B500039016A014B015C0186E590E00E94C92BB6
:102B60009A8789877C01B2E0EB0EF11C82E192E04A
:102B7000E985FA859383828384E08483DF01158667
:102B800016861786108A118A128A138A148A158A61
:102B9000168A178A108E212C312C50E8452E5FE3BF
:102BA000552E218E328E438E548E158E168E178E94
:102BB00010A221A232A243A254A215A216A217A2C9
:102BC00010A681E090E096A785A78FEF80AB11A6B5
:102BD00012A613A614A665828682A782C08615AAAD
:102BE00016AA17AA10AE11AE12AE13AE14AEFD9611
:102BF00010821182128213826D01F1E4CF0ED11C7A
:102C0000D6012D923D924D925C921397E985FA85FB
:102C1000EB5BFF4F1082E985FA85118612861386D9
:102C20001486C7010E943904A985BA855D968D90E6
:102C30009D90AD90BC909097A2019101C501B40107
:102C40000E94A728882339F1E985FA8565A976A924
:102C500087A990AD0E94AE28A50194010E940D297C
:102C60000E946C2BA985BA85D5966D937D938D9323
:102C70009C93D89786E896E6A9E6B9E4E985FA85B3
:102C800081AF92AFA3AFB4AF258E368E478E50A2E0
:102C9000C7010E9456064FE552E0602FA984BA840E
:102CA000B6E4AB0EB11CC5010E948608E985FA8521
:102CB000118280910104E82FF0E0EE0FFF1FE35036
:102CC000FC4F29853A85318320838F5F80930104EF
:102CD00081ED97E0D50119969C938E9318971B96DA
:102CE0009C938E931A9730906604E32DF0E0EE0FDC
:102CF000FF1FEE59FB4F3183208320E030E048EC8A
:102D000053E4E985FA85618D728D838D948D0E94DF
:102D1000A728882309F445C080E090E0A8ECB3E43C
:102D2000E985FA85818F928FA38FB48F80E090E43C
:102D3000ACE1B5E4F60180839183A283B383E98596
:102D4000FA8585A996A9A7A9B0AD181619061A067D
:102D50001B063CF5658976898789908D9B01AC01BE
:102D60000E940D292B013C01A985BA855D966D91C4
:102D70007D918D919C9190979B01AC010E948E2A30
:102D80009B01AC01C301B2010E94FA2A0E946C2B84
:102D9000E985FA8565AB76AB87AB90AFC7010E943A
:102DA0005606A985BA855D964D905D906D907C9094
:102DB000909720E030E048E454E4C301B2010E945F
:102DC000A7288823B9F1E985FA8565A976A987A995
:102DD00090AD0E94AE284B015C0120E030E048E459
:102DE00054E4C301B2010E94FA2A9B01AC01C5015F
:102DF000B4010E940D290E946C2BA985BA85D59635
:102E00006D937D938D939C93D89781E098E0A4E097
:102E1000B7E4E985FA8581AF92AFA3AFB4AF80E0A4
:102E200090E0A8E4B4E4858F968FA78FB0A3C70184
:102E30000E94560689E0A981BA818C93EB81FC81BE
:102E40008083AD81BE818C93EF81F88580831016DD
:102E500011064CF41127F801EA57FC4F808389854D
:102E60009A850E94AF07BB24B394B30CB09266045A
:102E700065E971E051CE8F929F92AF92BF92CF924F
:102E8000DF92FF920F931F93CF93DF93CDB7DEB7FF
:102E900065970FB6F894DEBF0FBECDBF0E947A0BC8
:102EA0005C010E94B4016C0186E08A9D80018B9DCB
:102EB000100D112401551B4FD80112968C918823B7
:102EC00099F11A821982FE01339683E1DF011D9286
:102ED0008A95E9F7F12C4801B5E08B0E911C580159
:102EE000E4E0AE0EB11CD4018C918F15E9F06F2D8A
:102EF000F801808191810E94F40ED5018C91482FB8
:102F000050E0B6018F9D600D711D1124CE01019618
:102F10000E94AB2DBE016F5F7F4FF80180819181D0
:102F20000E949F0FF394DFCF8091B806811109C0F2
:102F300085E090E00E942C10C6010E9440100E9483
:102F40005D100E94070460935C0470935D0480939D
:102F50005E0490935F0465960FB6F894DEBF0FBED3
:102F6000CDBFDF91CF911F910F91FF90DF90CF9058
:102F7000BF90AF909F908F9008950F931F93CF9322
:102F8000DF930E947A0BEC010E946301882309F40D
:102F90004AC081E0809342078093430780914407B1
:102FA000909145070E943C28209166042C171D062D
:102FB000A9F1A4F1CC0FDD1FCE59DB4FE881F981D7
:102FC0001182DF01AE5ABF4F0D911D912D913C91A1
:102FD00013976017710782079307B1F06D937D9384
:102FE0008D939C93139701891289238934896017E3
:102FF00071078207930741F0618B728B838B948BEF
:10300000CF0102960E9456060E94070460935C045A
:1030100070935D0480935E0490935F04DF91CF9181
:103020001F910F9108951092430760E070E0CB016B
:10303000BBCF2F923F924F925F926F927F928F926F
:103040009F92AF92BF92CF92DF92EF92FF920F9337
:103050001F93CF93DF93CDB7DEB7C951D1400FB6E1
:10306000F894DEBF0FBECDBF1A821982FE013396DF
:103070002FEFDF011D922A95E9F7C25FDE4F19821B
:103080001882CE50D14040E051E0BE016F5F7F4FCB
:103090000E944F0FAE01425F5E4F61E672E0CE01CB
:1030A00001960E946328FC012081222309F471C04B
:1030B0002224239426E0522E0E941E2801978A3053
:1030C000910508F07EC5FC01E159F74EAE01425F63
:1030D0005E4F61E672E090E080E00C94C32B7918BB
:1030E0006B1BE3181C19861A221BBE1B8F1BD51ADB
:1030F000671D0E9463288C01AE01425F5E4F63E64C
:1031000072E090E080E00E9463287C01C8010E9488
:103110001E28D0906804F8E0DF1679F18C011127A1
:103120000A571C4FD8012C91211127C0A701682FE5
:10313000CE018E5F9E4F0E9486082CE02D9DC0011F
:10314000112485559A4FFE01EE5FFE4FDC01019080
:103150000D922A95E1F728EF32E1FC0133872287AF
:1031600031872087D8012C92D394D09268046DE2E5
:1031700071E085E090E00E947B10AE01425F5E4FFF
:1031800061E672E090E080E00E946328009709F019
:1031900093CFC75EDE4F0FB6F894DEBF0FBECDBF34
:1031A000DF91CF911F910F91FF90EF90DF90CF9023
:1031B000BF90AF909F908F907F906F905F904F9057
:1031C0003F902F9008950E9463288C01AE01425FCA
:1031D0005E4F63E672E090E080E00E946328C801E1
:1031E0000E941E28F0908202B8E0FB1631F28C019A
:1031F00011270A571C4FF80120812111BECF682FDB
:10320000CE018E5F9E4F0E940408EF2DF0E0EE0F7E
:10321000FF1FE55FF94FCE5FDE4F88819981C25075
:10322000D1409183808383E0D8018C93F394F09212
:1032300082026BE371E09DCF0E9463288C01AE0196
:10324000425F5E4F61E672E090E080E00E9463289A
:103250007C01AE01425F5E4F61E672E090E080E08B
:103260000E9463286C01AE01425F5E4F61E672E02E
:1032700090E080E00E9463284C01AE01425F5E4F07
:1032800061E672E090E080E00E9463285C01AE019C
:10329000425F5E4F63E672E090E080E00E94632848
:1032A000C4010E941E28482EC5010E941E285C01F0
:1032B000C6010E941E284C01C7010E941E286C01F5
:1032C000C8010E941E287C0130908302B1E03B16A9
:1032D00009F453CF9927FC01EA57FC4FCE5EDE4F2D
:1032E000F983E883C251D1408081811146CFC40166
:1032F00099279C012A573C4FCC5EDE4F39832883A7
:10330000C451D140D9018C91811137CFC601992781
:10331000FC01EA57FC4FCA5EDE4FF983E883C651D1
:10332000D1408081811129CF232D30E0C85EDE4F4E
:1033300039832883C851D14088E590E00E94C92B89
:103340008C013C0130E5630E711CD301ED92FC92BF
:10335000FC01EE5AFF4FC05FDE4FF983E883C05196
:10336000D140918280823296D182C082C50101977C
:10337000089708F063C09A2D8B2DF801EA5AFF4F89
:103380009083818361E08E2D0E947F0361E0C05FA6
:10339000DE4FA881B981C051D1408C910E947F033A
:1033A00061E06801B4E5CB0ED11CF60180810E947A
:1033B0007F0361E0D6018C910E945103F301F182F9
:1033C000E082F801709611926E167F06E1F7F12CFB
:1033D000E12C6801F6E5CF0ED11CD6018D919C91B0
:1033E000E816F90674F520E04FE0B701C8010E9425
:1033F000770DF60180819181E816F90634F427E013
:103400004BE0B701C8010E94770D20E049E0B70109
:10341000C8010E94770DD6018D919C91E816F9069E
:1034200024F4B701C8010E94D70D41E0B701C801DB
:103430000E94FC0DBFEFEB1AFB0ACFCF98E080E0B3
:103440009CCFC85EDE4FE881F981C851D140EE0FB4
:10345000FF1FEE0FFF1FE955FA4FDF010D931D937C
:103460002282A382F12CE12C8F0133965F016D0142
:10347000D5018C918E151F0469F1F6018081882396
:1034800081F0D8018D919C91FC01EA5AFF4F208177
:103490003181E216F3062CF4242D4AE0B7010E9494
:1034A000770D40E0B701F801808191810E94FC0D09
:1034B000D8018D919C91FC01EA5AFF4F2081318106
:1034C000E216F3061CF4B7010E94D70DBFEFEB1A0A
:1034D000FB0ACECF84E0CE5EDE4FE881F981C25197
:1034E000D1408083CA5EDE4FA881B981C651D140E8
:1034F0008C93CC5EDE4FE881F981C451D14080834A
:1035000033943092830268E471E033CE0E946328E2
:103510008C01AE01425F5E4F61E672E090E080E0B8
:103520000E9463287C01AE01425F5E4F61E672E05B
:1035300090E080E00E9463286C01AE01425F5E4F24
:1035400061E672E090E080E00E9463285C01AE01D9
:10355000425F5E4F61E672E090E080E00E94632887
:10356000AE01425F5E4F63E672E090E080E00E9451
:103570006328C5010E941E285C01C6010E941E2806
:103580006C01C7010E941E287C01C8010E941E28F0
:103590002091660410E000E0223009F4EECD9501A0
:1035A000A601B7010E943E15E8CD0E9463284C0198
:1035B000AE01425F5E4F61E672E090E080E00E9403
:1035C00063287C01AE01425F5E4F61E672E090E0ED
:1035D00080E00E9463286C01AE01425F5E4F61E6AD
:1035E00072E090E080E00E9463285C01AE01425FDF
:1035F0005E4F61E672E090E080E00E9463288C01FB
:10360000AE01425F5E4F63E672E090E080E00E94B0
:103610006328C8010E941E288C01C5010E941E2833
:103620005C01C6010E941E286C01C7010E941E2871
:103630007C01C4010E941E2820916604223009F0FA
:10364000AECF9BCD0E9463288C01AE01425F5E4FDE
:1036500063E672E090E080E00E946328C8010E9467
:103660001E28D0906104F2E0DF1609F486CD9C019B
:103670003327A9014A575C4F7A01DA012C912111B5
:103680007CCDBBE1DB9E8001112405541B4FF8016A
:103690001186158616861786108A118A128A138A51
:1036A000148A1282118224EB30E034832383168241
:1036B00015823087278380830E940704D80155969E
:1036C0006D937D938D939C935897F7015082D3947B
:1036D000D092610452CD0E9463287C01AE01425F0A
:1036E0005E4F61E672E090E080E00E9463286C012A
:1036F000AE01425F5E4F63E672E090E080E00E94C0
:1037000063288C01C6010E941E28D82EC7010E9482
:103710001E28980140E06D2D0E948F112ECD0E9431
:1037200063287C01AE01425F5E4F61E672E090E08B
:1037300080E00E9463286C01AE01425F5E4F61E64B
:1037400072E090E080E00E9463285C01AE01425F7D
:103750005E4F63E672E090E080E00E9463288C0197
:10376000C5010E941E28B82EC6010E941E28D82E10
:10377000C7010E941E2898014B2DCDCF0E946328BF
:103780008C01AE01425F5E4F61E672E090E080E046
:103790000E9463287C01AE01425F5E4F61E672E0E9
:1037A00090E080E00E9463286C01AE01425F5E4FB2
:1037B00063E672E090E080E00E946328C6010E9408
:1037C0001E28B82EC7010E941E28A82EC8010E94DC
:1037D0001E28982E80918402823009F4CECCE82EE7
:1037E000F12C5E9CC0015F9C900D11249C01215521
:1037F0003B4F6901D90113969C9213971496AC9292
:1038000014971596BC928CE090E00E94C92B8C0115
:10381000FC01138212822EE731E0318320839482EF
:10382000A086B1861286A8E0BA2EB386D60111967C
:103830009C938E9312962C921092B4031092B30321
:1038400010923004109252040E94C508E4E0F9E09E
:10385000F093D703E093D60325E039E03093DB0300
:103860002093DA03D80115961C92159719968C911E
:103870001997823010F01596BC92F8019285992321
:1038800029F0813019F485818460858362E370E0DA
:1038900080E090E00E94D503D8011B966C91C8018E
:1038A0000E948C0968EE73E080E090E00E94D503EE
:1038B00060E3C8010E94C40E8BE496E40197F1F71F
:1038C00060E3C8010E94C40E8BE496E40197F1F70F
:1038D00060E3C8010E94C40E83E592E00197F1F70E
:1038E00060E2C8010E94C40EF8016581606240E098
:1038F000C8010E94DD0E84E0D80116968C9340E04A
:103900006CE0C8010E94DD0E40E061E0C8010E9449
:10391000DD0E8BE39FE10197F1F782E0F8018783E9
:1039200040E066E0C8010E94DD0E40E062E0C801B0
:103930000E94DD0E8BE39FE10197F1F75E9C800111
:103940005F9C100D112401551B4FD8018D919C9146
:1039500028E0FC01238760E00E948C09D8011296C0
:103960008C911297882309F4AAC015966C9115972B
:10397000669561508D919C910E94F40EB12C680166
:10398000B4E0CB0ED11CF801808191814B2D50E029
:10399000D6016C9170E09B012A50310937FF02C0BB
:1039A0002F5F3F4F359527954217530731F065E656
:1039B00072E00E949F0FB394E6CF67E671E00E9429
:1039C000CE01B12C5E9C80015F9C100D112401552D
:1039D0001B4F6801B4E0CB0ED11CF80180819181AE
:1039E0004B2D50E0D6016C9170E09B012A503109BB
:1039F00037FF02C02F5F3F4F35952795421753077A
:103A000031F065E671E00E94CE01B394E6CF5E9C92
:103A100080015F9C100D112401551B4FF801658139
:103A200066950E94F40EB12C6801F4E0CF0ED11C13
:103A3000D8018D919C914B2D50E0F601608170E092
:103A40009B012650310937FF02C02F5F3F4F35954C
:103A500027954217530731F063E671E00E94CE01CB
:103A6000B394E6CF6CE571E00E94CE01D12C5E9C50
:103A700080015F9C100D112401551B4F7801F4E06B
:103A8000EF0EF11CD8018D919C914D2D50E0F70166
:103A9000608170E09B012650310937FF02C02F5F23
:103AA0003F4F359527954217530731F06AE571E08E
:103AB0000E94CE01D394E6CF60E00E94F40E809184
:103AC00084028F5F8093840262E771E052CB0E9490
:103AD00063288C01AE01425F5E4F61E672E090E0C8
:103AE00080E00E9463287C01AE01425F5E4F61E688
:103AF00072E090E080E00E9463286C01AE01425FBA
:103B00005E4F61E672E090E080E00E9463285C0115
:103B1000AE01425F5E4F63E672E090E080E00E949B
:103B20006328C5010E941E28B82EC6010E941E28C7
:103B3000D82EC7010E941E28F82EC8010E941E28F8
:103B4000E0908502F2E0EF16E1F129E0E29E8001CB
:103B5000112403561B4FD80118962C9218978C935A
:103B60001196FC9211971296DC9212971396BC92C2
:103B700061E00E947F0361E0F80181810E947F0380
:103B800061E0D80112968C910E947F03F8011482A3
:103B9000158216821782C8010E94F70CD80114966C
:103BA0001D921D921D921C921797C8010E94F70C3E
:103BB000E394E092850263E871E085E090E00E9482
:103BC0007B10AE01425F5E4F63E672E090E080E002
:103BD0000E946328D2CACF93DF9300D000D000D0D8
:103BE000CDB7DEB766E872E0CE0101960E944813B9
:103BF000CE0101960E941918CE0101960E94970FDE
:103C000081E0809369046AE271E081E190E00E94C2
:103C10007B1026960FB6F894DEBF0FBECDBFDF91A6
:103C2000CF910895CF92DF92EF92FF92F82E4BE062
:103C300050E064E171E080E390E00E942A0FF1100F
:103C400009C080911401833529F4809115018E34C7
:103C500009F45BC080E480937C0080917A008064EA
:103C600080937A0080917A0086FDFCCF8091780065
:103C700060917900762F682F072E000C880B990B26
:103C8000611571058105910511F00E9415280E94AA
:103C9000C627CC24CA942FE0D22EE12CF12CA70108
:103CA00096010E94F3297F936F9387E692E09F939A
:103CB0008F9384E191E09F938F930E94CA2D0E947D
:103CC000C627A70196010E94F3297F936F9380E78F
:103CD00092E09F938F938BE191E09F938F930E944B
:103CE000CA2D8DB79EB70C960FB6F8949EBF0FBE27
:103CF0008DBF4BE050E064E171E080E390E0FF9025
:103D0000EF90DF90CF900C94720FFF90EF90DF90C8
:103D1000CF90089581E00E94121E8AE090E00E94F8
:103D20002C1084E191E00E9440100C945D10CF9320
:103D3000DF9300D000D000D0CDB7DEB720917E0257
:103D400030917F0280917C0290917D022817390783
:103D500021F410927D0210927C0280917C0290915D
:103D60007D0290937F0280937E021092860280E013
:103D70000E94121EE6E8F3E0119243E0E339F407F3
:103D8000D9F70E94070460935C0470935D048093EC
:103D90005E0490935F040E94BD1040E051E066E82D
:103DA00072E08BE390E00E942A0F68E670E085E005
:103DB00090E00E947B108091B80681110AC085E0D6
:103DC00090E00E942C1086E892E00E9440100E9431
:103DD0005D10E6E8F2E090E080E0382F292F8115B1
:103DE00041E09407B9F1419101964111F6CF30932A
:103DF00080022093810266E872E0CE0101960E9463
:103E00004813CE0101960E941918CE0101960E9416
:103E1000970F81E080936904198241E050E0BE0170
:103E20006F5F7F4F90E080E00E942A0F898183328C
:103E300041F44FE250E06FE171E081E090E00E94D8
:103E40002A0F26960FB6F894DEBF0FBECDBFDF91C6
:103E5000CF9108959093810280938002CCCF1F92DE
:103E60000F920FB60F9211242F933F934F935F93AE
:103E70006F937F938F939F93AF93BF93EF93FF9332
:103E80008BE196E00E947002FF91EF91BF91AF919C
:103E90009F918F917F916F915F914F913F912F9162
:103EA0000F900FBE0F901F9018951F920F920FB694
:103EB0000F9211242F938F939F93EF93FF93E09191
:103EC0002B06F0912C068081E0913106F0913206AC
:103ED00082FD1BC09081809134068F5F8F7320918B
:103EE0003506821741F0E0913406F0E0E55EF94FC7
:103EF000958F80933406FF91EF919F918F912F9131
:103F00000F900FBE0F901F9018958081F4CF1F92D5
:103F10000F920FB60F9211242F933F938F939F937D
:103F2000AF93BF938091540490915504A09156048F
:103F3000B09157043091530423E0230F2D3758F5E7
:103F40000196A11DB11D20935304809354049093B6
:103F50005504A0935604B09357048091580490914F
:103F60005904A0915A04B0915B040196A11DB11DA2
:103F70008093580490935904A0935A04B0935B041F
:103F8000BF91AF919F918F913F912F910F900FBE55
:103F90000F901F90189526E8230F0296A11DB11DC2
:103FA000D2CF1F920F920FB60F9211242F933F93EF
:103FB0004F935F936F937F938F939F93AF93BF9331
:103FC000CF93DF93EF93FF9380910204C0919C0401
:103FD000D0E087FF24C01092850010928400809169
:103FE00002048F5F8093020480910204082E000C6B
:103FF000990B8C179D0724F4809102048C30C4F136
:104000008091840090918500049680349C4908F446
:104010007AC08091840090918500049676C080914A
:104020000204082E000C990B8C179D07C4F6E09132
:1040300002048E2FEE0F990BFC01EE0FFF1FE80F0D
:10404000F91FE858FB4F808186FFC9CFE091020439
:104050008E2FEE0F990BFC01EE0FFF1FE80FF91FDB
:10406000E858FB4F808160E08F730E945103B7CF07
:104070002091840030918500E09102048E2FEE0F94
:10408000990BFC01EE0FFF1FE80FF91FE858FB4FDB
:1040900081819281820F931F909389008093880081
:1040A000E09102048E2FEE0F990BFC01EE0FFF1F23
:1040B000E80FF91FE858FB4F808186FF11C0E0919F
:1040C00002048E2FEE0F990BFC01EE0FFF1FE80F7D
:1040D000F91FE858FB4F808161E08F730E94510304
:1040E000FF91EF91DF91CF91BF91AF919F918F9110
:1040F0007F916F915F914F913F912F910F900FBEE4
:104100000F901F90189580E49CE99093890080930C
:1041100088008FEF80930204E3CF1F920F920FB6B7
:104120000F9211242F933F934F935F936F937F933D
:104130008F939F93AF93BF93EF93FF938091B900B9
:10414000887F803609F44AC0F0F5883209F4A7C0A8
:1041500018F5803109F49BC0B8F4882309F4F9C03C
:10416000883009F494C0FF91EF91BF91AF919F9176
:104170008F917F916F915F914F913F912F910F9010
:104180000FBE0F901F901895883109F488C08032B7
:1041900051F78093270414C0803409F49DC040F483
:1041A0008033B9F38833F9F68093270485ECB0C0E7
:1041B000803509F485C0883509F496C0883499F6AD
:1041C0000E940615D0CF883909F48CC038F588379D
:1041D00029F050F4883611F0803729F683E0809377
:1041E00029041092FC0357C0883809F47BC0803939
:1041F00019F0803809F0B7CF8091FC03803208F0C5
:1042000071C0E091FC0381E08E0F8093FC038091EC
:10421000BB00F0E0E452FC4F80833DC0803B39F0AE
:10422000E0F4803A09F479C0883A09F09CCF84E040
:10423000809329041092D9031092D803E091D603F9
:10424000F091D70309958091D80381110FC081E0C7
:104250008093D8031092B60309C0803C09F4A6CF1E
:10426000883C09F4A3CF883B09F07DCFE091D903C6
:1042700081E08E0F8093D903F0E0EA54FC4F8081F7
:104280008093BB009091D9038091D80329C080917D
:1042900004048093BB0085EC8093BC0064CF9091B4
:1042A000260480912504981758F5E091260481E0B2
:1042B0008E0F80932604F0E0EB5FFB4F8081E9CF07
:1042C000E091260481E08E0F809326048091BB004C
:1042D000F0E0EB5FFB4F80839091260480912504F2
:1042E0009817C8F285E8D8CFE091260481E08E0FB8
:1042F000809326048091BB00F0E0EB5FFB4F80834E
:104300008091280481115CCF81E08093030484EACA
:104310008093BC001092290426CF85EC8093BC00CA
:10432000109229048091FC03803230F4E091FC0368
:10433000F0E0E452FC4F10826091FC0370E0E091E9
:10434000DA03F091DB038CED93E009951092FC0306
:104350000ACF1092270434CF0F931F93CF93DF938C
:1043600010921E0610921D0688EE93E0A0E0B0E0C9
:1043700080931F0690932006A0932106B0932206F7
:104380002CE332E030931C0620931B0625EC30E032
:10439000309328062093270624EC30E030932A0639
:1043A0002093290620EC30E030932C0620932B0636
:1043B00021EC30E030932E0620932D0622EC30E0E5
:1043C0003093300620932F0626EC30E030933206EF
:1043D000209331061092340610923506109236065C
:1043E0001092370610926D0410926C0480936E0444
:1043F00090936F04A0937004B09371048EE492E0E4
:1044000090936B0480936A0484E690E09093770421
:104410008093760410924F0710924E078BE196E03E
:1044200090934A07809349071092C0068CE28093CC
:104430004C078BE380934B078FE280934D0780E41A
:104440008093BB068FE38093BC061092BA0610924D
:10445000450710924407109247071092460781E0E3
:1044600080934207E0E5F7E01192119287E0EC3883
:10447000F807D1F71092BF06CBE0D6E00BE116E0CB
:1044800061E0CE010E94040822960C171D07C1F7B7
:10449000CBEAD5E00BE016E045E752E061E0CE0163
:1044A0000E9486082C960C171D07B1F71092A905DB
:1044B00027E4E4EFF4E0DF01822F1D928A95E9F70B
:1044C00080E092E090934B0580934A051092F304AC
:1044D000EFE4F5E0DF011D922A95E9F79093A60538
:1044E0008093A50510924E0580919C048C3098F421
:1044F00091E0980F90939C048093C50490E0FC0198
:10450000EE0FFF1FE80FF91FE858FB4F88EB9BE009
:104510009283818303C08FEF8093C50480919C04B4
:104520008C3080F08FEF8093E0041092B1041092F1
:10453000B7041092A5041092AE04DF91CF911F91A1
:104540000F91089591E0980F90939C048093E0045C
:1045500090E0FC01EE0FFF1FE80FF91FE858FB4F3A
:1045600088EB9BE092838183E0CF789484B582606E
:1045700084BD84B5816084BD85B5826085BD85B507
:10458000816085BD80916E00816080936E00109285
:104590008100809181008260809381008091810000
:1045A0008160809381008091800081608093800091
:1045B0008091B10084608093B1008091B0008160EF
:1045C0008093B00080917A00846080937A0080911B
:1045D0007A00826080937A0080917A008160809373
:1045E0007A0080917A00806880937A001092C100EE
:1045F000E0912B06F0912C0682E08083E091270663
:10460000F09128061082E0912906F0912A0680E1B7
:10461000808310923306E0912F06F091300686E0F9
:104620008083E0912D06F0912E0680818061808349
:10463000E0912D06F0912E06808188608083E091C4
:104640002D06F0912E06808180688083E0912D06F2
:10465000F0912E0680818F7D80838FE990E1909389
:104660004F0780934E078EE89EE09093510780930A
:10467000500780E694E190935307809352078BE4B0
:104680009EE090938507809384078EE89BE090934B
:104690005507809354078DEB97E1909357078093CC
:1046A000560788EA9BE0909359078093580784EC5B
:1046B00092E1909363078093620784EE92E1909376
:1046C00069078093680784E993E190936707809373
:1046D000660787E891E190936B0780936A078FEAFA
:1046E00090E190936D0780936C078BEE9DE1909322
:1046F0007107809370078BE194E190937707809323
:1047000076078AE89EE190937907809378078DE891
:104710009CE090937B0780937A0789EA9CE09093D2
:104720007D0780937C0783E398E090937F078093D5
:104730007E0787E99EE190938107809380078BE352
:1047400097E1909383078093820783E29DE09093A3
:1047500087078093860763E172E085E090E00E941E
:104760007B100E94971E81E08093C0069924939449
:104770008091BF068111BDC08091490790914A0781
:10478000DC01ED91FC910084F185E02D0995892BE8
:1047900009F4AFC08091490790914A07DC01ED917F
:1047A000FC910084F185E02D099570E4E72EF12C51
:1047B0008034910564F48091490790914A07DC01A7
:1047C000ED91FC910084F185E02D09957C01C0916B
:1047D0004907D0914A0761E0A62E67E0B62E650131
:1047E00010E000E0E016F10611F10E94070468876E
:1047F00079878A879B87E881F9810284F385E02D98
:10480000CE01099597FF5CC30E9407044884598430
:104810006A847B8464197509860997094C805D80D8
:104820006E807F80641575058605970520F3D0E0BE
:10483000C0E0CE15DF050CF09BCFF50191915F0133
:104840001092410730914D072091BE069093BE060D
:10485000931304C0921302C01092BE068091BA0650
:10486000E82FF0E040914B07E854F94F941330C023
:10487000321771F11186882321F09092410710922E
:10488000BE061092BA061092450710924407109285
:104890004707109246079092420780914107813066
:1048A00031F50E947A0B8093B9068E31D0F42091B5
:1048B00043072223B1F0FC01FF27EE0FFF1FE05B4F
:1048C000F84F0190F081E02D309759F009950FC015
:1048D00091878F5F8093BA069091BC06891788F6FE
:1048E000DCCFE0914E07F0914F07309779F7219692
:1048F000A0CFC0905C04D0905D04E0905E04F09086
:104900005F04809160048111E1C20E9407046C1968
:104910007D098E099F09613A7B4B8D40910558F0C6
:1049200081E0809360040E940C0E66E272E085E0F4
:1049300090E00E947B1080916904882309F4B3C23F
:10494000CBEAD5E010E000E0809168048017110602
:1049500009F0BBC0C1EFD4E010E000E08091670433
:104960008017110609F0B8C042E6C42E44E0D42EE8
:10497000F12CE12C809166048E151F0409F03DC2D4
:10498000CBEBD4E010E000E0F8E8EF2EF12CA8E546
:10499000CA2EA2E0DA2E809161048017110609F474
:1049A00082C289899A89AB89BC894D855E856F856C
:1049B000788984179507A607B70709F482C04817B6
:1049C00059076A077B070CF06AC20197A109B10970
:1049D000898B9A8BAB8BBC8B0E9407046D8B7E8B73
:1049E0008F8B988FA989BA89A03222E0B207BCF5D3
:1049F0002B854701821A910827FD9394880C991CF6
:104A0000880C991C092C000CAA08BB082C85C6012F
:104A1000821B910927FD93959C01220F331F220FC2
:104A2000331F032E000C440B550B281939094A0972
:104A30005B09A53BB10514F0A4EBB0E0B7FF02C0E1
:104A4000B0E0A0E00E941D2A24EB30E040E050E0FE
:104A50000E94F329820E931EA41EB51ED4014A851E
:104A60004C3078F52B85F701E21BF10927FDF39512
:104A70009F01220F331F220F331FA217B3077CF0B1
:104A80002C85C601821B910927FD93959C01220F5D
:104A9000331F220F331FA217B3070CF49D012250BE
:104AA0003109220F331F5FB7F894842F90E0FC0187
:104AB000EE0FFF1FE80FF91FE858FB4F32832183E9
:104AC0005FBF0F5F1F4F6B9666CFCE010E944C08F1
:104AD0000F5F1F4F2C9638CF8A81882309F429C194
:104AE000CE0103960E940F0BCE010C960E940F0B75
:104AF000FE8421E0F226FF0C8D818227F82A5E01D8
:104B000047E2A40EB11C60E0C5010E94760AED8860
:104B1000FE1409F49BC06E0186E4C80ED11CD601B8
:104B20006D917D918D919C910E946C2B65307105EA
:104B30000CF404C1F60160817181828193810E942D
:104B40006C2B603171050CF0FCC0D6016D917D912C
:104B50008D919C910E946C2B6B01B5E0CB1AD10812
:104B60006E8D7F8D88A199A14A8C5B8C6C8C7D8C1D
:104B700064197509860997096E31710581059105DA
:104B80000CF4E3C02EE130E040E050E00E94F32955
:104B9000CA01B9012601DD0C66087708A30192015C
:104BA0000E94A72B9B01AC01C301B2010E94A72B5D
:104BB0009B01AC01C301B2010E94A72B28EE33E098
:104BC00040E050E00E94F32929013A01EFEF4E1A2C
:104BD0005E0A6E0A7E0A2E2D44E02402F0011124A2
:104BE0008F2D0F2C000C990BE82BF92BE85DFD4F56
:104BF0004081042E000C550B449DB001459D700D65
:104C0000549D700D11242E893F89260F371F3F8B2D
:104C10002E8BABE5A09F9001A19F300D11242F504A
:104C20003B4F820F931FFC0182A1882371F061E04A
:104C3000C5010E94760A2EA18E899F8902C0959592
:104C400087952A95E2F7998F888FFD8A888C998CB1
:104C5000092C000CAA08BB081E01FCE42F0E311C15
:104C6000F10180819181A281B38188169906AA06FB
:104C7000BB0609F45EC075016401C81AD90AEA0AC4
:104C8000FB0A412C512C32014394F7FE04C044240A
:104C90004A94542C3201B701A601F7FE07C04427FD
:104CA0005527BA014C195D096E097F09FE01E75AC3
:104CB000FF4F80819181B0E0A0E0481759076A0753
:104CC0007B070CF074C0F1E04F16510461047104CD
:104CD00009F040C0FE01E05BFF4F0190F081E02D44
:104CE0003097C1F1DE01A65BBF4F4D915C916881A9
:104CF00080E00995CC0CDD1CEE1CFF1CC80CD91CF7
:104D0000EA1CFB1CC11480E8D806E104F1045CF045
:104D10008E899F89837099279F8B8E8B198E188E11
:104D2000812C912C5401D1018D929D92AD92BC9217
:104D300013970F5F1F4FC55ADF4F10CED12CC12CD8
:104D40000FCF3AE0C32ED12C0BCF61E070E080E0B2
:104D500090E020CFFE01EC5AFF4F0190F081E02D52
:104D6000309741F0DE01A65BBF4F4D915C916981A8
:104D700082E0099541E0441651046104710409F48C
:104D8000B9CF472046204520409469F6CC0CDD1C65
:104D9000EE1CFF1CD501C4018C199D09AE09BF0989
:104DA00081159048AF4FBF4F0CF4B2CFBCCF21E07C
:104DB000421651046104710481F4FE01EE5AFF4F62
:104DC0000190F081E02D309741F0DE01A65BBF4FEE
:104DD0004D915C91688181E08CCFFE01EA5AFF4FD2
:104DE0000190F081E02D309729F2DE01A65BBF4FE4
:104DF0004D915C91698183E0BCCFF601C191D19165
:104E00006F018DA19EA1AFA1B8A5892B8A2B8B2BF9
:104E1000C9F10E94B0034B015C0189A59AA5ABA51D
:104E2000BCA5B501A401481B590B6A0B7B0B8DA1D6
:104E30009EA1AFA1B8A5481759076A077B0710F1D3
:104E40008D859E85AF85B889FE01EB5BFF4F208184
:104E5000222309F10196A11DB11D8D879E87AF8781
:104E6000B88B4D855E856F8578898E010E5F1F4FEB
:104E7000C8010E94160689A69AA6ABA6BCA6C801C0
:104E80000E945606CE018A5B9F4F0E944C08FFEF9E
:104E9000EF1AFF0A6FCD0197A109B109DECF019684
:104EA000A11DB11D95CD80E090E0892B09F45ECC69
:104EB0000E945C02882309F459CC0E94000056CC61
:104EC000D6018D936D010F5F1F4F8CCC0E9407049C
:104ED0006C197D098E099F09603A7B4B8D409105C5
:104EE00008F029CD1092600480E00E940C0E69E267
:104EF00072E01DCD8F929F92AF92BF92CF92DF92C0
:104F0000EF92FF92CF93DF93EC01688179818A81E0
:104F10009B81611571058105910521F464E279EDAC
:104F20008BE597E02DE133EF41E050E00E94F3295B
:104F300049015A019B01AC01A7EAB1E40E94122A7F
:104F40006B017C01ACEEB4EFA50194010E94202A14
:104F5000C60ED71EE81EF91EF7FE06C081E0C81A6D
:104F6000D108E10880E8F80AC882D982EA82FB8287
:104F7000C701B6019F77DF91CF91FF90EF90DF904F
:104F8000CF90BF90AF909F908F9008958F929F92F7
:104F9000AF92BF92CF92DF92EF92FF9260914F015A
:104FA00070915001809151019091520161157105EC
:104FB0008105910521F464E279ED8BE597E02DE11F
:104FC00033EF41E050E00E94F32949015A019B016F
:104FD000AC01A7EAB1E40E94122A6B017C01ACEE9D
:104FE000B4EFA50194010E94202AC60ED71EE81E28
:104FF000F91EF7FE06C081E0C81AD108E10880E872
:10500000F80AC0924F01D0925001E0925101F09203
:105010005201C701B6019F77FF90EF90DF90CF90CC
:10502000BF90AF909F908F90089560934F017093C1
:10503000500180935101909352010895FC018827FB
:105040009927E89421912032E9F3293010F02E308D
:10505000C8F32B3241F02D3239F4689404C00E9419
:105060009F28820F911D219120532A30C0F31EF4F6
:10507000909581959F4F08951F93FC01992788274C
:10508000BC01E89411911032E9F3193010F01E3090
:10509000C8F31B3251F01D3249F4689406C00E94D7
:1050A0008A28610F711D811D911D119110531A30B5
:1050B000B0F33EF490958095709561957F4F8F4F3A
:1050C0009F4F1F910895FA01A191B081009719F4A3
:1050D0001097E1F0CD01DC01CD010D90002011F41D
:1050E000C00113C0FB012191222319F02015D9F72B
:1050F000F3CFFB012191201519F41E92119606C0E1
:105100002223C1F70D900020A1F7D001FA01A1934D
:10511000B0830895592F482F372F262F660F771FFA
:10512000881F991F660F771F881F991F620F731FB3
:10513000841F951F660F771F881F991F08957AE0B7
:10514000979F902D879F802D910D112408950E9487
:10515000E92808F481E00895E89409C097FB3EF43B
:1051600090958095709561957F4F8F4F9F4F9923B4
:10517000A9F0F92F96E9BB279395F6958795779532
:105180006795B795F111F8CFFAF4BB0F11F460FFF2
:105190001BC06F5F7F4F8F4F9F4F16C0882311F04A
:1051A00096E911C0772321F09EE8872F762F05C05E
:1051B000662371F096E8862F70E060E02AF09A95F9
:1051C000660F771F881FDAF7880F9695879597F9EE
:1051D0000895990F0008550FAA0BE0E8FEEF161688
:1051E0001706E807F907C0F012161306E407F507DB
:1051F00098F0621B730B840B950B39F40A2661F04F
:10520000232B242B252B21F408950A2609F4A140F1
:10521000A6958FEF811D811D08950E9420290C9471
:1052200091290E94832938F00E948A2920F0952331
:1052300011F00C947A290C94802911240C94C5291E
:105240000E94A22970F3959FC1F3950F50E0551F5E
:10525000629FF001729FBB27F00DB11D639FAA27CB
:10526000F00DB11DAA1F649F6627B00DA11D661F1A
:10527000829F2227B00DA11D621F739FB00DA11D3B
:10528000621F839FA00D611D221F749F3327A00DF5
:10529000611D231F849F600D211D822F762F6A2F91
:1052A00011249F5750409AF0F1F088234AF0EE0FF6
:1052B000FF1FBB1F661F771F881F91505040A9F723
:1052C0009E3F510580F00C947A290C94C5295F3FCC
:1052D000E4F3983ED4F3869577956795B795F7955F
:1052E000E7959F5FC1F7FE2B880F911D96958795D7
:1052F00097F9089597F99F6780E870E060E0089556
:105300009FEF80EC089500240A94161617061806DD
:105310000906089500240A941216130614060506B9
:105320000895092E0394000C11F4882352F0BB0F4A
:1053300040F4BF2B11F460FF04C06F5F7F4F8F4FAD
:105340009F4F089557FD9058440F551F59F05F3FE8
:1053500071F04795880F97FB991F61F09F3F79F097
:1053600087950895121613061406551FF2CF469519
:10537000F1DF08C0161617061806991FF1CF86959B
:105380007105610508940895E894BB27662777277F
:10539000CB0197F90895DC01CB01FC01F999FECF0F
:1053A00006C0F2BDE1BDF89A319600B40D924150AD
:1053B0005040B8F70895DC01CB0103C02D910E9445
:1053C000E62941505040D0F70895262FF999FECF95
:1053D0001FBA92BD81BD20BD0FB6F894FA9AF99A12
:1053E0000FBE01960895052E97FB1EF400940E94AF
:1053F0000A2A57FD07D00E945C2A07FC03D04EF40E
:105400000C940A2A50954095309521953F4F4F4F67
:105410005F4F089590958095709561957F4F8F4F60
:105420009F4F08950E947E2AA59F900DB49F900DD6
:10543000A49F800D911D11240895B7FF0C94122A8A
:105440000E94122A821B930B08952F923F924F9233
:105450005F926F927F928F929F92AF92BF92CF9204
:10546000DF92EF92FF920F931F93CF93DF93CDB70D
:10547000DEB7CA1BDB0B0FB6F894DEBF0FBECDBF85
:1054800009942A88398848885F846E847D848C8456
:105490009B84AA84B984C884DF80EE80FD800C815F
:1054A0001B81AA81B981CE0FD11D0FB6F894DEBF42
:1054B0000FBECDBFED010895A1E21A2EAA1BBB1BA2
:1054C000FD010DC0AA1FBB1FEE1FFF1FA217B307D0
:1054D000E407F50720F0A21BB30BE40BF50B661FE6
:1054E000771F881F991F1A9469F7609570958095AA
:1054F00090959B01AC01BD01CF010895A29FB00121
:10550000B39FC001A39F700D811D1124911DB29FF7
:10551000700D811D1124911D08955058BB27AA2795
:105520000E94A52A0C9491290E94832938F00E9498
:105530008A2920F039F49F3F19F426F40C9480292D
:105540000EF4E095E7FB0C947A29E92F0E94A2293A
:1055500058F3BA17620773078407950720F079F4A8
:10556000A6F50C94C4290EF4E0950B2EBA2FA02DAD
:105570000B01B90190010C01CA01A0011124FF2700
:10558000591B99F0593F50F4503E68F11A16F040FB
:10559000A22F232F342F4427585FF3CF46953795FA
:1055A0002795A795F0405395C9F77EF41F16BA0BBF
:1055B000620B730B840BBAF09150A1F0FF0FBB1F6D
:1055C000661F771F881FC2F70EC0BA0F621F731FB6
:1055D000841F48F4879577956795B795F7959E3F13
:1055E00008F0B0CF9395880F08F09927EE0F9795A4
:1055F000879508950E940E2B0C9491290E948A2968
:1056000058F00E94832940F029F45F3F29F00C9460
:105610007A2951110C94C5290C9480290E94A22941
:1056200068F39923B1F3552391F3951B550BBB27D1
:10563000AA2762177307840738F09F5F5F4F220F16
:10564000331F441FAA1FA9F335D00E2E3AF0E0E80D
:1056500032D091505040E695001CCAF72BD0FE2F57
:1056600029D0660F771F881FBB1F261737074807EB
:10567000AB07B0E809F0BB0B802DBF01FF279358A3
:105680005F4F3AF09E3F510578F00C947A290C94C4
:10569000C5295F3FE4F3983ED4F3869577956795E7
:1056A000B795F7959F5FC9F7880F911D96958795D8
:1056B00097F90895E1E0660F771F881FBB1F6217F7
:1056C00073078407BA0720F0621B730B840BBA0BB5
:1056D000EE1F88F7E09508950E94732B6894B1112E
:1056E0000C94C52908950E94AA2988F09F5798F024
:1056F000B92F9927B751B0F0E1F0660F771F881FD7
:10570000991F1AF0BA95C9F714C0B13091F00E94F0
:10571000C429B1E008950C94C429672F782F8827F5
:10572000B85F39F0B93FCCF3869577956795B39517
:10573000D9F73EF490958095709561957F4F8F4F86
:105740009F4F08950E94E92808F48FEF0895DB0128
:105750008F939F930E94122ABF91AF91A29F800DB9
:10576000911DA39F900DB29F900D11240895991B38
:1057700079E004C0991F961708F0961B881F7A9548
:10578000C9F780950895EE0FFF1F0590F491E02D65
:1057900009940F931F93CF93DF938230910510F4F8
:1057A00082E090E0E0918E07F0918F0730E020E0FA
:1057B000B0E0A0E0309799F42115310509F44AC012
:1057C000281B390B24303105D8F58A819B8161155E
:1057D000710589F1FB0193838283FE0111C0408131
:1057E00051810281138148175907E0F04817590782
:1057F00099F4109761F012960C93129713961C93DC
:105800003296CF01DF91CF911F910F9108950093B0
:105810008E0710938F07F4CF2115310551F04217F1
:10582000530738F0A901DB019A01BD01DF01F8013E
:10583000C1CFEF01F9CF90938F0780938E07CDCF23
:10584000FE01E20FF31F81939193225031093983B6
:105850002883D7CF20918C0730918D07232B41F4DB
:10586000209155013091560130938D0720938C077C
:1058700020915301309154012115310541F42DB788
:105880003EB74091570150915801241B350BE091D0
:105890008C07F0918D07E217F307A0F42E1B3F0B46
:1058A0002817390778F0AC014E5F5F4F2417350792
:1058B00048F04E0F5F1F50938D0740938C078193E4
:1058C00091939FCFF0E0E0E09CCFCF93DF930097E0
:1058D000E9F0FC01329713821282A0918E07B091F9
:1058E0008F07ED0130E020E01097A1F42081318195
:1058F000820F931F20918C0730918D07281739074D
:1059000009F061C0F0938D07E0938C07DF91CF9190
:105910000895EA01CE17DF07E8F54A815B819E0111
:1059200041155105B1F7E901FB83EA83499159918A
:10593000C40FD51FEC17FD0761F480819181029699
:10594000840F951FE90199838883828193819B83CA
:105950008A83F0E0E0E012968D919C911397009776
:10596000B9F52D913C911197CD010296820F931FAD
:1059700020918C0730918D072817390739F6309719
:1059800051F510928F0710928E07B0938D07A09358
:105990008C07BCCFD383C28340815181840F951F74
:1059A000C817D90761F44E5F5F4F88819981480F0E
:1059B000591F518340838A819B8193838283211560
:1059C000310509F0B0CFF0938F07E0938E079ECF9B
:1059D000FD01DC01C0CF13821282D7CFB0E0A0E07E
:1059E000E4EFFCE20C94272A8C01009751F4CB01E0
:1059F0000E94C92B8C01C801CDB7DEB7E0E10C9441
:105A0000432AFC01E60FF71F9C0122503109E217DF
:105A1000F30708F49DC0D901CD91DC911197C61709
:105A2000D70798F0C530D10530F3CE01049786171B
:105A3000970708F3C61BD70B2297C193D1936D9399
:105A40007C93CF010E94652CD6CF5B01AC1ABD0AB6
:105A50004C018C0E9D1EA0918E07B0918F07512C8A
:105A6000412CF12CE12C109731F580918C0790910D
:105A70008D078815990509F05CC04616570608F091
:105A800058C08091530190915401009741F48DB713
:105A90009EB74091570150915801841B950BE81710
:105AA000F90708F055C0F0938D07E0938C07F901D2
:105AB00071836083A0CF8D919C91119712966C9009
:105AC000129713967C901397A815B90559F56C0198
:105AD00042E0C40ED11CCA14DB0420F1AC014A1907
:105AE0005B09DA011296159780F062827382518306
:105AF0004083D9016D937C93E114F10471F0D701D7
:105B00001396FC93EE93129776CF22968C0F9D1FDF
:105B1000F90191838083F301EFCFF0938F07E09336
:105B20008E0769CF4816590608F42C017D01D30170
:105B30009ACFCB010E94C92B7C01009749F0AE019E
:105B4000B8010E94AB2DC8010E94652C870153CF7C
:105B500010E000E050CFFB01DC0102C001900D928B
:105B600041505040D8F70895FB01DC0101900D929F
:105B70000020E1F70895FB01DC014150504048F05E
:105B800001900D920020C9F701C01D924150504074
:105B9000E0F70895AEE0B0E0E0EDFDE20C94332ACA
:105BA0000D891E8986E08C831A8309838FEF9FE716
:105BB0009E838D83AE01475E5F4F6F89788DCE01E6
:105BC00001960E94ED2D2F813885020F131FF801D9
:105BD00010822E96E4E00C944F2AABE0B0E0E3EFA5
:105BE000FDE20C94252A7C013B018A01FC0117820D
:105BF0001682838181FFC8C1CE0101965C01F70145
:105C00009381F30193FD859193FF81913F01882357
:105C100009F453C1853239F493FD859193FF819145
:105C20003F01853229F4B70190E00E94DD2FE7CFD4
:105C3000912C212C312CFFE1F31538F08B3211F12E
:105C400090F4803209F1833229F137FC3CC020ED19
:105C5000280F2A3050F536FE20C08AE0989E200D8D
:105C60001124922E06C08D3291F0803371F7689422
:105C700030F8F30193FD859193FF81913F018111EC
:105C8000DACF21C0689431F8689432F8F2CF689482
:105C900033F8EFCF689434F8ECCFEAE02E9E200D75
:105CA0001124222E689435F8E4CF8E3229F436FC84
:105CB00004C1689436F8DDCF8C3619F4689437F84F
:105CC000D8CF8836B1F2982F9F7D95549330E0F06D
:105CD0008336A1F18337C1F1833509F063C0280110
:105CE000F2E04F0E511CF801C080D180692D70E0A8
:105CF00036FC02C06FEF7FEFC6010E94C72F4C0138
:105D0000689437F882010AC00C5F1F4FFFE3F983E4
:105D100088248394912C6501E89437F833FE2DC0D4
:105D2000522C8114910471F5552009F468CFB70104
:105D300080E290E00E94DD2F5A94F6CFF801808136
:105D400089830E5F1F4FE4CF2801F2E04F0E511CF4
:105D5000F801C080D180692D70E036FC02C06FEF81
:105D60007FEFC6010E94D22F4C018201D5CFB7012F
:105D700080E290E00E94DD2F2A942814190409F093
:105D8000B0F7CECFF60137FC859137FE81916F01D8
:105D9000B70190E00E94DD2F51105A94F1E08F1A64
:105DA0009108BFCF843619F0893609F077C0F80121
:105DB00037FE6BC060817181828193810C5F1F4FC0
:105DC000F32DFF763F2E97FF09C090958095709533
:105DD00061957F4F8F4F9F4F689437F82AE030E0EE
:105DE000A5010E940D30C82ECA188C2C432C36FEFB
:105DF0000CC0E89440F8C91440F434FE05C032FCED
:105E000003C0F32DFE7E4F2E892C44FE95C0FE016B
:105E1000EC0DF11D8081803309F087C0242D297E8F
:105E2000422E842D8870582E43FC95C040FE8FC0B2
:105E30009C2C821418F42C0C922C981844FE91C0BF
:105E4000B70180E390E00E94DD2F42FE09C088E7A1
:105E500090E041FE02C088E590E0B7010E94DD2F8E
:105E6000C91408F48AC0CA94D12C9FEFC91AD90A60
:105E7000CA0CDB1CF60182916F01B70190E00E9411
:105E8000DD2FAC14BD04B1F74FCF60817181072EB7
:105E9000000C880B990B0E5F1F4F92CFD32CE89408
:105EA000D4F82AE030E0853739F1232D297FD22E2E
:105EB0008F3601F148F48835A9F0F7018681978182
:105EC0002B96E2E10C94412A803749F08837A9F7F4
:105ED000D4FE02C06894D2F820E130E00DC068948E
:105EE000D4F8F6CF34FE03C0822F8660D82E20E18E
:105EF00032E002C028E030E0F801D7FE0FC0608138
:105F00007181828193810C5F1F4FA5010E940D302A
:105F1000C82ECA183D2CE89437F867CF608171818C
:105F200090E080E00E5F1F4FF0CF42FC02C08394F0
:105F300078CF8394839475CF842D867809F471CFBC
:105F4000F6CFB70180E290E00E94DD2F83948214A7
:105F5000C0F3512C73CF522C5818821408F46ECF12
:105F6000F8CF842D867809F47BCF8BE241FE80E266
:105F700047FC8DE2B70190E071CFB70180E390E07C
:105F80000E94DD2F9A946CCF8FEF9FEF99CFFC0189
:105F90000590615070400110D8F7809590958E0F54
:105FA0009F1F0895FC016150704001900110D8F7C7
:105FB000809590958E0F9F1F08950F931F93CF93F9
:105FC000DF93182F092FEB018B8181FD09C01FEF93
:105FD0000FEF812F902FDF91CF911F910F91089597
:105FE00082FF14C02E813F818C819D812817390743
:105FF0003CF4E881F981CF0101969983888310836D
:106000008E819F8101969F838E83E3CFE885F985FA
:10601000812F0995892BA1F3DACFFA01AA2728301D
:1060200051F1203181F1E8946F936E7F6E5F7F4F65
:106030008F4F9F4FAF4FB1E03ED0B4E03CD0670FE1
:10604000781F891F9A1FA11D680F791F8A1F911D34
:10605000A11D6A0F711D811D911DA11D20D009F484
:1060600068943F912AE0269F11243019305D3193C6
:10607000DEF6CF010895462F4770405D4193B3E0AF
:106080000FD0C9F7F6CF462F4F70405D4A3318F056
:10609000495D31FD4052419302D0A9F7EACFB4E007
:1060A000A6959795879577956795BA95C9F70097BF
:1060B0006105710508959B01AC010A2E0694579560
:1060C000479537952795BA95C9F7620F731F841FB7
:0A60D000951FA01D0895F894FFCF5E
:1060DA004D6F6269466C6967687420556E6F00007F
:1060EA000000000030393837363534333231004D4C
:1060FA006F6269466C6967687420556E6F000000AC
:10610A000000000000000000000000000000000085
:10611A000000000000000000000000000000000174
:10612A0000000000009007800000004000140054A6
:10613A00000000000102010000000201000001014C
:10614A000001010001010101010000000000240F0B
:10615A00F201730A3804312E392E370000007E30DE
:10616A006D79335B5F707F7B771F0D3D4F47000072
:10617A000000000000000000000000000000000015
:10618A0000000000000000000000800180257E3031
:10619A006D79335B5F707F7B000000090000007738
:1061AA007F4E7E4F475F37307C000E00767E677EDB
:1061BA00775B463E000000336D4E13780008007D81
:1061CA001F0D3D4F477B373038000600151D67739A
:1061DA00055B0F1C000000276D4E007800000000D0
:1061EA0000006D043904D8051606C2058605650542
:1061FA0031051005BA048B0400FF0100010000FFFD
:10620A00FF0000010001FF00000000009202F201FD
:10621A001F02DF0250022E024202000000005D0946
:10622A003009730A06092909160907090D0A0030F7
:10623A00002E003A002000534E2D253033782D00D1
:0C624A002530337800427574746F6E00CC
:00000001FF
